{
  "contractName": "BaseConstituency",
  "abi": [
    {
      "constant": false,
      "inputs": [],
      "name": "renounceOwnership",
      "outputs": [],
      "payable": false,
      "stateMutability": "nonpayable",
      "type": "function"
    },
    {
      "constant": true,
      "inputs": [],
      "name": "owner",
      "outputs": [
        {
          "name": "",
          "type": "address"
        }
      ],
      "payable": false,
      "stateMutability": "view",
      "type": "function"
    },
    {
      "constant": false,
      "inputs": [
        {
          "name": "_newOwner",
          "type": "address"
        }
      ],
      "name": "transferOwnership",
      "outputs": [],
      "payable": false,
      "stateMutability": "nonpayable",
      "type": "function"
    },
    {
      "inputs": [
        {
          "name": "_constituencyType",
          "type": "uint256"
        },
        {
          "name": "_constituencyName",
          "type": "string"
        }
      ],
      "payable": false,
      "stateMutability": "nonpayable",
      "type": "constructor"
    },
    {
      "anonymous": false,
      "inputs": [
        {
          "indexed": true,
          "name": "previousOwner",
          "type": "address"
        }
      ],
      "name": "OwnershipRenounced",
      "type": "event"
    },
    {
      "anonymous": false,
      "inputs": [
        {
          "indexed": true,
          "name": "previousOwner",
          "type": "address"
        },
        {
          "indexed": true,
          "name": "newOwner",
          "type": "address"
        }
      ],
      "name": "OwnershipTransferred",
      "type": "event"
    },
    {
      "constant": true,
      "inputs": [],
      "name": "getStuff",
      "outputs": [
        {
          "name": "",
          "type": "uint256"
        },
        {
          "name": "",
          "type": "string"
        }
      ],
      "payable": false,
      "stateMutability": "view",
      "type": "function"
    }
  ],
  "bytecode": "0x608060405234801561001057600080fd5b5060405161066e38038061066e8339810180604052810190808051906020019092919080518201929190505050336000806101000a81548173ffffffffffffffffffffffffffffffffffffffff021916908373ffffffffffffffffffffffffffffffffffffffff16021790555060006001819055508160028190555080600390805190602001906100a29291906100aa565b50505061014f565b828054600181600116156101000203166002900490600052602060002090601f016020900481019282601f106100eb57805160ff1916838001178555610119565b82800160010185558215610119579182015b828111156101185782518255916020019190600101906100fd565b5b509050610126919061012a565b5090565b61014c91905b80821115610148576000816000905550600101610130565b5090565b90565b6105108061015e6000396000f300608060405260043610610062576000357c0100000000000000000000000000000000000000000000000000000000900463ffffffff168063715018a614610067578063874057581461007e5780638da5cb5b14610115578063f2fde38b1461016c575b600080fd5b34801561007357600080fd5b5061007c6101af565b005b34801561008a57600080fd5b506100936102b1565b6040518083815260200180602001828103825283818151815260200191508051906020019080838360005b838110156100d95780820151818401526020810190506100be565b50505050905090810190601f1680156101065780820380516001836020036101000a031916815260200191505b50935050505060405180910390f35b34801561012157600080fd5b5061012a61035e565b604051808273ffffffffffffffffffffffffffffffffffffffff1673ffffffffffffffffffffffffffffffffffffffff16815260200191505060405180910390f35b34801561017857600080fd5b506101ad600480360381019080803573ffffffffffffffffffffffffffffffffffffffff169060200190929190505050610383565b005b6000809054906101000a900473ffffffffffffffffffffffffffffffffffffffff1673ffffffffffffffffffffffffffffffffffffffff163373ffffffffffffffffffffffffffffffffffffffff1614151561020a57600080fd5b6000809054906101000a900473ffffffffffffffffffffffffffffffffffffffff1673ffffffffffffffffffffffffffffffffffffffff167ff8df31144d9c2f0f6b59d69b8b98abd5459d07f2742c4df920b25aae33c6482060405160405180910390a260008060006101000a81548173ffffffffffffffffffffffffffffffffffffffff021916908373ffffffffffffffffffffffffffffffffffffffff160217905550565b600060606002546003808054600181600116156101000203166002900480601f01602080910402602001604051908101604052809291908181526020018280546001816001161561010002031660029004801561034f5780601f106103245761010080835404028352916020019161034f565b820191906000526020600020905b81548152906001019060200180831161033257829003601f168201915b50505050509050915091509091565b6000809054906101000a900473ffffffffffffffffffffffffffffffffffffffff1681565b6000809054906101000a900473ffffffffffffffffffffffffffffffffffffffff1673ffffffffffffffffffffffffffffffffffffffff163373ffffffffffffffffffffffffffffffffffffffff161415156103de57600080fd5b6103e7816103ea565b50565b600073ffffffffffffffffffffffffffffffffffffffff168173ffffffffffffffffffffffffffffffffffffffff161415151561042657600080fd5b8073ffffffffffffffffffffffffffffffffffffffff166000809054906101000a900473ffffffffffffffffffffffffffffffffffffffff1673ffffffffffffffffffffffffffffffffffffffff167f8be0079c531659141344cd1fd0a4f28419497f9722a3daafe3b4186f6b6457e060405160405180910390a3806000806101000a81548173ffffffffffffffffffffffffffffffffffffffff021916908373ffffffffffffffffffffffffffffffffffffffff160217905550505600a165627a7a723058207cf2b5cbae2f6764746d771482671c98867822cd6ffe13668c7ecc56b0b2b2280029",
  "source": "pragma solidity ^0.4.24;\r\n\r\nimport \"./Ownable.sol\";\r\n\r\ncontract BaseConstituency is Ownable {\r\n    uint numVotes;\r\n    uint constituencyType;\r\n    string constituencyName;\r\n\r\n    struct Candidate {\r\n        string name;\r\n        uint numVotes;\r\n        bool validCandidate;\r\n    }\r\n\r\n    struct Voter {\r\n        bool hasVoted;\r\n        bool validVote;\r\n        uint candidateVote;\r\n    }\r\n\r\n    Candidate[] candidates;\r\n\r\n    constructor(uint _constituencyType, string _constituencyName) public{\r\n        numVotes = 0;\r\n        constituencyType = _constituencyType;\r\n        constituencyName = _constituencyName;\r\n    }\r\n\r\n    function getStuff() public view returns(uint, string){\r\n        return (constituencyType, constituencyName);\r\n    }\r\n\r\n}\r\n",
  "sourcePath": "D:\\blockchain\\contracts\\BaseConstituency.sol",
  "compiler": {
    "name": "solc",
    "version": "0.4.24+commit.e67f0147.Emscripten.clang"
  },
  "schemaVersion": "2.0.0",
  "updatedAt": "2018-07-05T09:28:58.489Z"
}