{
  "contractName": "Election",
  "abi": [
    {
      "constant": true,
      "inputs": [],
      "name": "totalVotes",
      "outputs": [
        {
          "name": "",
          "type": "uint256"
        }
      ],
      "payable": false,
      "stateMutability": "view",
      "type": "function"
    },
    {
      "constant": true,
      "inputs": [
        {
          "name": "",
          "type": "uint256"
        }
      ],
      "name": "candidates",
      "outputs": [
        {
          "name": "candidateId",
          "type": "uint256"
        },
        {
          "name": "numVotes",
          "type": "uint256"
        },
        {
          "name": "name",
          "type": "string"
        },
        {
          "name": "validCandidate",
          "type": "bool"
        }
      ],
      "payable": false,
      "stateMutability": "view",
      "type": "function"
    },
    {
      "constant": true,
      "inputs": [
        {
          "name": "",
          "type": "uint256"
        }
      ],
      "name": "parties",
      "outputs": [
        {
          "name": "partyId",
          "type": "uint256"
        },
        {
          "name": "name",
          "type": "string"
        },
        {
          "name": "abbreviation",
          "type": "string"
        }
      ],
      "payable": false,
      "stateMutability": "view",
      "type": "function"
    },
    {
      "constant": false,
      "inputs": [],
      "name": "renounceOwnership",
      "outputs": [],
      "payable": false,
      "stateMutability": "nonpayable",
      "type": "function"
    },
    {
      "constant": true,
      "inputs": [],
      "name": "owner",
      "outputs": [
        {
          "name": "",
          "type": "address"
        }
      ],
      "payable": false,
      "stateMutability": "view",
      "type": "function"
    },
    {
      "constant": false,
      "inputs": [
        {
          "name": "_newOwner",
          "type": "address"
        }
      ],
      "name": "transferOwnership",
      "outputs": [],
      "payable": false,
      "stateMutability": "nonpayable",
      "type": "function"
    },
    {
      "inputs": [],
      "payable": false,
      "stateMutability": "nonpayable",
      "type": "constructor"
    },
    {
      "anonymous": false,
      "inputs": [
        {
          "indexed": false,
          "name": "constituencyCode",
          "type": "string"
        },
        {
          "indexed": false,
          "name": "constituencyName",
          "type": "string"
        },
        {
          "indexed": false,
          "name": "constituencyType",
          "type": "uint256"
        }
      ],
      "name": "NewConstituency",
      "type": "event"
    },
    {
      "anonymous": false,
      "inputs": [
        {
          "indexed": false,
          "name": "partyId",
          "type": "uint256"
        },
        {
          "indexed": false,
          "name": "name",
          "type": "string"
        },
        {
          "indexed": false,
          "name": "abbreviation",
          "type": "string"
        }
      ],
      "name": "NewParty",
      "type": "event"
    },
    {
      "anonymous": false,
      "inputs": [
        {
          "indexed": false,
          "name": "candidateId",
          "type": "uint256"
        },
        {
          "indexed": false,
          "name": "name",
          "type": "string"
        },
        {
          "indexed": false,
          "name": "partyId",
          "type": "uint256"
        },
        {
          "indexed": false,
          "name": "constituencyCode",
          "type": "string"
        }
      ],
      "name": "NewCandidate",
      "type": "event"
    },
    {
      "anonymous": false,
      "inputs": [
        {
          "indexed": false,
          "name": "validFederalVote",
          "type": "bool"
        },
        {
          "indexed": false,
          "name": "validStateVote",
          "type": "bool"
        },
        {
          "indexed": false,
          "name": "federalCandidateId",
          "type": "uint256"
        },
        {
          "indexed": false,
          "name": "stateCandidateIds",
          "type": "uint256"
        }
      ],
      "name": "NewVote",
      "type": "event"
    },
    {
      "anonymous": false,
      "inputs": [
        {
          "indexed": true,
          "name": "previousOwner",
          "type": "address"
        }
      ],
      "name": "OwnershipRenounced",
      "type": "event"
    },
    {
      "anonymous": false,
      "inputs": [
        {
          "indexed": true,
          "name": "previousOwner",
          "type": "address"
        },
        {
          "indexed": true,
          "name": "newOwner",
          "type": "address"
        }
      ],
      "name": "OwnershipTransferred",
      "type": "event"
    },
    {
      "constant": false,
      "inputs": [
        {
          "name": "_constituencyType",
          "type": "uint256"
        },
        {
          "name": "_constituencyCode",
          "type": "string"
        },
        {
          "name": "_constituencyName",
          "type": "string"
        }
      ],
      "name": "initialiseConstituency",
      "outputs": [],
      "payable": false,
      "stateMutability": "nonpayable",
      "type": "function"
    },
    {
      "constant": false,
      "inputs": [
        {
          "name": "_partyName",
          "type": "string"
        },
        {
          "name": "_partyAbbreviation",
          "type": "string"
        }
      ],
      "name": "registerParty",
      "outputs": [],
      "payable": false,
      "stateMutability": "nonpayable",
      "type": "function"
    },
    {
      "constant": false,
      "inputs": [
        {
          "name": "_constituencyCode",
          "type": "string"
        },
        {
          "name": "_candidateName",
          "type": "string"
        },
        {
          "name": "_partyId",
          "type": "uint256"
        }
      ],
      "name": "registerCandidate",
      "outputs": [],
      "payable": false,
      "stateMutability": "nonpayable",
      "type": "function"
    },
    {
      "constant": false,
      "inputs": [
        {
          "name": "_voterHash",
          "type": "string"
        },
        {
          "name": "_federalCandidateVote",
          "type": "uint256[]"
        },
        {
          "name": "_stateCandidateVote",
          "type": "uint256[]"
        }
      ],
      "name": "vote",
      "outputs": [],
      "payable": false,
      "stateMutability": "nonpayable",
      "type": "function"
    },
    {
      "constant": true,
      "inputs": [
        {
          "name": "_vote",
          "type": "uint256[]"
        }
      ],
      "name": "isValidVote",
      "outputs": [
        {
          "name": "",
          "type": "bool"
        }
      ],
      "payable": false,
      "stateMutability": "pure",
      "type": "function"
    },
    {
      "constant": true,
      "inputs": [
        {
          "name": "_vote",
          "type": "uint256[]"
        }
      ],
      "name": "isExistingStateConstituency",
      "outputs": [
        {
          "name": "",
          "type": "bool"
        }
      ],
      "payable": false,
      "stateMutability": "pure",
      "type": "function"
    },
    {
      "constant": false,
      "inputs": [
        {
          "name": "_candidateId",
          "type": "uint256"
        }
      ],
      "name": "invalidateCandidate",
      "outputs": [],
      "payable": false,
      "stateMutability": "nonpayable",
      "type": "function"
    },
    {
      "constant": true,
      "inputs": [
        {
          "name": "a",
          "type": "string"
        },
        {
          "name": "b",
          "type": "string"
        }
      ],
      "name": "compareStrings",
      "outputs": [
        {
          "name": "",
          "type": "bool"
        }
      ],
      "payable": false,
      "stateMutability": "pure",
      "type": "function"
    },
    {
      "constant": true,
      "inputs": [
        {
          "name": "_constituencyCode",
          "type": "string"
        }
      ],
      "name": "getConstituency",
      "outputs": [
        {
          "name": "",
          "type": "bool"
        },
        {
          "name": "",
          "type": "uint256"
        },
        {
          "name": "",
          "type": "uint256[]"
        },
        {
          "name": "",
          "type": "string"
        },
        {
          "name": "",
          "type": "uint8"
        }
      ],
      "payable": false,
      "stateMutability": "view",
      "type": "function"
    },
    {
      "constant": true,
      "inputs": [
        {
          "name": "_partyId",
          "type": "uint256"
        }
      ],
      "name": "getParty",
      "outputs": [
        {
          "name": "",
          "type": "string"
        },
        {
          "name": "",
          "type": "string"
        }
      ],
      "payable": false,
      "stateMutability": "view",
      "type": "function"
    },
    {
      "constant": true,
      "inputs": [
        {
          "name": "_candidateId",
          "type": "uint256"
        }
      ],
      "name": "getCandidate",
      "outputs": [
        {
          "name": "",
          "type": "uint256"
        },
        {
          "name": "",
          "type": "string"
        },
        {
          "name": "",
          "type": "bool"
        },
        {
          "name": "",
          "type": "uint256"
        },
        {
          "name": "",
          "type": "string"
        }
      ],
      "payable": false,
      "stateMutability": "view",
      "type": "function"
    },
    {
      "constant": true,
      "inputs": [
        {
          "name": "_hash",
          "type": "string"
        }
      ],
      "name": "getVoter",
      "outputs": [
        {
          "name": "",
          "type": "bool"
        },
        {
          "name": "",
          "type": "bool"
        },
        {
          "name": "",
          "type": "bool"
        },
        {
          "name": "",
          "type": "uint256"
        },
        {
          "name": "",
          "type": "uint256"
        }
      ],
      "payable": false,
      "stateMutability": "view",
      "type": "function"
    },
    {
      "constant": true,
      "inputs": [],
      "name": "getPartiesLength",
      "outputs": [
        {
          "name": "",
          "type": "uint256"
        }
      ],
      "payable": false,
      "stateMutability": "view",
      "type": "function"
    }
  ],
  "bytecode": "0x608060405234801561001057600080fd5b50336000806101000a81548173ffffffffffffffffffffffffffffffffffffffff021916908373ffffffffffffffffffffffffffffffffffffffff16021790555060006001819055506130c1806100686000396000f300608060405260043610610107576000357c0100000000000000000000000000000000000000000000000000000000900463ffffffff1680630d15fd771461010c57806314a0069a14610137578063346d1abb146101dc5780633477ee2e1461032d57806335b8e820146103ec5780635aba64261461051757806370651a18146105c6578063715018a6146106df5780638814a750146106f65780638baf519b146107af5780638da5cb5b1461086857806394758218146108bf57806399d9f5fc146109d1578063bed34bba14610a4f578063e2829f0c14610b16578063e8b614c014610b43578063ea0dc63614610b6e578063f2fde38b14610c5d578063fea6c47714610ca0575b600080fd5b34801561011857600080fd5b50610121610d1e565b6040518082815260200191505060405180910390f35b34801561014357600080fd5b5061019e600480360381019080803590602001908201803590602001908080601f0160208091040260200160405190810160405280939291908181526020018383808284378201915050505050509192919290505050610d24565b604051808615151515815260200185151515158152602001841515151581526020018381526020018281526020019550505050505060405180910390f35b3480156101e857600080fd5b50610243600480360381019080803590602001908201803590602001908080601f0160208091040260200160405190810160405280939291908181526020018383808284378201915050505050509192919290505050610fac565b6040518086151515158152602001858152602001806020018060200184600181111561026b57fe5b60ff168152602001838103835286818151815260200191508051906020019060200280838360005b838110156102ae578082015181840152602081019050610293565b50505050905001838103825285818151815260200191508051906020019080838360005b838110156102ed5780820151818401526020810190506102d2565b50505050905090810190601f16801561031a5780820380516001836020036101000a031916815260200191505b5097505050505050505060405180910390f35b34801561033957600080fd5b506103586004803603810190808035906020019092919050505061130e565b604051808581526020018481526020018060200183151515158152602001828103825284818151815260200191508051906020019080838360005b838110156103ae578082015181840152602081019050610393565b50505050905090810190601f1680156103db5780820380516001836020036101000a031916815260200191505b509550505050505060405180910390f35b3480156103f857600080fd5b50610417600480360381019080803590602001909291905050506113f2565b60405180868152602001806020018515151515815260200184815260200180602001838103835287818151815260200191508051906020019080838360005b83811015610471578082015181840152602081019050610456565b50505050905090810190601f16801561049e5780820380516001836020036101000a031916815260200191505b50838103825284818151815260200191508051906020019080838360005b838110156104d75780820151818401526020810190506104bc565b50505050905090810190601f1680156105045780820380516001836020036101000a031916815260200191505b5097505050505050505060405180910390f35b34801561052357600080fd5b506105c4600480360381019080803590602001908201803590602001908080601f0160208091040260200160405190810160405280939291908181526020018383808284378201915050505050509192919290803590602001908201803590602001908080601f01602080910402602001604051908101604052809392919081815260200183838082843782019150505050505091929192905050506115f3565b005b3480156105d257600080fd5b506105f160048036038101908080359060200190929190505050611902565b604051808481526020018060200180602001838103835285818151815260200191508051906020019080838360005b8381101561063b578082015181840152602081019050610620565b50505050905090810190601f1680156106685780820380516001836020036101000a031916815260200191505b50838103825284818151815260200191508051906020019080838360005b838110156106a1578082015181840152602081019050610686565b50505050905090810190601f1680156106ce5780820380516001836020036101000a031916815260200191505b509550505050505060405180910390f35b3480156106eb57600080fd5b506106f4611a6b565b005b34801561070257600080fd5b506107ad60048036038101908080359060200190929190803590602001908201803590602001908080601f0160208091040260200160405190810160405280939291908181526020018383808284378201915050505050509192919290803590602001908201803590602001908080601f0160208091040260200160405190810160405280939291908181526020018383808284378201915050505050509192919290505050611b6d565b005b3480156107bb57600080fd5b50610866600480360381019080803590602001908201803590602001908080601f0160208091040260200160405190810160405280939291908181526020018383808284378201915050505050509192919290803590602001908201803590602001908080601f016020809104026020016040519081016040528093929190818152602001838380828437820191505050505050919291929080359060200190929190505050611fa3565b005b34801561087457600080fd5b5061087d612350565b604051808273ffffffffffffffffffffffffffffffffffffffff1673ffffffffffffffffffffffffffffffffffffffff16815260200191505060405180910390f35b3480156108cb57600080fd5b506108ea60048036038101908080359060200190929190505050612375565b604051808060200180602001838103835285818151815260200191508051906020019080838360005b8381101561092e578082015181840152602081019050610913565b50505050905090810190601f16801561095b5780820380516001836020036101000a031916815260200191505b50838103825284818151815260200191508051906020019080838360005b83811015610994578082015181840152602081019050610979565b50505050905090810190601f1680156109c15780820380516001836020036101000a031916815260200191505b5094505050505060405180910390f35b3480156109dd57600080fd5b50610a35600480360381019080803590602001908201803590602001908080602002602001604051908101604052809392919081815260200183836020028082843782019150505050505091929192905050506124fe565b604051808215151515815260200191505060405180910390f35b348015610a5b57600080fd5b50610afc600480360381019080803590602001908201803590602001908080601f0160208091040260200160405190810160405280939291908181526020018383808284378201915050505050509192919290803590602001908201803590602001908080601f016020809104026020016040519081016040528093929190818152602001838380828437820191505050505050919291929050505061255a565b604051808215151515815260200191505060405180910390f35b348015610b2257600080fd5b50610b4160048036038101908080359060200190929190505050612716565b005b348015610b4f57600080fd5b50610b586127c2565b6040518082815260200191505060405180910390f35b348015610b7a57600080fd5b50610c5b600480360381019080803590602001908201803590602001908080601f016020809104026020016040519081016040528093929190818152602001838380828437820191505050505050919291929080359060200190820180359060200190808060200260200160405190810160405280939291908181526020018383602002808284378201915050505050509192919290803590602001908201803590602001908080602002602001604051908101604052809392919081815260200183836020028082843782019150505050505091929192905050506127cf565b005b348015610c6957600080fd5b50610c9e600480360381019080803573ffffffffffffffffffffffffffffffffffffffff169060200190929190505050612da3565b005b348015610cac57600080fd5b50610d0460048036038101908080359060200190820180359060200190808060200260200160405190810160405280939291908181526020018383602002808284378201915050505050509192919290505050612e0a565b604051808215151515815260200191505060405180910390f35b60015481565b60008060008060008060008060008060048b6040518082805190602001908083835b602083101515610d6b5780518252602082019150602081019050602083039250610d46565b6001836020036101000a038019825116818451168082178552505050505050905001915050908152602001604051809103902060000160009054906101000a900460ff16945060048b6040518082805190602001908083835b602083101515610de95780518252602082019150602081019050602083039250610dc4565b6001836020036101000a038019825116818451168082178552505050505050905001915050908152602001604051809103902060000160019054906101000a900460ff16935060048b6040518082805190602001908083835b602083101515610e675780518252602082019150602081019050602083039250610e42565b6001836020036101000a038019825116818451168082178552505050505050905001915050908152602001604051809103902060000160029054906101000a900460ff16925060048b6040518082805190602001908083835b602083101515610ee55780518252602082019150602081019050602083039250610ec0565b6001836020036101000a038019825116818451168082178552505050505050905001915050908152602001604051809103902060010154915060048b6040518082805190602001908083835b602083101515610f565780518252602082019150602081019050602083039250610f31565b6001836020036101000a0380198251168184511680821785525050505050509050019150509081526020016040518091039020600201549050848484848499509950995099509950505050505091939590929450565b6000806060806000806000606080600060058b6040518082805190602001908083835b602083101515610ff45780518252602082019150602081019050602083039250610fcf565b6001836020036101000a038019825116818451168082178552505050505050905001915050908152602001604051809103902060000160009054906101000a900460ff16945060058b6040518082805190602001908083835b602083101515611072578051825260208201915060208101905060208303925061104d565b6001836020036101000a038019825116818451168082178552505050505050905001915050908152602001604051809103902060010154935060058b6040518082805190602001908083835b6020831015156110e357805182526020820191506020810190506020830392506110be565b6001836020036101000a038019825116818451168082178552505050505050905001915050908152602001604051809103902060020180548060200260200160405190810160405280929190818152602001828054801561116357602002820191906000526020600020905b81548152602001906001019080831161114f575b5050505050925060058b6040518082805190602001908083835b6020831015156111a2578051825260208201915060208101905060208303925061117d565b6001836020036101000a03801982511681845116808217855250505050505090500191505090815260200160405180910390206003018054600181600116156101000203166002900480601f01602080910402602001604051908101604052809291908181526020018280546001816001161561010002031660029004801561126c5780601f106112415761010080835404028352916020019161126c565b820191906000526020600020905b81548152906001019060200180831161124f57829003601f168201915b5050505050915060058b6040518082805190602001908083835b6020831015156112ab5780518252602082019150602081019050602083039250611286565b6001836020036101000a038019825116818451168082178552505050505050905001915050908152602001604051809103902060040160009054906101000a900460ff169050848484848499509950995099509950505050505091939590929450565b60038181548110151561131d57fe5b9060005260206000209060040201600091509050806000015490806001015490806002018054600181600116156101000203166002900480601f0160208091040260200160405190810160405280929190818152602001828054600181600116156101000203166002900480156113d55780601f106113aa576101008083540402835291602001916113d5565b820191906000526020600020905b8154815290600101906020018083116113b857829003601f168201915b5050505050908060030160009054906101000a900460ff16905084565b60006060600080606060006060600080606060038b81548110151561141357fe5b906000526020600020906004020160010154945060038b81548110151561143657fe5b90600052602060002090600402016002018054600181600116156101000203166002900480601f0160208091040260200160405190810160405280929190818152602001828054600181600116156101000203166002900480156114db5780601f106114b0576101008083540402835291602001916114db565b820191906000526020600020905b8154815290600101906020018083116114be57829003601f168201915b5050505050935060038b8154811015156114f157fe5b906000526020600020906004020160030160009054906101000a900460ff169250600660008c8152602001908152602001600020549150600760008c81526020019081526020016000208054600181600116156101000203166002900480601f0160208091040260200160405190810160405280929190818152602001828054600181600116156101000203166002900480156115cf5780601f106115a4576101008083540402835291602001916115cf565b820191906000526020600020905b8154815290600101906020018083116115b257829003601f168201915b50505050509050848484848499509950995099509950505050505091939590929450565b60006115fd612f23565b6000809054906101000a900473ffffffffffffffffffffffffffffffffffffffff1673ffffffffffffffffffffffffffffffffffffffff163373ffffffffffffffffffffffffffffffffffffffff1614151561165857600080fd5b8360008090505b60028054905081101561174e576001151561173260028381548110151561168257fe5b90600052602060002090600302016001018054600181600116156101000203166002900480601f0160208091040260200160405190810160405280929190818152602001828054600181600116156101000203166002900480156117275780601f106116fc57610100808354040283529160200191611727565b820191906000526020600020905b81548152906001019060200180831161170a57829003601f168201915b50505050508461255a565b15151415151561174157600080fd5b808060010191505061165f565b6002805490509350606060405190810160405280858152602001878152602001868152509250600283908060018154018082558091505090600182039060005260206000209060030201600090919290919091506000820151816000015560208201518160010190805190602001906117c8929190612f45565b5060408201518160020190805190602001906117e5929190612f45565b505050507f6b5e05b65b7ac7c7ebb8fc390a2b432a34236868c2fa629ef097f1f65cad374c848787604051808481526020018060200180602001838103835285818151815260200191508051906020019080838360005b8381101561185757808201518184015260208101905061183c565b50505050905090810190601f1680156118845780820380516001836020036101000a031916815260200191505b50838103825284818151815260200191508051906020019080838360005b838110156118bd5780820151818401526020810190506118a2565b50505050905090810190601f1680156118ea5780820380516001836020036101000a031916815260200191505b509550505050505060405180910390a1505050505050565b60028181548110151561191157fe5b9060005260206000209060030201600091509050806000015490806001018054600181600116156101000203166002900480601f0160208091040260200160405190810160405280929190818152602001828054600181600116156101000203166002900480156119c35780601f10611998576101008083540402835291602001916119c3565b820191906000526020600020905b8154815290600101906020018083116119a657829003601f168201915b505050505090806002018054600181600116156101000203166002900480601f016020809104026020016040519081016040528092919081815260200182805460018160011615610100020316600290048015611a615780601f10611a3657610100808354040283529160200191611a61565b820191906000526020600020905b815481529060010190602001808311611a4457829003601f168201915b5050505050905083565b6000809054906101000a900473ffffffffffffffffffffffffffffffffffffffff1673ffffffffffffffffffffffffffffffffffffffff163373ffffffffffffffffffffffffffffffffffffffff16141515611ac657600080fd5b6000809054906101000a900473ffffffffffffffffffffffffffffffffffffffff1673ffffffffffffffffffffffffffffffffffffffff167ff8df31144d9c2f0f6b59d69b8b98abd5459d07f2742c4df920b25aae33c6482060405160405180910390a260008060006101000a81548173ffffffffffffffffffffffffffffffffffffffff021916908373ffffffffffffffffffffffffffffffffffffffff160217905550565b6000809054906101000a900473ffffffffffffffffffffffffffffffffffffffff1673ffffffffffffffffffffffffffffffffffffffff163373ffffffffffffffffffffffffffffffffffffffff16141515611bc857600080fd5b8280600180811115611bd657fe5b10151515611be357600080fd5b82600115156005826040518082805190602001908083835b602083101515611c205780518252602082019150602081019050602083039250611bfb565b6001836020036101000a038019825116818451168082178552505050505050905001915050908152602001604051809103902060000160009054906101000a900460ff16151514151515611c7357600080fd5b60016005856040518082805190602001908083835b602083101515611cad5780518252602082019150602081019050602083039250611c88565b6001836020036101000a038019825116818451168082178552505050505050905001915050908152602001604051809103902060000160006101000a81548160ff02191690831515021790555060006005856040518082805190602001908083835b602083101515611d345780518252602082019150602081019050602083039250611d0f565b6001836020036101000a038019825116818451168082178552505050505050905001915050908152602001604051809103902060010181905550826005856040518082805190602001908083835b602083101515611da75780518252602082019150602081019050602083039250611d82565b6001836020036101000a03801982511681845116808217855250505050505090500191505090815260200160405180910390206003019080519060200190611df0929190612fc5565b50846001811115611dfd57fe5b6005856040518082805190602001908083835b602083101515611e355780518252602082019150602081019050602083039250611e10565b6001836020036101000a038019825116818451168082178552505050505050905001915050908152602001604051809103902060040160006101000a81548160ff02191690836001811115611e8657fe5b02179055507fbaf4186dbf124d51d3d5272d22a0a197f482d4ad6ddcc6e9cd6068d1dc5119ee848487604051808060200180602001848152602001838103835286818151815260200191508051906020019080838360005b83811015611ef9578082015181840152602081019050611ede565b50505050905090810190601f168015611f265780820380516001836020036101000a031916815260200191505b50838103825285818151815260200191508051906020019080838360005b83811015611f5f578082015181840152602081019050611f44565b50505050905090810190601f168015611f8c5780820380516001836020036101000a031916815260200191505b509550505050505060405180910390a15050505050565b6000611fad613045565b6000809054906101000a900473ffffffffffffffffffffffffffffffffffffffff1673ffffffffffffffffffffffffffffffffffffffff163373ffffffffffffffffffffffffffffffffffffffff1614151561200857600080fd5b846005816040518082805190602001908083835b602083101515612041578051825260208201915060208101905060208303925061201c565b6001836020036101000a038019825116818451168082178552505050505050905001915050908152602001604051809103902060000160009054906101000a900460ff16151561209057600080fd5b83806002805490501115156120a457600080fd5b6003805490509350846006600086815260200190815260200160002081905550866007600086815260200190815260200160002090805190602001906120eb929190612fc5565b506005876040518082805190602001908083835b60208310151561212457805182526020820191506020810190506020830392506120ff565b6001836020036101000a038019825116818451168082178552505050505050905001915050908152602001604051809103902060020184908060018154018082558091505090600182039060005260206000200160009091929091909150555060806040519081016040528085815260200160008152602001878152602001600115158152509250600383908060018154018082558091505090600182039060005260206000209060040201600090919290919091506000820151816000015560208201518160010155604082015181600201908051906020019061220a929190612f45565b5060608201518160030160006101000a81548160ff0219169083151502179055505050507f7ad7340cee529d5bc921bee9878a9fc350ef15fce83d89da3bbff69c953129658487878a604051808581526020018060200184815260200180602001838103835286818151815260200191508051906020019080838360005b838110156122a3578082015181840152602081019050612288565b50505050905090810190601f1680156122d05780820380516001836020036101000a031916815260200191505b50838103825284818151815260200191508051906020019080838360005b838110156123095780820151818401526020810190506122ee565b50505050905090810190601f1680156123365780820380516001836020036101000a031916815260200191505b50965050505050505060405180910390a150505050505050565b6000809054906101000a900473ffffffffffffffffffffffffffffffffffffffff1681565b60608060608060028581548110151561238a57fe5b90600052602060002090600302016001018054600181600116156101000203166002900480601f01602080910402602001604051908101604052809291908181526020018280546001816001161561010002031660029004801561242f5780601f106124045761010080835404028352916020019161242f565b820191906000526020600020905b81548152906001019060200180831161241257829003601f168201915b5050505050915060028581548110151561244557fe5b90600052602060002090600302016002018054600181600116156101000203166002900480601f0160208091040260200160405190810160405280929190818152602001828054600181600116156101000203166002900480156124ea5780601f106124bf576101008083540402835291602001916124ea565b820191906000526020600020905b8154815290600101906020018083116124cd57829003601f168201915b505050505090508181935093505050915091565b600080600060019150600090505b600381101561254b576000848281518110151561252557fe5b9060200190602002015114151561253e57819250612553565b808060010191505061250c565b600091508192505b5050919050565b6000806000846040516020018082805190602001908083835b6020831015156125985780518252602082019150602081019050602083039250612573565b6001836020036101000a0380198251168184511680821785525050505050509050019150506040516020818303038152906040526040518082805190602001908083835b60208310151561260157805182526020820191506020810190506020830392506125dc565b6001836020036101000a03801982511681845116808217855250505050505090500191505060405180910390209150836040516020018082805190602001908083835b6020831015156126695780518252602082019150602081019050602083039250612644565b6001836020036101000a0380198251168184511680821785525050505050509050019150506040516020818303038152906040526040518082805190602001908083835b6020831015156126d257805182526020820191506020810190506020830392506126ad565b6001836020036101000a0380198251168184511680821785525050505050509050019150506040518091039020905080600019168260001916149250505092915050565b6000809054906101000a900473ffffffffffffffffffffffffffffffffffffffff1673ffffffffffffffffffffffffffffffffffffffff163373ffffffffffffffffffffffffffffffffffffffff1614151561277157600080fd5b808060038054905011151561278557600080fd5b600060038381548110151561279657fe5b906000526020600020906004020160030160006101000a81548160ff0219169083151502179055505050565b6000600280549050905090565b6000806000806000809054906101000a900473ffffffffffffffffffffffffffffffffffffffff1673ffffffffffffffffffffffffffffffffffffffff163373ffffffffffffffffffffffffffffffffffffffff1614151561283057600080fd5b86600115156004826040518082805190602001908083835b60208310151561286d5780518252602082019150602081019050602083039250612848565b6001836020036101000a038019825116818451168082178552505050505050905001915050908152602001604051809103902060000160009054906101000a900460ff161515141515156128c057600080fd5b8660008151811015156128cf57fe5b9060200190602002015194508560008151811015156128ea57fe5b90602001906020020151935060016000815480929190600101919050555060056007600087815260200190815260200160002060405180828054600181600116156101000203166002900480156129785780601f10612956576101008083540402835291820191612978565b820191906000526020600020905b815481529060010190602001808311612964575b50509150509081526020016040518091039020600101600081548092919060010191905055506129a7866124fe565b15612a43576005600760008681526020019081526020016000206040518082805460018160011615610100020316600290048015612a1c5780601f106129fa576101008083540402835291820191612a1c565b820191906000526020600020905b815481529060010190602001808311612a08575b50509150509081526020016040518091039020600101600081548092919060010191905055505b60016004896040518082805190602001908083835b602083101515612a7d5780518252602082019150602081019050602083039250612a58565b6001836020036101000a038019825116818451168082178552505050505050905001915050908152602001604051809103902060000160006101000a81548160ff021916908315150217905550612ad387612e0a565b9250612ade86612e0a565b91508215612c115760016004896040518082805190602001908083835b602083101515612b205780518252602082019150602081019050602083039250612afb565b6001836020036101000a038019825116818451168082178552505050505050905001915050908152602001604051809103902060000160016101000a81548160ff021916908315150217905550846004896040518082805190602001908083835b602083101515612ba65780518252602082019150602081019050602083039250612b81565b6001836020036101000a038019825116818451168082178552505050505050905001915050908152602001604051809103902060010181905550600385815481101515612bef57fe5b9060005260206000209060040201600101600081548092919060010191905055505b8115612d425760016004896040518082805190602001908083835b602083101515612c515780518252602082019150602081019050602083039250612c2c565b6001836020036101000a038019825116818451168082178552505050505050905001915050908152602001604051809103902060000160026101000a81548160ff021916908315150217905550836004896040518082805190602001908083835b602083101515612cd75780518252602082019150602081019050602083039250612cb2565b6001836020036101000a038019825116818451168082178552505050505050905001915050908152602001604051809103902060020181905550600384815481101515612d2057fe5b9060005260206000209060040201600101600081548092919060010191905055505b7fffc7a3b56dd8ad84d0d1fffe6fc61b0cdb54a512bb4a4bd5ad2afde95393246e8383878760405180851515151581526020018415151515815260200183815260200182815260200194505050505060405180910390a15050505050505050565b6000809054906101000a900473ffffffffffffffffffffffffffffffffffffffff1673ffffffffffffffffffffffffffffffffffffffff163373ffffffffffffffffffffffffffffffffffffffff16141515612dfe57600080fd5b612e0781612e29565b50565b60008060009050600183511415612e2057600190505b80915050919050565b600073ffffffffffffffffffffffffffffffffffffffff168173ffffffffffffffffffffffffffffffffffffffff1614151515612e6557600080fd5b8073ffffffffffffffffffffffffffffffffffffffff166000809054906101000a900473ffffffffffffffffffffffffffffffffffffffff1673ffffffffffffffffffffffffffffffffffffffff167f8be0079c531659141344cd1fd0a4f28419497f9722a3daafe3b4186f6b6457e060405160405180910390a3806000806101000a81548173ffffffffffffffffffffffffffffffffffffffff021916908373ffffffffffffffffffffffffffffffffffffffff16021790555050565b6060604051908101604052806000815260200160608152602001606081525090565b828054600181600116156101000203166002900490600052602060002090601f016020900481019282601f10612f8657805160ff1916838001178555612fb4565b82800160010185558215612fb4579182015b82811115612fb3578251825591602001919060010190612f98565b5b509050612fc19190613070565b5090565b828054600181600116156101000203166002900490600052602060002090601f016020900481019282601f1061300657805160ff1916838001178555613034565b82800160010185558215613034579182015b82811115613033578251825591602001919060010190613018565b5b5090506130419190613070565b5090565b6080604051908101604052806000815260200160008152602001606081526020016000151581525090565b61309291905b8082111561308e576000816000905550600101613076565b5090565b905600a165627a7a72305820baa4f7f77ab1a18b7a4fbe12175c8d763e840ce09cae38de23fa49d806f44a270029",
  "source": "pragma solidity ^0.4.24;\n\nimport \"./Ownable.sol\";\n\n/*\n@title Election smart contract\n@author Clement Tong\n*/\ncontract Election is Ownable {\n    event NewConstituency(string constituencyCode, string constituencyName, uint constituencyType);\n    event NewParty(uint partyId, string name, string abbreviation);\n    event NewCandidate(uint candidateId, string name, uint partyId, string constituencyCode);\n    event NewVote(bool validFederalVote, bool validStateVote, uint federalCandidateId, uint stateCandidateIds);\n\n    enum ConstituencyType {FEDERAL, STATE}\n    uint public totalVotes;\n\n    /**\n    @notice Checks if the voter has already voted\n    @dev -\n    @param _voterHash Hash of voter\n    */\n    modifier hasNotVoted(string _voterHash){\n        require(votes[_voterHash].hasVoted != true);\n        _;\n    }\n\n    /**\n    @notice Checks if the constituency type is valid\n    @dev -\n    @param _constituencyType Type of constituency\n    */\n    modifier isValidConstituencyType(uint _constituencyType){\n        require(uint(ConstituencyType.STATE) >= _constituencyType);\n        _;\n    }\n\n    /**\n    @notice Checks if the constituency does not exist\n    @dev -\n    @param _constituencyCode Code of constituency\n    */\n    modifier isNotExistingConstituency(string _constituencyCode){\n        require(constituencies[_constituencyCode].initialised != true);\n        _;\n    }\n\n    /**\n    @notice Checks if the constituency already exists\n    @dev -\n    @param _constituencyCode Code of constituency\n    */\n    modifier isExistingConstituency(string _constituencyCode){\n        require(constituencies[_constituencyCode].initialised);\n        _;\n    }\n\n    /**\n    @notice Checks if the party does not exist\n    @dev -\n    @param _partyName Name of party\n    */\n    modifier isNotExistingParty(string _partyName){\n        for (uint x = 0; x < parties.length; x++) {\n            require(compareStrings(parties[x].name, _partyName) != true);\n        }\n        _;\n    }\n\n    /**\n    @notice Checks if the party is valid\n    @dev -\n    @param _partyId ID of a party\n    */\n    modifier isValidParty (uint _partyId){\n        require(parties.length > _partyId);\n        _;\n    }\n\n    /**\n    @notice Checks if the candidate is valid\n    @dev -\n    @param _candidateId ID of a candidate\n    */\n    modifier isValidCandidate(uint _candidateId){\n        require(candidates.length > _candidateId);\n        _;\n    }\n\n    struct Constituency {\n        bool initialised;\n        uint numVotes;\n        uint[] candidates;\n        string constituencyName;\n        ConstituencyType constituencyType;\n    }\n\n    struct Party {\n        uint partyId;\n        string name;\n        string abbreviation;\n    }\n\n    struct Candidate {\n        uint candidateId;\n        uint numVotes;\n        string name;\n        bool validCandidate;\n    }\n\n    struct Voter {\n        bool hasVoted;\n        bool validFederalVote;\n        bool validStateVote;\n        uint federalCandidateVote;\n        uint stateCandidateVote;\n    }\n\n    Party[] public parties;\n    Candidate[] public candidates;\n\n    mapping(string => Voter) votes;\n    mapping(string => Constituency) constituencies;\n    mapping(uint => uint) candidateToParty;\n    mapping(uint => string) candidateToConstituency;\n\n    constructor() public {\n        totalVotes = 0;\n    }\n\n    /**\n    @notice Initialises a new constituency\n    @dev -\n    @param _constituencyType Type of constituency\n    @param _constituencyCode Code of constituency\n    @param _constituencyName Name of constituency\n    */\n    function initialiseConstituency(\n        uint _constituencyType,\n        string _constituencyCode,\n        string _constituencyName) public onlyOwner() isValidConstituencyType(_constituencyType) isNotExistingConstituency(_constituencyCode) {\n\n        constituencies[_constituencyCode].initialised = true;\n        constituencies[_constituencyCode].numVotes = 0;\n        constituencies[_constituencyCode].constituencyName = _constituencyName;\n        constituencies[_constituencyCode].constituencyType = ConstituencyType(_constituencyType);\n\n        emit NewConstituency(_constituencyCode, _constituencyName, _constituencyType);\n    }\n\n    /**\n    @notice Registers a new party\n    @dev -\n    @param _partyName Name of party\n    @param _partyAbbreviation Abbreviation of name of party\n    */\n    function registerParty(\n        string _partyName,\n        string _partyAbbreviation) public onlyOwner() isNotExistingParty(_partyName) {\n        uint partyId = parties.length;\n        Party memory party = Party(partyId, _partyName, _partyAbbreviation);\n        parties.push(party);\n\n        emit NewParty(partyId, _partyName, _partyAbbreviation);\n    }\n\n    /**\n    @notice Registers a new candidate\n    @dev -\n    @param _constituencyCode Code of contesting constituency\n    @param _candidateName Name of new candidate\n    @param _partyId ID of a registered party\n    */\n    function registerCandidate(\n        string _constituencyCode,\n        string _candidateName,\n        uint _partyId) public onlyOwner() isExistingConstituency(_constituencyCode) isValidParty(_partyId) {\n\n        uint candidateId = candidates.length;\n        candidateToParty[candidateId] = _partyId;\n        candidateToConstituency[candidateId] = _constituencyCode;\n        constituencies[_constituencyCode].candidates.push(candidateId);\n        Candidate memory candidate = Candidate(candidateId, 0, _candidateName, true);\n        candidates.push(candidate);\n\n        emit NewCandidate(candidateId, _candidateName, _partyId, _constituencyCode);\n    }\n\n    /**\n    @notice Votes for federal constituency and state constituency candidates\n    @dev _voterHash is calculated as: SHA-256(voterName + voterNRIC + SHA-256(voterNonce))\n    @dev Array should contain candidateId(s) belonging to their originating constituency\n    @dev Pass in dummy array if no candidate(s) is/are selected, [0,0,0] if the constituency is not applicable\n    @param _voterHash Hash of voter\n    @param _federalCandidateVote Array of voted federal constituency candidates\n    @param _stateCandidateVote Array of voted state constituency candidates\n    */\n    function vote(\n        string _voterHash,\n        uint[] _federalCandidateVote,\n        uint[] _stateCandidateVote) public onlyOwner() hasNotVoted(_voterHash) {\n\n        uint federalCandidateId = _federalCandidateVote[0];\n        uint stateCandidateId = _stateCandidateVote[0];\n\n        totalVotes++;\n        constituencies[candidateToConstituency[federalCandidateId]].numVotes++;\n        if (isExistingStateConstituency(_stateCandidateVote)) {\n            constituencies[candidateToConstituency[stateCandidateId]].numVotes++;\n        }\n        votes[_voterHash].hasVoted = true;\n\n        bool validFederalVote = isValidVote(_federalCandidateVote);\n        bool validStateVote = isValidVote(_stateCandidateVote);\n\n        if (validFederalVote) {\n            votes[_voterHash].validFederalVote = true;\n            votes[_voterHash].federalCandidateVote = federalCandidateId;\n            candidates[federalCandidateId].numVotes++;\n        }\n\n        if (validStateVote) {\n            votes[_voterHash].validStateVote = true;\n            votes[_voterHash].stateCandidateVote = stateCandidateId;\n            candidates[stateCandidateId].numVotes++;\n        }\n\n        emit NewVote(validFederalVote, validStateVote, federalCandidateId, stateCandidateId);\n    }\n\n    /**\n    @notice Checks if the vote is valid\n    @dev Valid if array length is exactly one(1)\n    @param _vote Array of voted constituency candidates\n    @return Validity of the vote\n    */\n    function isValidVote(uint[] _vote) public pure returns (bool){\n        bool validity = false;\n\n        if (_vote.length == 1) {\n            validity = true;\n        }\n\n        return validity;\n    }\n\n    /**\n    @notice Checks if the vote is [0,0,0]\n    @dev -\n    @param _vote Array of state constituency candidates\n    @return Existence of state constituency\n    */\n    function isExistingStateConstituency(uint[] _vote) public pure returns (bool){\n        bool exists = true;\n\n        for (uint x = 0; x < 3; x++) {\n            if (_vote[x] != 0) {\n                return exists;\n            }\n        }\n\n        exists = false;\n        return exists;\n    }\n\n    /**\n    @notice Invalidates a candidate\n    @dev -\n    @param _candidateId ID of a candidate\n    */\n    function invalidateCandidate(uint _candidateId) public onlyOwner() isValidCandidate(_candidateId) {\n        candidates[_candidateId].validCandidate = false;\n    }\n\n    /**\n    @notice Compares a pair of strings for equality\n    @dev -\n    @param a First string\n    @param b Second string\n    @return Equality of the strings\n    */\n    function compareStrings(string a, string b) public pure returns (bool){\n        bytes32 c = keccak256(abi.encodePacked(a));\n        bytes32 d = keccak256(abi.encodePacked(b));\n\n        return c == d;\n    }\n\n    /**\n    @dev GETTERS\n    */\n    function getConstituency(string _constituencyCode) public view returns (bool, uint, uint[], string, ConstituencyType){\n        bool initialised = constituencies[_constituencyCode].initialised;\n        uint numVotes = constituencies[_constituencyCode].numVotes;\n        uint[] memory constituencyCandidates = constituencies[_constituencyCode].candidates;\n        string memory constituencyName = constituencies[_constituencyCode].constituencyName;\n        ConstituencyType constituencyType = constituencies[_constituencyCode].constituencyType;\n\n        return (initialised, numVotes, constituencyCandidates, constituencyName, constituencyType);\n    }\n\n    function getParty(uint _partyId) public view returns (string, string){\n        string memory name = parties[_partyId].name;\n        string memory abbreviation = parties[_partyId].abbreviation;\n\n        return (name, abbreviation);\n    }\n\n    function getCandidate(uint _candidateId) public view returns (uint, string, bool, uint, string){\n        uint numVotes = candidates[_candidateId].numVotes;\n        string memory name = candidates[_candidateId].name;\n        bool validCandidate = candidates[_candidateId].validCandidate;\n        uint party = candidateToParty[_candidateId];\n        string memory constituency = candidateToConstituency[_candidateId];\n\n        return (numVotes, name, validCandidate, party, constituency);\n    }\n\n    function getVoter(string _hash) public view returns (bool, bool, bool, uint, uint){\n        bool hasVoted = votes[_hash].hasVoted;\n        bool validFederalVote = votes[_hash].validFederalVote;\n        bool validStateVote = votes[_hash].validStateVote;\n        uint federalCandidateVote = votes[_hash].federalCandidateVote;\n        uint stateCandidateVote = votes[_hash].stateCandidateVote;\n\n        return (hasVoted, validFederalVote, validStateVote, federalCandidateVote, stateCandidateVote);\n    }\n\n    function getPartiesLength() public view returns (uint){\n        return parties.length;\n    }\n}\n",
  "sourcePath": "D:\\blockchain-laravel\\contracts\\Election.sol",
  "compiler": {
    "name": "solc",
    "version": "0.4.24+commit.e67f0147.Emscripten.clang"
  },
  "schemaVersion": "2.0.0",
  "updatedAt": "2018-08-20T09:37:18.355Z"
}