{
  "contractName": "Election",
  "abi": [
    {
      "constant": true,
      "inputs": [],
      "name": "totalVotes",
      "outputs": [
        {
          "name": "",
          "type": "uint256"
        }
      ],
      "payable": false,
      "stateMutability": "view",
      "type": "function"
    },
    {
      "constant": true,
      "inputs": [
        {
          "name": "",
          "type": "uint256"
        }
      ],
      "name": "candidates",
      "outputs": [
        {
          "name": "candidateId",
          "type": "uint256"
        },
        {
          "name": "numVotes",
          "type": "uint256"
        },
        {
          "name": "name",
          "type": "string"
        },
        {
          "name": "validCandidate",
          "type": "bool"
        }
      ],
      "payable": false,
      "stateMutability": "view",
      "type": "function"
    },
    {
      "constant": true,
      "inputs": [
        {
          "name": "",
          "type": "uint256"
        }
      ],
      "name": "parties",
      "outputs": [
        {
          "name": "partyId",
          "type": "uint256"
        },
        {
          "name": "name",
          "type": "string"
        },
        {
          "name": "abbreviation",
          "type": "string"
        }
      ],
      "payable": false,
      "stateMutability": "view",
      "type": "function"
    },
    {
      "constant": false,
      "inputs": [],
      "name": "renounceOwnership",
      "outputs": [],
      "payable": false,
      "stateMutability": "nonpayable",
      "type": "function"
    },
    {
      "constant": true,
      "inputs": [],
      "name": "owner",
      "outputs": [
        {
          "name": "",
          "type": "address"
        }
      ],
      "payable": false,
      "stateMutability": "view",
      "type": "function"
    },
    {
      "constant": false,
      "inputs": [
        {
          "name": "_newOwner",
          "type": "address"
        }
      ],
      "name": "transferOwnership",
      "outputs": [],
      "payable": false,
      "stateMutability": "nonpayable",
      "type": "function"
    },
    {
      "inputs": [],
      "payable": false,
      "stateMutability": "nonpayable",
      "type": "constructor"
    },
    {
      "anonymous": false,
      "inputs": [
        {
          "indexed": false,
          "name": "constituencyCode",
          "type": "string"
        },
        {
          "indexed": false,
          "name": "constituencyName",
          "type": "string"
        },
        {
          "indexed": false,
          "name": "constituencyType",
          "type": "uint256"
        }
      ],
      "name": "NewConstituency",
      "type": "event"
    },
    {
      "anonymous": false,
      "inputs": [
        {
          "indexed": false,
          "name": "partyId",
          "type": "uint256"
        },
        {
          "indexed": false,
          "name": "name",
          "type": "string"
        },
        {
          "indexed": false,
          "name": "abbreviation",
          "type": "string"
        }
      ],
      "name": "NewParty",
      "type": "event"
    },
    {
      "anonymous": false,
      "inputs": [
        {
          "indexed": false,
          "name": "candidateId",
          "type": "uint256"
        },
        {
          "indexed": false,
          "name": "name",
          "type": "string"
        },
        {
          "indexed": false,
          "name": "partyId",
          "type": "uint256"
        },
        {
          "indexed": false,
          "name": "constituencyCode",
          "type": "string"
        }
      ],
      "name": "NewCandidate",
      "type": "event"
    },
    {
      "anonymous": false,
      "inputs": [
        {
          "indexed": false,
          "name": "validFederalVote",
          "type": "bool"
        },
        {
          "indexed": false,
          "name": "validStateVote",
          "type": "bool"
        },
        {
          "indexed": false,
          "name": "federalCandidateId",
          "type": "uint256"
        },
        {
          "indexed": false,
          "name": "stateCandidateIds",
          "type": "uint256"
        }
      ],
      "name": "NewVote",
      "type": "event"
    },
    {
      "anonymous": false,
      "inputs": [
        {
          "indexed": true,
          "name": "previousOwner",
          "type": "address"
        }
      ],
      "name": "OwnershipRenounced",
      "type": "event"
    },
    {
      "anonymous": false,
      "inputs": [
        {
          "indexed": true,
          "name": "previousOwner",
          "type": "address"
        },
        {
          "indexed": true,
          "name": "newOwner",
          "type": "address"
        }
      ],
      "name": "OwnershipTransferred",
      "type": "event"
    },
    {
      "constant": false,
      "inputs": [
        {
          "name": "_constituencyType",
          "type": "uint256"
        },
        {
          "name": "_constituencyCode",
          "type": "string"
        },
        {
          "name": "_constituencyName",
          "type": "string"
        }
      ],
      "name": "initialiseConstituency",
      "outputs": [],
      "payable": false,
      "stateMutability": "nonpayable",
      "type": "function"
    },
    {
      "constant": false,
      "inputs": [
        {
          "name": "_partyName",
          "type": "string"
        },
        {
          "name": "_partyAbbreviation",
          "type": "string"
        }
      ],
      "name": "registerParty",
      "outputs": [],
      "payable": false,
      "stateMutability": "nonpayable",
      "type": "function"
    },
    {
      "constant": false,
      "inputs": [
        {
          "name": "_constituencyCode",
          "type": "string"
        },
        {
          "name": "_candidateName",
          "type": "string"
        },
        {
          "name": "_partyId",
          "type": "uint256"
        }
      ],
      "name": "registerCandidate",
      "outputs": [],
      "payable": false,
      "stateMutability": "nonpayable",
      "type": "function"
    },
    {
      "constant": false,
      "inputs": [
        {
          "name": "_voterHash",
          "type": "string"
        },
        {
          "name": "_federalCandidateVote",
          "type": "uint256[]"
        },
        {
          "name": "_stateCandidateVote",
          "type": "uint256[]"
        }
      ],
      "name": "vote",
      "outputs": [],
      "payable": false,
      "stateMutability": "nonpayable",
      "type": "function"
    },
    {
      "constant": true,
      "inputs": [
        {
          "name": "_vote",
          "type": "uint256[]"
        }
      ],
      "name": "isValidVote",
      "outputs": [
        {
          "name": "",
          "type": "bool"
        }
      ],
      "payable": false,
      "stateMutability": "pure",
      "type": "function"
    },
    {
      "constant": false,
      "inputs": [
        {
          "name": "_candidateId",
          "type": "uint256"
        }
      ],
      "name": "invalidateCandidate",
      "outputs": [],
      "payable": false,
      "stateMutability": "nonpayable",
      "type": "function"
    },
    {
      "constant": true,
      "inputs": [
        {
          "name": "a",
          "type": "string"
        },
        {
          "name": "b",
          "type": "string"
        }
      ],
      "name": "compareStrings",
      "outputs": [
        {
          "name": "",
          "type": "bool"
        }
      ],
      "payable": false,
      "stateMutability": "pure",
      "type": "function"
    },
    {
      "constant": true,
      "inputs": [
        {
          "name": "_constituencyCode",
          "type": "string"
        }
      ],
      "name": "getConstituency",
      "outputs": [
        {
          "name": "",
          "type": "bool"
        },
        {
          "name": "",
          "type": "uint256"
        },
        {
          "name": "",
          "type": "uint256[]"
        },
        {
          "name": "",
          "type": "string"
        },
        {
          "name": "",
          "type": "uint8"
        }
      ],
      "payable": false,
      "stateMutability": "view",
      "type": "function"
    },
    {
      "constant": true,
      "inputs": [
        {
          "name": "_partyId",
          "type": "uint256"
        }
      ],
      "name": "getParty",
      "outputs": [
        {
          "name": "",
          "type": "string"
        },
        {
          "name": "",
          "type": "string"
        }
      ],
      "payable": false,
      "stateMutability": "view",
      "type": "function"
    },
    {
      "constant": true,
      "inputs": [
        {
          "name": "_candidateId",
          "type": "uint256"
        }
      ],
      "name": "getCandidate",
      "outputs": [
        {
          "name": "",
          "type": "uint256"
        },
        {
          "name": "",
          "type": "string"
        },
        {
          "name": "",
          "type": "bool"
        },
        {
          "name": "",
          "type": "uint256"
        },
        {
          "name": "",
          "type": "string"
        }
      ],
      "payable": false,
      "stateMutability": "view",
      "type": "function"
    },
    {
      "constant": true,
      "inputs": [
        {
          "name": "_hash",
          "type": "string"
        }
      ],
      "name": "getVoter",
      "outputs": [
        {
          "name": "",
          "type": "bool"
        },
        {
          "name": "",
          "type": "bool"
        },
        {
          "name": "",
          "type": "bool"
        },
        {
          "name": "",
          "type": "uint256"
        },
        {
          "name": "",
          "type": "uint256"
        }
      ],
      "payable": false,
      "stateMutability": "view",
      "type": "function"
    },
    {
      "constant": true,
      "inputs": [],
      "name": "getPartiesLength",
      "outputs": [
        {
          "name": "",
          "type": "uint256"
        }
      ],
      "payable": false,
      "stateMutability": "view",
      "type": "function"
    }
  ],
  "bytecode": "0x608060405234801561001057600080fd5b50336000806101000a81548173ffffffffffffffffffffffffffffffffffffffff021916908373ffffffffffffffffffffffffffffffffffffffff1602179055506000600181905550612ee1806100686000396000f3006080604052600436106100fc576000357c0100000000000000000000000000000000000000000000000000000000900463ffffffff1680630d15fd771461010157806314a0069a1461012c578063346d1abb146101d15780633477ee2e1461032257806335b8e820146103e15780635aba64261461050c57806370651a18146105bb578063715018a6146106d45780638814a750146106eb5780638baf519b146107a45780638da5cb5b1461085d57806394758218146108b4578063bed34bba146109c6578063e2829f0c14610a8d578063e8b614c014610aba578063ea0dc63614610ae5578063f2fde38b14610bd4578063fea6c47714610c17575b600080fd5b34801561010d57600080fd5b50610116610c95565b6040518082815260200191505060405180910390f35b34801561013857600080fd5b50610193600480360381019080803590602001908201803590602001908080601f0160208091040260200160405190810160405280939291908181526020018383808284378201915050505050509192919290505050610c9b565b604051808615151515815260200185151515158152602001841515151581526020018381526020018281526020019550505050505060405180910390f35b3480156101dd57600080fd5b50610238600480360381019080803590602001908201803590602001908080601f0160208091040260200160405190810160405280939291908181526020018383808284378201915050505050509192919290505050610f23565b6040518086151515158152602001858152602001806020018060200184600181111561026057fe5b60ff168152602001838103835286818151815260200191508051906020019060200280838360005b838110156102a3578082015181840152602081019050610288565b50505050905001838103825285818151815260200191508051906020019080838360005b838110156102e25780820151818401526020810190506102c7565b50505050905090810190601f16801561030f5780820380516001836020036101000a031916815260200191505b5097505050505050505060405180910390f35b34801561032e57600080fd5b5061034d60048036038101908080359060200190929190505050611285565b604051808581526020018481526020018060200183151515158152602001828103825284818151815260200191508051906020019080838360005b838110156103a3578082015181840152602081019050610388565b50505050905090810190601f1680156103d05780820380516001836020036101000a031916815260200191505b509550505050505060405180910390f35b3480156103ed57600080fd5b5061040c60048036038101908080359060200190929190505050611369565b60405180868152602001806020018515151515815260200184815260200180602001838103835287818151815260200191508051906020019080838360005b8381101561046657808201518184015260208101905061044b565b50505050905090810190601f1680156104935780820380516001836020036101000a031916815260200191505b50838103825284818151815260200191508051906020019080838360005b838110156104cc5780820151818401526020810190506104b1565b50505050905090810190601f1680156104f95780820380516001836020036101000a031916815260200191505b5097505050505050505060405180910390f35b34801561051857600080fd5b506105b9600480360381019080803590602001908201803590602001908080601f0160208091040260200160405190810160405280939291908181526020018383808284378201915050505050509192919290803590602001908201803590602001908080601f016020809104026020016040519081016040528093929190818152602001838380828437820191505050505050919291929050505061156a565b005b3480156105c757600080fd5b506105e660048036038101908080359060200190929190505050611879565b604051808481526020018060200180602001838103835285818151815260200191508051906020019080838360005b83811015610630578082015181840152602081019050610615565b50505050905090810190601f16801561065d5780820380516001836020036101000a031916815260200191505b50838103825284818151815260200191508051906020019080838360005b8381101561069657808201518184015260208101905061067b565b50505050905090810190601f1680156106c35780820380516001836020036101000a031916815260200191505b509550505050505060405180910390f35b3480156106e057600080fd5b506106e96119e2565b005b3480156106f757600080fd5b506107a260048036038101908080359060200190929190803590602001908201803590602001908080601f0160208091040260200160405190810160405280939291908181526020018383808284378201915050505050509192919290803590602001908201803590602001908080601f0160208091040260200160405190810160405280939291908181526020018383808284378201915050505050509192919290505050611ae4565b005b3480156107b057600080fd5b5061085b600480360381019080803590602001908201803590602001908080601f0160208091040260200160405190810160405280939291908181526020018383808284378201915050505050509192919290803590602001908201803590602001908080601f016020809104026020016040519081016040528093929190818152602001838380828437820191505050505050919291929080359060200190929190505050611e2e565b005b34801561086957600080fd5b506108726121db565b604051808273ffffffffffffffffffffffffffffffffffffffff1673ffffffffffffffffffffffffffffffffffffffff16815260200191505060405180910390f35b3480156108c057600080fd5b506108df60048036038101908080359060200190929190505050612200565b604051808060200180602001838103835285818151815260200191508051906020019080838360005b83811015610923578082015181840152602081019050610908565b50505050905090810190601f1680156109505780820380516001836020036101000a031916815260200191505b50838103825284818151815260200191508051906020019080838360005b8381101561098957808201518184015260208101905061096e565b50505050905090810190601f1680156109b65780820380516001836020036101000a031916815260200191505b5094505050505060405180910390f35b3480156109d257600080fd5b50610a73600480360381019080803590602001908201803590602001908080601f0160208091040260200160405190810160405280939291908181526020018383808284378201915050505050509192919290803590602001908201803590602001908080601f0160208091040260200160405190810160405280939291908181526020018383808284378201915050505050509192919290505050612389565b604051808215151515815260200191505060405180910390f35b348015610a9957600080fd5b50610ab860048036038101908080359060200190929190505050612545565b005b348015610ac657600080fd5b50610acf6125f1565b6040518082815260200191505060405180910390f35b348015610af157600080fd5b50610bd2600480360381019080803590602001908201803590602001908080601f016020809104026020016040519081016040528093929190818152602001838380828437820191505050505050919291929080359060200190820180359060200190808060200260200160405190810160405280939291908181526020018383602002808284378201915050505050509192919290803590602001908201803590602001908080602002602001604051908101604052809392919081815260200183836020028082843782019150505050505091929192905050506125fe565b005b348015610be057600080fd5b50610c15600480360381019080803573ffffffffffffffffffffffffffffffffffffffff169060200190929190505050612bc3565b005b348015610c2357600080fd5b50610c7b60048036038101908080359060200190820180359060200190808060200260200160405190810160405280939291908181526020018383602002808284378201915050505050509192919290505050612c2a565b604051808215151515815260200191505060405180910390f35b60015481565b60008060008060008060008060008060048b6040518082805190602001908083835b602083101515610ce25780518252602082019150602081019050602083039250610cbd565b6001836020036101000a038019825116818451168082178552505050505050905001915050908152602001604051809103902060000160009054906101000a900460ff16945060048b6040518082805190602001908083835b602083101515610d605780518252602082019150602081019050602083039250610d3b565b6001836020036101000a038019825116818451168082178552505050505050905001915050908152602001604051809103902060000160019054906101000a900460ff16935060048b6040518082805190602001908083835b602083101515610dde5780518252602082019150602081019050602083039250610db9565b6001836020036101000a038019825116818451168082178552505050505050905001915050908152602001604051809103902060000160029054906101000a900460ff16925060048b6040518082805190602001908083835b602083101515610e5c5780518252602082019150602081019050602083039250610e37565b6001836020036101000a038019825116818451168082178552505050505050905001915050908152602001604051809103902060010154915060048b6040518082805190602001908083835b602083101515610ecd5780518252602082019150602081019050602083039250610ea8565b6001836020036101000a0380198251168184511680821785525050505050509050019150509081526020016040518091039020600201549050848484848499509950995099509950505050505091939590929450565b6000806060806000806000606080600060058b6040518082805190602001908083835b602083101515610f6b5780518252602082019150602081019050602083039250610f46565b6001836020036101000a038019825116818451168082178552505050505050905001915050908152602001604051809103902060000160009054906101000a900460ff16945060058b6040518082805190602001908083835b602083101515610fe95780518252602082019150602081019050602083039250610fc4565b6001836020036101000a038019825116818451168082178552505050505050905001915050908152602001604051809103902060010154935060058b6040518082805190602001908083835b60208310151561105a5780518252602082019150602081019050602083039250611035565b6001836020036101000a03801982511681845116808217855250505050505090500191505090815260200160405180910390206002018054806020026020016040519081016040528092919081815260200182805480156110da57602002820191906000526020600020905b8154815260200190600101908083116110c6575b5050505050925060058b6040518082805190602001908083835b60208310151561111957805182526020820191506020810190506020830392506110f4565b6001836020036101000a03801982511681845116808217855250505050505090500191505090815260200160405180910390206003018054600181600116156101000203166002900480601f0160208091040260200160405190810160405280929190818152602001828054600181600116156101000203166002900480156111e35780601f106111b8576101008083540402835291602001916111e3565b820191906000526020600020905b8154815290600101906020018083116111c657829003601f168201915b5050505050915060058b6040518082805190602001908083835b60208310151561122257805182526020820191506020810190506020830392506111fd565b6001836020036101000a038019825116818451168082178552505050505050905001915050908152602001604051809103902060040160009054906101000a900460ff169050848484848499509950995099509950505050505091939590929450565b60038181548110151561129457fe5b9060005260206000209060040201600091509050806000015490806001015490806002018054600181600116156101000203166002900480601f01602080910402602001604051908101604052809291908181526020018280546001816001161561010002031660029004801561134c5780601f106113215761010080835404028352916020019161134c565b820191906000526020600020905b81548152906001019060200180831161132f57829003601f168201915b5050505050908060030160009054906101000a900460ff16905084565b60006060600080606060006060600080606060038b81548110151561138a57fe5b906000526020600020906004020160010154945060038b8154811015156113ad57fe5b90600052602060002090600402016002018054600181600116156101000203166002900480601f0160208091040260200160405190810160405280929190818152602001828054600181600116156101000203166002900480156114525780601f1061142757610100808354040283529160200191611452565b820191906000526020600020905b81548152906001019060200180831161143557829003601f168201915b5050505050935060038b81548110151561146857fe5b906000526020600020906004020160030160009054906101000a900460ff169250600660008c8152602001908152602001600020549150600760008c81526020019081526020016000208054600181600116156101000203166002900480601f0160208091040260200160405190810160405280929190818152602001828054600181600116156101000203166002900480156115465780601f1061151b57610100808354040283529160200191611546565b820191906000526020600020905b81548152906001019060200180831161152957829003601f168201915b50505050509050848484848499509950995099509950505050505091939590929450565b6000611574612d43565b6000809054906101000a900473ffffffffffffffffffffffffffffffffffffffff1673ffffffffffffffffffffffffffffffffffffffff163373ffffffffffffffffffffffffffffffffffffffff161415156115cf57600080fd5b8360008090505b6002805490508110156116c557600115156116a96002838154811015156115f957fe5b90600052602060002090600302016001018054600181600116156101000203166002900480601f01602080910402602001604051908101604052809291908181526020018280546001816001161561010002031660029004801561169e5780601f106116735761010080835404028352916020019161169e565b820191906000526020600020905b81548152906001019060200180831161168157829003601f168201915b505050505084612389565b1515141515156116b857600080fd5b80806001019150506115d6565b60028054905093506060604051908101604052808581526020018781526020018681525092506002839080600181540180825580915050906001820390600052602060002090600302016000909192909190915060008201518160000155602082015181600101908051906020019061173f929190612d65565b50604082015181600201908051906020019061175c929190612d65565b505050507f6b5e05b65b7ac7c7ebb8fc390a2b432a34236868c2fa629ef097f1f65cad374c848787604051808481526020018060200180602001838103835285818151815260200191508051906020019080838360005b838110156117ce5780820151818401526020810190506117b3565b50505050905090810190601f1680156117fb5780820380516001836020036101000a031916815260200191505b50838103825284818151815260200191508051906020019080838360005b83811015611834578082015181840152602081019050611819565b50505050905090810190601f1680156118615780820380516001836020036101000a031916815260200191505b509550505050505060405180910390a1505050505050565b60028181548110151561188857fe5b9060005260206000209060030201600091509050806000015490806001018054600181600116156101000203166002900480601f01602080910402602001604051908101604052809291908181526020018280546001816001161561010002031660029004801561193a5780601f1061190f5761010080835404028352916020019161193a565b820191906000526020600020905b81548152906001019060200180831161191d57829003601f168201915b505050505090806002018054600181600116156101000203166002900480601f0160208091040260200160405190810160405280929190818152602001828054600181600116156101000203166002900480156119d85780601f106119ad576101008083540402835291602001916119d8565b820191906000526020600020905b8154815290600101906020018083116119bb57829003601f168201915b5050505050905083565b6000809054906101000a900473ffffffffffffffffffffffffffffffffffffffff1673ffffffffffffffffffffffffffffffffffffffff163373ffffffffffffffffffffffffffffffffffffffff16141515611a3d57600080fd5b6000809054906101000a900473ffffffffffffffffffffffffffffffffffffffff1673ffffffffffffffffffffffffffffffffffffffff167ff8df31144d9c2f0f6b59d69b8b98abd5459d07f2742c4df920b25aae33c6482060405160405180910390a260008060006101000a81548173ffffffffffffffffffffffffffffffffffffffff021916908373ffffffffffffffffffffffffffffffffffffffff160217905550565b8280600180811115611af257fe5b10151515611aff57600080fd5b60016005846040518082805190602001908083835b602083101515611b395780518252602082019150602081019050602083039250611b14565b6001836020036101000a038019825116818451168082178552505050505050905001915050908152602001604051809103902060000160006101000a81548160ff02191690831515021790555060006005846040518082805190602001908083835b602083101515611bc05780518252602082019150602081019050602083039250611b9b565b6001836020036101000a038019825116818451168082178552505050505050905001915050908152602001604051809103902060010181905550816005846040518082805190602001908083835b602083101515611c335780518252602082019150602081019050602083039250611c0e565b6001836020036101000a03801982511681845116808217855250505050505090500191505090815260200160405180910390206003019080519060200190611c7c929190612de5565b50836001811115611c8957fe5b6005846040518082805190602001908083835b602083101515611cc15780518252602082019150602081019050602083039250611c9c565b6001836020036101000a038019825116818451168082178552505050505050905001915050908152602001604051809103902060040160006101000a81548160ff02191690836001811115611d1257fe5b02179055507fbaf4186dbf124d51d3d5272d22a0a197f482d4ad6ddcc6e9cd6068d1dc5119ee838386604051808060200180602001848152602001838103835286818151815260200191508051906020019080838360005b83811015611d85578082015181840152602081019050611d6a565b50505050905090810190601f168015611db25780820380516001836020036101000a031916815260200191505b50838103825285818151815260200191508051906020019080838360005b83811015611deb578082015181840152602081019050611dd0565b50505050905090810190601f168015611e185780820380516001836020036101000a031916815260200191505b509550505050505060405180910390a150505050565b6000611e38612e65565b6000809054906101000a900473ffffffffffffffffffffffffffffffffffffffff1673ffffffffffffffffffffffffffffffffffffffff163373ffffffffffffffffffffffffffffffffffffffff16141515611e9357600080fd5b846005816040518082805190602001908083835b602083101515611ecc5780518252602082019150602081019050602083039250611ea7565b6001836020036101000a038019825116818451168082178552505050505050905001915050908152602001604051809103902060000160009054906101000a900460ff161515611f1b57600080fd5b8380600280549050111515611f2f57600080fd5b600380549050935084600660008681526020019081526020016000208190555086600760008681526020019081526020016000209080519060200190611f76929190612de5565b506005876040518082805190602001908083835b602083101515611faf5780518252602082019150602081019050602083039250611f8a565b6001836020036101000a0380198251168184511680821785525050505050509050019150509081526020016040518091039020600201849080600181540180825580915050906001820390600052602060002001600090919290919091505550608060405190810160405280858152602001600081526020018781526020016001151581525092506003839080600181540180825580915050906001820390600052602060002090600402016000909192909190915060008201518160000155602082015181600101556040820151816002019080519060200190612095929190612d65565b5060608201518160030160006101000a81548160ff0219169083151502179055505050507f7ad7340cee529d5bc921bee9878a9fc350ef15fce83d89da3bbff69c953129658487878a604051808581526020018060200184815260200180602001838103835286818151815260200191508051906020019080838360005b8381101561212e578082015181840152602081019050612113565b50505050905090810190601f16801561215b5780820380516001836020036101000a031916815260200191505b50838103825284818151815260200191508051906020019080838360005b83811015612194578082015181840152602081019050612179565b50505050905090810190601f1680156121c15780820380516001836020036101000a031916815260200191505b50965050505050505060405180910390a150505050505050565b6000809054906101000a900473ffffffffffffffffffffffffffffffffffffffff1681565b60608060608060028581548110151561221557fe5b90600052602060002090600302016001018054600181600116156101000203166002900480601f0160208091040260200160405190810160405280929190818152602001828054600181600116156101000203166002900480156122ba5780601f1061228f576101008083540402835291602001916122ba565b820191906000526020600020905b81548152906001019060200180831161229d57829003601f168201915b505050505091506002858154811015156122d057fe5b90600052602060002090600302016002018054600181600116156101000203166002900480601f0160208091040260200160405190810160405280929190818152602001828054600181600116156101000203166002900480156123755780601f1061234a57610100808354040283529160200191612375565b820191906000526020600020905b81548152906001019060200180831161235857829003601f168201915b505050505090508181935093505050915091565b6000806000846040516020018082805190602001908083835b6020831015156123c757805182526020820191506020810190506020830392506123a2565b6001836020036101000a0380198251168184511680821785525050505050509050019150506040516020818303038152906040526040518082805190602001908083835b602083101515612430578051825260208201915060208101905060208303925061240b565b6001836020036101000a03801982511681845116808217855250505050505090500191505060405180910390209150836040516020018082805190602001908083835b6020831015156124985780518252602082019150602081019050602083039250612473565b6001836020036101000a0380198251168184511680821785525050505050509050019150506040516020818303038152906040526040518082805190602001908083835b60208310151561250157805182526020820191506020810190506020830392506124dc565b6001836020036101000a0380198251168184511680821785525050505050509050019150506040518091039020905080600019168260001916149250505092915050565b6000809054906101000a900473ffffffffffffffffffffffffffffffffffffffff1673ffffffffffffffffffffffffffffffffffffffff163373ffffffffffffffffffffffffffffffffffffffff161415156125a057600080fd5b80806003805490501115156125b457600080fd5b60006003838154811015156125c557fe5b906000526020600020906004020160030160006101000a81548160ff0219169083151502179055505050565b6000600280549050905090565b6000806000806000809054906101000a900473ffffffffffffffffffffffffffffffffffffffff1673ffffffffffffffffffffffffffffffffffffffff163373ffffffffffffffffffffffffffffffffffffffff1614151561265f57600080fd5b86600115156004826040518082805190602001908083835b60208310151561269c5780518252602082019150602081019050602083039250612677565b6001836020036101000a038019825116818451168082178552505050505050905001915050908152602001604051809103902060000160009054906101000a900460ff161515141515156126ef57600080fd5b8660008151811015156126fe57fe5b90602001906020020151945085600081518110151561271957fe5b90602001906020020151935060016000815480929190600101919050555060056007600087815260200190815260200160002060405180828054600181600116156101000203166002900480156127a75780601f106127855761010080835404028352918201916127a7565b820191906000526020600020905b815481529060010190602001808311612793575b5050915050908152602001604051809103902060010160008154809291906001019190505550600560076000868152602001908152602001600020604051808280546001816001161561010002031660029004801561283d5780601f1061281b57610100808354040283529182019161283d565b820191906000526020600020905b815481529060010190602001808311612829575b505091505090815260200160405180910390206001016000815480929190600101919050555060016004896040518082805190602001908083835b60208310151561289d5780518252602082019150602081019050602083039250612878565b6001836020036101000a038019825116818451168082178552505050505050905001915050908152602001604051809103902060000160006101000a81548160ff0219169083151502179055506128f387612c2a565b92506128fe86612c2a565b91508215612a315760016004896040518082805190602001908083835b602083101515612940578051825260208201915060208101905060208303925061291b565b6001836020036101000a038019825116818451168082178552505050505050905001915050908152602001604051809103902060000160016101000a81548160ff021916908315150217905550846004896040518082805190602001908083835b6020831015156129c657805182526020820191506020810190506020830392506129a1565b6001836020036101000a038019825116818451168082178552505050505050905001915050908152602001604051809103902060010181905550600385815481101515612a0f57fe5b9060005260206000209060040201600101600081548092919060010191905055505b8115612b625760016004896040518082805190602001908083835b602083101515612a715780518252602082019150602081019050602083039250612a4c565b6001836020036101000a038019825116818451168082178552505050505050905001915050908152602001604051809103902060000160026101000a81548160ff021916908315150217905550836004896040518082805190602001908083835b602083101515612af75780518252602082019150602081019050602083039250612ad2565b6001836020036101000a038019825116818451168082178552505050505050905001915050908152602001604051809103902060020181905550600384815481101515612b4057fe5b9060005260206000209060040201600101600081548092919060010191905055505b7fffc7a3b56dd8ad84d0d1fffe6fc61b0cdb54a512bb4a4bd5ad2afde95393246e8383878760405180851515151581526020018415151515815260200183815260200182815260200194505050505060405180910390a15050505050505050565b6000809054906101000a900473ffffffffffffffffffffffffffffffffffffffff1673ffffffffffffffffffffffffffffffffffffffff163373ffffffffffffffffffffffffffffffffffffffff16141515612c1e57600080fd5b612c2781612c49565b50565b60008060009050600183511415612c4057600190505b80915050919050565b600073ffffffffffffffffffffffffffffffffffffffff168173ffffffffffffffffffffffffffffffffffffffff1614151515612c8557600080fd5b8073ffffffffffffffffffffffffffffffffffffffff166000809054906101000a900473ffffffffffffffffffffffffffffffffffffffff1673ffffffffffffffffffffffffffffffffffffffff167f8be0079c531659141344cd1fd0a4f28419497f9722a3daafe3b4186f6b6457e060405160405180910390a3806000806101000a81548173ffffffffffffffffffffffffffffffffffffffff021916908373ffffffffffffffffffffffffffffffffffffffff16021790555050565b6060604051908101604052806000815260200160608152602001606081525090565b828054600181600116156101000203166002900490600052602060002090601f016020900481019282601f10612da657805160ff1916838001178555612dd4565b82800160010185558215612dd4579182015b82811115612dd3578251825591602001919060010190612db8565b5b509050612de19190612e90565b5090565b828054600181600116156101000203166002900490600052602060002090601f016020900481019282601f10612e2657805160ff1916838001178555612e54565b82800160010185558215612e54579182015b82811115612e53578251825591602001919060010190612e38565b5b509050612e619190612e90565b5090565b6080604051908101604052806000815260200160008152602001606081526020016000151581525090565b612eb291905b80821115612eae576000816000905550600101612e96565b5090565b905600a165627a7a72305820abee39660b5a20e9eacef00d191a801e2c2f1a48f696f17b6a0cd2e02ed634b50029",
  "source": "pragma solidity ^0.4.24;\n\nimport \"./Ownable.sol\";\n\n/*\n@title Election smart contract\n@author Clement Tong\n*/\ncontract Election is Ownable {\n    event NewConstituency(string constituencyCode, string constituencyName, uint constituencyType);\n    event NewParty(uint partyId, string name, string abbreviation);\n    event NewCandidate(uint candidateId, string name, uint partyId, string constituencyCode);\n    event NewVote(bool validFederalVote, bool validStateVote, uint federalCandidateId, uint stateCandidateIds);\n\n    enum ConstituencyType {FEDERAL, STATE}\n    uint public totalVotes;\n\n    /**\n    @notice Checks if the voter has already voted\n    @dev -\n    @param _voterHash Hash of voter\n    */\n    modifier hasNotVoted(string _voterHash){\n        require(votes[_voterHash].hasVoted != true);\n        _;\n    }\n\n    /**\n    @notice Checks if the constituency type is valid\n    @dev -\n    @param _constituencyType Type of constituency\n    */\n    modifier isValidConstituencyType(uint _constituencyType){\n        require(uint(ConstituencyType.STATE) >= _constituencyType);\n        _;\n    }\n\n    /**\n    @notice Checks if the constituency already exists\n    @dev -\n    @param _constituencyCode Code of constituency\n    */\n    modifier isExistingConstituency(string _constituencyCode){\n        require(constituencies[_constituencyCode].initialised);\n        _;\n    }\n\n    /**\n    @notice Checks if the party does not exist\n    @dev -\n    @param _partyName Name of party\n    */\n    modifier isNotExistingParty(string _partyName){\n        for (uint x = 0; x < parties.length; x++) {\n            require(compareStrings(parties[x].name, _partyName) != true);\n        }\n        _;\n    }\n\n    /**\n    @notice Checks if the party is valid\n    @dev -\n    @param _partyId ID of a party\n    */\n    modifier isValidParty (uint _partyId){\n        require(parties.length > _partyId);\n        _;\n    }\n\n    /**\n    @notice Checks if the candidate is valid\n    @dev -\n    @param _candidateId ID of a candidate\n    */\n    modifier isValidCandidate(uint _candidateId){\n        require(candidates.length > _candidateId);\n        _;\n    }\n\n    struct Constituency {\n        bool initialised;\n        uint numVotes;\n        uint[] candidates;\n        string constituencyName;\n        ConstituencyType constituencyType;\n    }\n\n    struct Party {\n        uint partyId;\n        string name;\n        string abbreviation;\n    }\n\n    struct Candidate {\n        uint candidateId;\n        uint numVotes;\n        string name;\n        bool validCandidate;\n    }\n\n    struct Voter {\n        bool hasVoted;\n        bool validFederalVote;\n        bool validStateVote;\n        uint federalCandidateVote;\n        uint stateCandidateVote;\n    }\n\n    Party[] public parties;\n    Candidate[] public candidates;\n\n    mapping(string => Voter) votes;\n    mapping(string => Constituency) constituencies;\n    mapping(uint => uint) candidateToParty;\n    mapping(uint => string) candidateToConstituency;\n\n    constructor() public {\n        totalVotes = 0;\n    }\n\n    /**\n    @notice Initialises a new constituency\n    @dev -\n    @param _constituencyType Type of constituency\n    @param _constituencyCode Code of constituency\n    @param _constituencyName Name of constituency\n    */\n    function initialiseConstituency(\n        uint _constituencyType,\n        string _constituencyCode,\n        string _constituencyName) public isValidConstituencyType(_constituencyType) {\n\n        constituencies[_constituencyCode].initialised = true;\n        constituencies[_constituencyCode].numVotes = 0;\n        constituencies[_constituencyCode].constituencyName = _constituencyName;\n        constituencies[_constituencyCode].constituencyType = ConstituencyType(_constituencyType);\n\n        emit NewConstituency(_constituencyCode, _constituencyName, _constituencyType);\n    }\n\n    /**\n    @notice Registers a new party\n    @dev -\n    @param _partyName Name of party\n    @param _partyAbbreviation Abbreviation of name of party\n    */\n    function registerParty(string _partyName, string _partyAbbreviation) public onlyOwner() isNotExistingParty(_partyName) {\n        uint partyId = parties.length;\n        Party memory party = Party(partyId, _partyName, _partyAbbreviation);\n        parties.push(party);\n\n        emit NewParty(partyId, _partyName, _partyAbbreviation);\n    }\n\n    /**\n    @notice Registers a new candidate\n    @dev -\n    @param _constituencyCode Code of contesting constituency\n    @param _candidateName Name of new candidate\n    @param _partyId ID of a registered party\n    */\n    function registerCandidate(\n        string _constituencyCode,\n        string _candidateName,\n        uint _partyId) onlyOwner() public isExistingConstituency(_constituencyCode) isValidParty(_partyId) {\n\n        uint candidateId = candidates.length;\n        candidateToParty[candidateId] = _partyId;\n        candidateToConstituency[candidateId] = _constituencyCode;\n        constituencies[_constituencyCode].candidates.push(candidateId);\n        Candidate memory candidate = Candidate(candidateId, 0, _candidateName, true);\n        candidates.push(candidate);\n\n        emit NewCandidate(candidateId, _candidateName, _partyId, _constituencyCode);\n    }\n\n    /**\n    @notice Votes for federal constituency and state constituency candidates\n    @dev _voterHash is calculated as: SHA-256(voterName + voterNRIC + SHA-256(voterNonce))\n    @dev Pass in dummy array if no candidate(s) is/are selected; function does not accept empty arrays\n    @param _voterHash Hash of voter\n    @param _federalCandidateVote Array of voted federal constituency candidates\n    @param _stateCandidateVote Array of voted state constituency candidates\n    */\n    function vote(\n        string _voterHash,\n        uint[] _federalCandidateVote,\n        uint[] _stateCandidateVote) public onlyOwner() hasNotVoted(_voterHash) {\n\n        uint federalCandidateId = _federalCandidateVote[0];\n        uint stateCandidateId = _stateCandidateVote[0];\n\n        totalVotes++;\n        constituencies[candidateToConstituency[federalCandidateId]].numVotes++;\n        constituencies[candidateToConstituency[stateCandidateId]].numVotes++;\n        votes[_voterHash].hasVoted = true;\n\n        bool validFederalVote = isValidVote(_federalCandidateVote);\n        bool validStateVote = isValidVote(_stateCandidateVote);\n\n        if (validFederalVote) {\n            votes[_voterHash].validFederalVote = true;\n            votes[_voterHash].federalCandidateVote = federalCandidateId;\n            candidates[federalCandidateId].numVotes++;\n        }\n\n        if (validStateVote) {\n            votes[_voterHash].validStateVote = true;\n            votes[_voterHash].stateCandidateVote = stateCandidateId;\n            candidates[stateCandidateId].numVotes++;\n        }\n\n        emit NewVote(validFederalVote, validStateVote, federalCandidateId, stateCandidateId);\n    }\n\n    /**\n    @notice Checks if the vote is valid\n    @dev -\n    @param _vote Array of voted constituency candidates\n    @return Validity of the vote\n    */\n    function isValidVote(uint[] _vote) public pure returns (bool){\n        bool validity = false;\n\n        if (_vote.length == 1) {\n            validity = true;\n        }\n\n        return validity;\n    }\n\n    /**\n    @notice Invalidates a candidate\n    @dev -\n    @param _candidateId ID of a candidate\n    */\n    function invalidateCandidate(uint _candidateId) public onlyOwner() isValidCandidate(_candidateId) {\n        candidates[_candidateId].validCandidate = false;\n    }\n\n    /**\n    @notice Compares a pair of strings for equality\n    @dev -\n    @param a First string\n    @param b Second string\n    @return Equality of the strings\n    */\n    function compareStrings(string a, string b) public pure returns (bool){\n        bytes32 c = keccak256(abi.encodePacked(a));\n        bytes32 d = keccak256(abi.encodePacked(b));\n\n        return c == d;\n    }\n\n    /**\n    @dev GETTERS\n    */\n    function getConstituency(string _constituencyCode) public view returns (bool, uint, uint[], string, ConstituencyType){\n        bool initialised = constituencies[_constituencyCode].initialised;\n        uint numVotes = constituencies[_constituencyCode].numVotes;\n        uint[] memory constituencyCandidates = constituencies[_constituencyCode].candidates;\n        string memory constituencyName = constituencies[_constituencyCode].constituencyName;\n        ConstituencyType constituencyType = constituencies[_constituencyCode].constituencyType;\n\n        return (initialised, numVotes, constituencyCandidates, constituencyName, constituencyType);\n    }\n\n    function getParty(uint _partyId) public view returns (string, string){\n        string memory name = parties[_partyId].name;\n        string memory abbreviation = parties[_partyId].abbreviation;\n\n        return (name, abbreviation);\n    }\n\n    function getCandidate(uint _candidateId) public view returns (uint, string, bool, uint, string){\n        uint numVotes = candidates[_candidateId].numVotes;\n        string memory name = candidates[_candidateId].name;\n        bool validCandidate = candidates[_candidateId].validCandidate;\n        uint party = candidateToParty[_candidateId];\n        string memory constituency = candidateToConstituency[_candidateId];\n\n        return (numVotes, name, validCandidate, party, constituency);\n    }\n\n    function getVoter(string _hash) public view returns (bool, bool, bool, uint, uint){\n        bool hasVoted = votes[_hash].hasVoted;\n        bool validFederalVote = votes[_hash].validFederalVote;\n        bool validStateVote = votes[_hash].validStateVote;\n        uint federalCandidateVote = votes[_hash].federalCandidateVote;\n        uint stateCandidateVote = votes[_hash].stateCandidateVote;\n\n        return (hasVoted, validFederalVote, validStateVote, federalCandidateVote, stateCandidateVote);\n    }\n\n    function getPartiesLength() public view returns (uint){\n        return parties.length;\n    }\n}\n",
  "sourcePath": "D:\\blockchain-laravel\\contracts\\Election.sol",
  "compiler": {
    "name": "solc",
    "version": "0.4.24+commit.e67f0147.Emscripten.clang"
  },
  "schemaVersion": "2.0.0",
  "updatedAt": "2018-08-04T14:26:46.952Z"
}