{
  "contractName": "Election",
  "abi": [
    {
      "constant": false,
      "inputs": [],
      "name": "renounceOwnership",
      "outputs": [],
      "payable": false,
      "stateMutability": "nonpayable",
      "type": "function"
    },
    {
      "constant": true,
      "inputs": [],
      "name": "owner",
      "outputs": [
        {
          "name": "",
          "type": "address"
        }
      ],
      "payable": false,
      "stateMutability": "view",
      "type": "function"
    },
    {
      "constant": false,
      "inputs": [
        {
          "name": "_newOwner",
          "type": "address"
        }
      ],
      "name": "transferOwnership",
      "outputs": [],
      "payable": false,
      "stateMutability": "nonpayable",
      "type": "function"
    },
    {
      "inputs": [],
      "payable": false,
      "stateMutability": "nonpayable",
      "type": "constructor"
    },
    {
      "anonymous": false,
      "inputs": [
        {
          "indexed": false,
          "name": "partyId",
          "type": "uint256"
        },
        {
          "indexed": false,
          "name": "name",
          "type": "string"
        },
        {
          "indexed": false,
          "name": "abbreviation",
          "type": "string"
        }
      ],
      "name": "NewParty",
      "type": "event"
    },
    {
      "anonymous": false,
      "inputs": [
        {
          "indexed": true,
          "name": "previousOwner",
          "type": "address"
        }
      ],
      "name": "OwnershipRenounced",
      "type": "event"
    },
    {
      "anonymous": false,
      "inputs": [
        {
          "indexed": true,
          "name": "previousOwner",
          "type": "address"
        },
        {
          "indexed": true,
          "name": "newOwner",
          "type": "address"
        }
      ],
      "name": "OwnershipTransferred",
      "type": "event"
    },
    {
      "constant": false,
      "inputs": [
        {
          "name": "_partyName",
          "type": "string"
        },
        {
          "name": "_partyAbbreviation",
          "type": "string"
        }
      ],
      "name": "registerParty",
      "outputs": [],
      "payable": false,
      "stateMutability": "nonpayable",
      "type": "function"
    },
    {
      "constant": false,
      "inputs": [
        {
          "name": "_constituencyCode",
          "type": "string"
        },
        {
          "name": "_candidateName",
          "type": "string"
        },
        {
          "name": "_partyId",
          "type": "uint256"
        }
      ],
      "name": "registerCandidate",
      "outputs": [],
      "payable": false,
      "stateMutability": "nonpayable",
      "type": "function"
    },
    {
      "constant": false,
      "inputs": [
        {
          "name": "_constituencyType",
          "type": "uint256"
        },
        {
          "name": "_constituencyCode",
          "type": "string"
        },
        {
          "name": "_constituencyName",
          "type": "string"
        }
      ],
      "name": "initiateConstituency",
      "outputs": [],
      "payable": false,
      "stateMutability": "nonpayable",
      "type": "function"
    },
    {
      "constant": false,
      "inputs": [
        {
          "name": "_voterNonce",
          "type": "string"
        },
        {
          "name": "_federalCandidateVote",
          "type": "uint256[]"
        },
        {
          "name": "_stateCandidateVote",
          "type": "uint256[]"
        }
      ],
      "name": "vote",
      "outputs": [],
      "payable": false,
      "stateMutability": "nonpayable",
      "type": "function"
    },
    {
      "constant": true,
      "inputs": [
        {
          "name": "_vote",
          "type": "uint256[]"
        }
      ],
      "name": "isValidVote",
      "outputs": [
        {
          "name": "",
          "type": "bool"
        }
      ],
      "payable": false,
      "stateMutability": "pure",
      "type": "function"
    },
    {
      "constant": false,
      "inputs": [
        {
          "name": "_candidateId",
          "type": "uint256"
        }
      ],
      "name": "invalidateCandidate",
      "outputs": [],
      "payable": false,
      "stateMutability": "nonpayable",
      "type": "function"
    },
    {
      "constant": true,
      "inputs": [
        {
          "name": "a",
          "type": "string"
        },
        {
          "name": "b",
          "type": "string"
        }
      ],
      "name": "compareStrings",
      "outputs": [
        {
          "name": "",
          "type": "bool"
        }
      ],
      "payable": false,
      "stateMutability": "pure",
      "type": "function"
    },
    {
      "constant": true,
      "inputs": [
        {
          "name": "_partyId",
          "type": "uint256"
        }
      ],
      "name": "getParty",
      "outputs": [
        {
          "name": "",
          "type": "string"
        },
        {
          "name": "",
          "type": "string"
        }
      ],
      "payable": false,
      "stateMutability": "view",
      "type": "function"
    },
    {
      "constant": true,
      "inputs": [
        {
          "name": "_candidateId",
          "type": "uint256"
        }
      ],
      "name": "getCandidate",
      "outputs": [
        {
          "name": "",
          "type": "uint256"
        },
        {
          "name": "",
          "type": "uint256"
        },
        {
          "name": "",
          "type": "string"
        },
        {
          "name": "",
          "type": "bool"
        },
        {
          "name": "",
          "type": "uint256"
        },
        {
          "name": "",
          "type": "string"
        }
      ],
      "payable": false,
      "stateMutability": "view",
      "type": "function"
    },
    {
      "constant": true,
      "inputs": [
        {
          "name": "_nonce",
          "type": "string"
        }
      ],
      "name": "getVoter",
      "outputs": [
        {
          "name": "",
          "type": "bool"
        },
        {
          "name": "",
          "type": "bool"
        },
        {
          "name": "",
          "type": "bool"
        },
        {
          "name": "",
          "type": "uint256"
        },
        {
          "name": "",
          "type": "uint256"
        }
      ],
      "payable": false,
      "stateMutability": "view",
      "type": "function"
    },
    {
      "constant": true,
      "inputs": [
        {
          "name": "_constituencyCode",
          "type": "string"
        }
      ],
      "name": "getConstituency",
      "outputs": [
        {
          "name": "",
          "type": "bool"
        },
        {
          "name": "",
          "type": "uint256"
        },
        {
          "name": "",
          "type": "uint256[]"
        },
        {
          "name": "",
          "type": "string"
        },
        {
          "name": "",
          "type": "uint8"
        }
      ],
      "payable": false,
      "stateMutability": "view",
      "type": "function"
    },
    {
      "constant": true,
      "inputs": [],
      "name": "getPartiesLength",
      "outputs": [
        {
          "name": "",
          "type": "uint256"
        }
      ],
      "payable": false,
      "stateMutability": "view",
      "type": "function"
    }
  ],
  "bytecode": "0x608060405234801561001057600080fd5b50336000806101000a81548173ffffffffffffffffffffffffffffffffffffffff021916908373ffffffffffffffffffffffffffffffffffffffff1602179055506000600181905550612826806100686000396000f3006080604052600436106100db576000357c0100000000000000000000000000000000000000000000000000000000900463ffffffff16806314a0069a146100e05780631bcee02014610185578063346d1abb1461023e57806335b8e8201461038f5780635aba6426146104c1578063715018a6146105705780638baf519b146105875780638da5cb5b146106405780639475821814610697578063bed34bba146107a9578063e2829f0c14610870578063e8b614c01461089d578063ea0dc636146108c8578063f2fde38b146109b7578063fea6c477146109fa575b600080fd5b3480156100ec57600080fd5b50610147600480360381019080803590602001908201803590602001908080601f0160208091040260200160405190810160405280939291908181526020018383808284378201915050505050509192919290505050610a78565b604051808615151515815260200185151515158152602001841515151581526020018381526020018281526020019550505050505060405180910390f35b34801561019157600080fd5b5061023c60048036038101908080359060200190929190803590602001908201803590602001908080601f0160208091040260200160405190810160405280939291908181526020018383808284378201915050505050509192919290803590602001908201803590602001908080601f0160208091040260200160405190810160405280939291908181526020018383808284378201915050505050509192919290505050610d00565b005b34801561024a57600080fd5b506102a5600480360381019080803590602001908201803590602001908080601f0160208091040260200160405190810160405280939291908181526020018383808284378201915050505050509192919290505050610f39565b604051808615151515815260200185815260200180602001806020018460018111156102cd57fe5b60ff168152602001838103835286818151815260200191508051906020019060200280838360005b838110156103105780820151818401526020810190506102f5565b50505050905001838103825285818151815260200191508051906020019080838360005b8381101561034f578082015181840152602081019050610334565b50505050905090810190601f16801561037c5780820380516001836020036101000a031916815260200191505b5097505050505050505060405180910390f35b34801561039b57600080fd5b506103ba6004803603810190808035906020019092919050505061129b565b60405180878152602001868152602001806020018515151515815260200184815260200180602001838103835287818151815260200191508051906020019080838360005b8381101561041a5780820151818401526020810190506103ff565b50505050905090810190601f1680156104475780820380516001836020036101000a031916815260200191505b50838103825284818151815260200191508051906020019080838360005b83811015610480578082015181840152602081019050610465565b50505050905090810190601f1680156104ad5780820380516001836020036101000a031916815260200191505b509850505050505050505060405180910390f35b3480156104cd57600080fd5b5061056e600480360381019080803590602001908201803590602001908080601f0160208091040260200160405190810160405280939291908181526020018383808284378201915050505050509192919290803590602001908201803590602001908080601f01602080910402602001604051908101604052809392919081815260200183838082843782019150505050505091929192905050506114c5565b005b34801561057c57600080fd5b506105856117d4565b005b34801561059357600080fd5b5061063e600480360381019080803590602001908201803590602001908080601f0160208091040260200160405190810160405280939291908181526020018383808284378201915050505050509192919290803590602001908201803590602001908080601f0160208091040260200160405190810160405280939291908181526020018383808284378201915050505050509192919290803590602001909291905050506118d6565b005b34801561064c57600080fd5b50610655611b7b565b604051808273ffffffffffffffffffffffffffffffffffffffff1673ffffffffffffffffffffffffffffffffffffffff16815260200191505060405180910390f35b3480156106a357600080fd5b506106c260048036038101908080359060200190929190505050611ba0565b604051808060200180602001838103835285818151815260200191508051906020019080838360005b838110156107065780820151818401526020810190506106eb565b50505050905090810190601f1680156107335780820380516001836020036101000a031916815260200191505b50838103825284818151815260200191508051906020019080838360005b8381101561076c578082015181840152602081019050610751565b50505050905090810190601f1680156107995780820380516001836020036101000a031916815260200191505b5094505050505060405180910390f35b3480156107b557600080fd5b50610856600480360381019080803590602001908201803590602001908080601f0160208091040260200160405190810160405280939291908181526020018383808284378201915050505050509192919290803590602001908201803590602001908080601f0160208091040260200160405190810160405280939291908181526020018383808284378201915050505050509192919290505050611d29565b604051808215151515815260200191505060405180910390f35b34801561087c57600080fd5b5061089b60048036038101908080359060200190929190505050611ee5565b005b3480156108a957600080fd5b506108b2611f91565b6040518082815260200191505060405180910390f35b3480156108d457600080fd5b506109b5600480360381019080803590602001908201803590602001908080601f01602080910402602001604051908101604052809392919081815260200183838082843782019150505050505091929192908035906020019082018035906020019080806020026020016040519081016040528093929190818152602001838360200280828437820191505050505050919291929080359060200190820180359060200190808060200260200160405190810160405280939291908181526020018383602002808284378201915050505050509192919290505050611f9e565b005b3480156109c357600080fd5b506109f8600480360381019080803573ffffffffffffffffffffffffffffffffffffffff169060200190929190505050612501565b005b348015610a0657600080fd5b50610a5e60048036038101908080359060200190820180359060200190808060200260200160405190810160405280939291908181526020018383602002808284378201915050505050509192919290505050612568565b604051808215151515815260200191505060405180910390f35b60008060008060008060008060008060048b6040518082805190602001908083835b602083101515610abf5780518252602082019150602081019050602083039250610a9a565b6001836020036101000a038019825116818451168082178552505050505050905001915050908152602001604051809103902060000160009054906101000a900460ff16945060048b6040518082805190602001908083835b602083101515610b3d5780518252602082019150602081019050602083039250610b18565b6001836020036101000a038019825116818451168082178552505050505050905001915050908152602001604051809103902060000160019054906101000a900460ff16935060048b6040518082805190602001908083835b602083101515610bbb5780518252602082019150602081019050602083039250610b96565b6001836020036101000a038019825116818451168082178552505050505050905001915050908152602001604051809103902060000160029054906101000a900460ff16925060048b6040518082805190602001908083835b602083101515610c395780518252602082019150602081019050602083039250610c14565b6001836020036101000a038019825116818451168082178552505050505050905001915050908152602001604051809103902060010154915060048b6040518082805190602001908083835b602083101515610caa5780518252602082019150602081019050602083039250610c85565b6001836020036101000a0380198251168184511680821785525050505050509050019150509081526020016040518091039020600201549050848484848499509950995099509950505050505091939590929450565b8280600180811115610d0e57fe5b10151515610d1b57600080fd5b60016005846040518082805190602001908083835b602083101515610d555780518252602082019150602081019050602083039250610d30565b6001836020036101000a038019825116818451168082178552505050505050905001915050908152602001604051809103902060000160006101000a81548160ff02191690831515021790555060006005846040518082805190602001908083835b602083101515610ddc5780518252602082019150602081019050602083039250610db7565b6001836020036101000a038019825116818451168082178552505050505050905001915050908152602001604051809103902060010181905550816005846040518082805190602001908083835b602083101515610e4f5780518252602082019150602081019050602083039250610e2a565b6001836020036101000a03801982511681845116808217855250505050505090500191505090815260200160405180910390206003019080519060200190610e98929190612681565b50836001811115610ea557fe5b6005846040518082805190602001908083835b602083101515610edd5780518252602082019150602081019050602083039250610eb8565b6001836020036101000a038019825116818451168082178552505050505050905001915050908152602001604051809103902060040160006101000a81548160ff02191690836001811115610f2e57fe5b021790555050505050565b6000806060806000806000606080600060058b6040518082805190602001908083835b602083101515610f815780518252602082019150602081019050602083039250610f5c565b6001836020036101000a038019825116818451168082178552505050505050905001915050908152602001604051809103902060000160009054906101000a900460ff16945060058b6040518082805190602001908083835b602083101515610fff5780518252602082019150602081019050602083039250610fda565b6001836020036101000a038019825116818451168082178552505050505050905001915050908152602001604051809103902060010154935060058b6040518082805190602001908083835b602083101515611070578051825260208201915060208101905060208303925061104b565b6001836020036101000a03801982511681845116808217855250505050505090500191505090815260200160405180910390206002018054806020026020016040519081016040528092919081815260200182805480156110f057602002820191906000526020600020905b8154815260200190600101908083116110dc575b5050505050925060058b6040518082805190602001908083835b60208310151561112f578051825260208201915060208101905060208303925061110a565b6001836020036101000a03801982511681845116808217855250505050505090500191505090815260200160405180910390206003018054600181600116156101000203166002900480601f0160208091040260200160405190810160405280929190818152602001828054600181600116156101000203166002900480156111f95780601f106111ce576101008083540402835291602001916111f9565b820191906000526020600020905b8154815290600101906020018083116111dc57829003601f168201915b5050505050915060058b6040518082805190602001908083835b6020831015156112385780518252602082019150602081019050602083039250611213565b6001836020036101000a038019825116818451168082178552505050505050905001915050908152602001604051809103902060040160009054906101000a900460ff169050848484848499509950995099509950505050505091939590929450565b600080606060008060606000806060600080606060038d8154811015156112be57fe5b906000526020600020906005020160010154955060038d8154811015156112e157fe5b906000526020600020906005020160020154945060038d81548110151561130457fe5b90600052602060002090600502016003018054600181600116156101000203166002900480601f0160208091040260200160405190810160405280929190818152602001828054600181600116156101000203166002900480156113a95780601f1061137e576101008083540402835291602001916113a9565b820191906000526020600020905b81548152906001019060200180831161138c57829003601f168201915b5050505050935060038d8154811015156113bf57fe5b906000526020600020906005020160040160009054906101000a900460ff169250600660008e8152602001908152602001600020549150600760008e81526020019081526020016000208054600181600116156101000203166002900480601f01602080910402602001604051908101604052809291908181526020018280546001816001161561010002031660029004801561149d5780601f106114725761010080835404028352916020019161149d565b820191906000526020600020905b81548152906001019060200180831161148057829003601f168201915b505050505090508585858585859b509b509b509b509b509b5050505050505091939550919395565b60006114cf612701565b6000809054906101000a900473ffffffffffffffffffffffffffffffffffffffff1673ffffffffffffffffffffffffffffffffffffffff163373ffffffffffffffffffffffffffffffffffffffff1614151561152a57600080fd5b8360008090505b600280549050811015611620576001151561160460028381548110151561155457fe5b90600052602060002090600302016001018054600181600116156101000203166002900480601f0160208091040260200160405190810160405280929190818152602001828054600181600116156101000203166002900480156115f95780601f106115ce576101008083540402835291602001916115f9565b820191906000526020600020905b8154815290600101906020018083116115dc57829003601f168201915b505050505084611d29565b15151415151561161357600080fd5b8080600101915050611531565b60028054905093506060604051908101604052808581526020018781526020018681525092506002839080600181540180825580915050906001820390600052602060002090600302016000909192909190915060008201518160000155602082015181600101908051906020019061169a929190612723565b5060408201518160020190805190602001906116b7929190612723565b505050507f6b5e05b65b7ac7c7ebb8fc390a2b432a34236868c2fa629ef097f1f65cad374c848787604051808481526020018060200180602001838103835285818151815260200191508051906020019080838360005b8381101561172957808201518184015260208101905061170e565b50505050905090810190601f1680156117565780820380516001836020036101000a031916815260200191505b50838103825284818151815260200191508051906020019080838360005b8381101561178f578082015181840152602081019050611774565b50505050905090810190601f1680156117bc5780820380516001836020036101000a031916815260200191505b509550505050505060405180910390a1505050505050565b6000809054906101000a900473ffffffffffffffffffffffffffffffffffffffff1673ffffffffffffffffffffffffffffffffffffffff163373ffffffffffffffffffffffffffffffffffffffff1614151561182f57600080fd5b6000809054906101000a900473ffffffffffffffffffffffffffffffffffffffff1673ffffffffffffffffffffffffffffffffffffffff167ff8df31144d9c2f0f6b59d69b8b98abd5459d07f2742c4df920b25aae33c6482060405160405180910390a260008060006101000a81548173ffffffffffffffffffffffffffffffffffffffff021916908373ffffffffffffffffffffffffffffffffffffffff160217905550565b60006118e06127a3565b6000809054906101000a900473ffffffffffffffffffffffffffffffffffffffff1673ffffffffffffffffffffffffffffffffffffffff163373ffffffffffffffffffffffffffffffffffffffff1614151561193b57600080fd5b846005816040518082805190602001908083835b602083101515611974578051825260208201915060208101905060208303925061194f565b6001836020036101000a038019825116818451168082178552505050505050905001915050908152602001604051809103902060000160009054906101000a900460ff1615156119c357600080fd5b83806002805490501115156119d757600080fd5b600380549050935084600660008681526020019081526020016000208190555086600760008681526020019081526020016000209080519060200190611a1e929190612681565b506005876040518082805190602001908083835b602083101515611a575780518252602082019150602081019050602083039250611a32565b6001836020036101000a038019825116818451168082178552505050505050905001915050908152602001604051809103902060020184908060018154018082558091505090600182039060005260206000200160009091929091909150555060a0604051908101604052808581526020016000815260200160008152602001878152602001600115158152509250600383908060018154018082558091505090600182039060005260206000209060050201600090919290919091506000820151816000015560208201518160010155604082015181600201556060820151816003019080519060200190611b4e929190612723565b5060808201518160040160006101000a81548160ff02191690831515021790555050505050505050505050565b6000809054906101000a900473ffffffffffffffffffffffffffffffffffffffff1681565b606080606080600285815481101515611bb557fe5b90600052602060002090600302016001018054600181600116156101000203166002900480601f016020809104026020016040519081016040528092919081815260200182805460018160011615610100020316600290048015611c5a5780601f10611c2f57610100808354040283529160200191611c5a565b820191906000526020600020905b815481529060010190602001808311611c3d57829003601f168201915b50505050509150600285815481101515611c7057fe5b90600052602060002090600302016002018054600181600116156101000203166002900480601f016020809104026020016040519081016040528092919081815260200182805460018160011615610100020316600290048015611d155780601f10611cea57610100808354040283529160200191611d15565b820191906000526020600020905b815481529060010190602001808311611cf857829003601f168201915b505050505090508181935093505050915091565b6000806000846040516020018082805190602001908083835b602083101515611d675780518252602082019150602081019050602083039250611d42565b6001836020036101000a0380198251168184511680821785525050505050509050019150506040516020818303038152906040526040518082805190602001908083835b602083101515611dd05780518252602082019150602081019050602083039250611dab565b6001836020036101000a03801982511681845116808217855250505050505090500191505060405180910390209150836040516020018082805190602001908083835b602083101515611e385780518252602082019150602081019050602083039250611e13565b6001836020036101000a0380198251168184511680821785525050505050509050019150506040516020818303038152906040526040518082805190602001908083835b602083101515611ea15780518252602082019150602081019050602083039250611e7c565b6001836020036101000a0380198251168184511680821785525050505050509050019150506040518091039020905080600019168260001916149250505092915050565b6000809054906101000a900473ffffffffffffffffffffffffffffffffffffffff1673ffffffffffffffffffffffffffffffffffffffff163373ffffffffffffffffffffffffffffffffffffffff16141515611f4057600080fd5b8080600380549050111515611f5457600080fd5b6000600383815481101515611f6557fe5b906000526020600020906005020160040160006101000a81548160ff0219169083151502179055505050565b6000600280549050905090565b6000806000809054906101000a900473ffffffffffffffffffffffffffffffffffffffff1673ffffffffffffffffffffffffffffffffffffffff163373ffffffffffffffffffffffffffffffffffffffff16141515611ffc57600080fd5b84600115156004826040518082805190602001908083835b6020831015156120395780518252602082019150602081019050602083039250612014565b6001836020036101000a038019825116818451168082178552505050505050905001915050908152602001604051809103902060000160009054906101000a900460ff1615151415151561208c57600080fd5b84600081518110151561209b57fe5b9060200190602002015192508360008151811015156120b657fe5b90602001906020020151915060016000815480929190600101919050555060056007600085815260200190815260200160002060405180828054600181600116156101000203166002900480156121445780601f10612122576101008083540402835291820191612144565b820191906000526020600020905b815481529060010190602001808311612130575b505091505090815260200160405180910390206001016000815480929190600101919050555060056007600084815260200190815260200160002060405180828054600181600116156101000203166002900480156121da5780601f106121b85761010080835404028352918201916121da565b820191906000526020600020905b8154815290600101906020018083116121c6575b505091505090815260200160405180910390206001016000815480929190600101919050555060016004876040518082805190602001908083835b60208310151561223a5780518252602082019150602081019050602083039250612215565b6001836020036101000a038019825116818451168082178552505050505050905001915050908152602001604051809103902060000160006101000a81548160ff02191690831515021790555061229085612568565b156123c05760016004876040518082805190602001908083835b6020831015156122cf57805182526020820191506020810190506020830392506122aa565b6001836020036101000a038019825116818451168082178552505050505050905001915050908152602001604051809103902060000160016101000a81548160ff021916908315150217905550826004876040518082805190602001908083835b6020831015156123555780518252602082019150602081019050602083039250612330565b6001836020036101000a03801982511681845116808217855250505050505090500191505090815260200160405180910390206001018190555060038381548110151561239e57fe5b9060005260206000209060050201600101600081548092919060010191905055505b6123c984612568565b156124f95760016004876040518082805190602001908083835b60208310151561240857805182526020820191506020810190506020830392506123e3565b6001836020036101000a038019825116818451168082178552505050505050905001915050908152602001604051809103902060000160026101000a81548160ff021916908315150217905550816004876040518082805190602001908083835b60208310151561248e5780518252602082019150602081019050602083039250612469565b6001836020036101000a0380198251168184511680821785525050505050509050019150509081526020016040518091039020600201819055506003828154811015156124d757fe5b9060005260206000209060050201600201600081548092919060010191905055505b505050505050565b6000809054906101000a900473ffffffffffffffffffffffffffffffffffffffff1673ffffffffffffffffffffffffffffffffffffffff163373ffffffffffffffffffffffffffffffffffffffff1614151561255c57600080fd5b61256581612587565b50565b6000806000905060018351141561257e57600190505b80915050919050565b600073ffffffffffffffffffffffffffffffffffffffff168173ffffffffffffffffffffffffffffffffffffffff16141515156125c357600080fd5b8073ffffffffffffffffffffffffffffffffffffffff166000809054906101000a900473ffffffffffffffffffffffffffffffffffffffff1673ffffffffffffffffffffffffffffffffffffffff167f8be0079c531659141344cd1fd0a4f28419497f9722a3daafe3b4186f6b6457e060405160405180910390a3806000806101000a81548173ffffffffffffffffffffffffffffffffffffffff021916908373ffffffffffffffffffffffffffffffffffffffff16021790555050565b828054600181600116156101000203166002900490600052602060002090601f016020900481019282601f106126c257805160ff19168380011785556126f0565b828001600101855582156126f0579182015b828111156126ef5782518255916020019190600101906126d4565b5b5090506126fd91906127d5565b5090565b6060604051908101604052806000815260200160608152602001606081525090565b828054600181600116156101000203166002900490600052602060002090601f016020900481019282601f1061276457805160ff1916838001178555612792565b82800160010185558215612792579182015b82811115612791578251825591602001919060010190612776565b5b50905061279f91906127d5565b5090565b60a060405190810160405280600081526020016000815260200160008152602001606081526020016000151581525090565b6127f791905b808211156127f35760008160009055506001016127db565b5090565b905600a165627a7a72305820d87920e13d2fa4fc41d66648206cc6cc5057fadb972882051d6e9cfdc876d3c60029",
  "source": "pragma solidity ^0.4.24;\r\n\r\nimport \"./Ownable.sol\";\r\n\r\n/*\r\n@title Election smart contract\r\n@author Clement Tong\r\n*/\r\ncontract Election is Ownable {\r\n    event NewParty(uint partyId, string name, string abbreviation);\r\n\r\n    enum ConstituencyType {FEDERAL, STATE}\r\n    uint totalVotes;\r\n\r\n    /**\r\n    @notice Checks if the voter has already voted\r\n    @dev -\r\n    @param _voterNonce Nonce of voter\r\n    */\r\n    modifier hasNotVoted(string _voterNonce){\r\n        require(votes[_voterNonce].hasVoted != true);\r\n        _;\r\n    }\r\n\r\n    /**\r\n    @notice Checks if the constituency type is valid\r\n    @dev -\r\n    @param _constituencyType Type of constituency\r\n    */\r\n    modifier isValidConstituencyType(uint _constituencyType){\r\n        require(uint(ConstituencyType.STATE) >= _constituencyType);\r\n        _;\r\n    }\r\n\r\n    /**\r\n    @notice Checks if the constituency already exists\r\n    @dev -\r\n    @param _constituencyCode Code of constituency\r\n    */\r\n    modifier isExistingConstituency(string _constituencyCode){\r\n        require(constituencies[_constituencyCode].initiated);\r\n        _;\r\n    }\r\n\r\n    /**\r\n    @notice Checks if the party does not exist\r\n    @dev -\r\n    @param _partyName Name of party\r\n    */\r\n    modifier isNotExistingParty(string _partyName){\r\n        for (uint x = 0; x < parties.length; x++) {\r\n            require(compareStrings(parties[x].name, _partyName) != true);\r\n        }\r\n        _;\r\n    }\r\n\r\n    /**\r\n    @notice Checks if the party is valid\r\n    @dev -\r\n    @param _partyId ID of a party\r\n    */\r\n    modifier isValidParty (uint _partyId){\r\n        require(parties.length > _partyId);\r\n        _;\r\n    }\r\n\r\n    /**\r\n    @notice Checks if the candidate is valid\r\n    @dev -\r\n    @param _candidateId ID of a candidate\r\n    */\r\n    modifier isValidCandidate(uint _candidateId){\r\n        require(candidates.length > _candidateId);\r\n        _;\r\n    }\r\n\r\n    struct Constituency {\r\n        bool initiated;\r\n        uint numVotes;\r\n        uint[] candidates;\r\n        string constituencyName;\r\n        ConstituencyType constituencyType;\r\n    }\r\n\r\n    struct Party {\r\n        uint partyId;\r\n        string name;\r\n        string abbreviation;\r\n    }\r\n\r\n    struct Candidate {\r\n        uint candidateId;\r\n        uint numVotesFederal;\r\n        uint numVotesState;\r\n        string name;\r\n        bool validCandidate;\r\n    }\r\n\r\n    struct Voter {\r\n        bool hasVoted;\r\n        bool validFederalVote;\r\n        bool validStateVote;\r\n        uint federalCandidateVote;\r\n        uint stateCandidateVote;\r\n    }\r\n\r\n    Party[] parties;\r\n    Candidate[] candidates;\r\n\r\n    mapping(string => Voter) votes;\r\n    mapping(string => Constituency) constituencies;\r\n    mapping(uint => uint) candidateToParty;\r\n    mapping(uint => string) candidateToConstituency;\r\n\r\n    constructor() public {\r\n        totalVotes = 0;\r\n    }\r\n\r\n    /**\r\n    @notice Registers a new party\r\n    @dev -\r\n    @param _partyName Name of party\r\n    @param _partyAbbreviation Abbreviation of name of party\r\n    */\r\n    function registerParty(string _partyName, string _partyAbbreviation) public onlyOwner() isNotExistingParty(_partyName) {\r\n        uint partyId = parties.length;\r\n        Party memory party = Party(partyId, _partyName, _partyAbbreviation);\r\n        parties.push(party);\r\n\r\n        emit NewParty(partyId, _partyName, _partyAbbreviation);\r\n    }\r\n\r\n    /**\r\n    @notice Registers a new candidate\r\n    @dev -\r\n    @param _constituencyCode Code of contesting constituency\r\n    @param _candidateName Name of new candidate\r\n    @param _partyId ID of a registered party\r\n    */\r\n    function registerCandidate(\r\n        string _constituencyCode,\r\n        string _candidateName,\r\n        uint _partyId) onlyOwner() public isExistingConstituency(_constituencyCode) isValidParty(_partyId) {\r\n\r\n        uint candidateId = candidates.length;\r\n        candidateToParty[candidateId] = _partyId;\r\n        candidateToConstituency[candidateId] = _constituencyCode;\r\n        constituencies[_constituencyCode].candidates.push(candidateId);\r\n        Candidate memory candidate = Candidate(candidateId, 0, 0, _candidateName, true);\r\n        candidates.push(candidate);\r\n\r\n    }\r\n\r\n    /**\r\n    @notice Initialises a new constituency\r\n    @dev -\r\n    @param _constituencyType Type of constituency\r\n    @param _constituencyCode Code of constituency\r\n    @param _constituencyName Name of constituency\r\n    */\r\n    function initiateConstituency(\r\n        uint _constituencyType,\r\n        string _constituencyCode,\r\n        string _constituencyName) public isValidConstituencyType(_constituencyType) {\r\n\r\n        constituencies[_constituencyCode].initiated = true;\r\n        constituencies[_constituencyCode].numVotes = 0;\r\n        constituencies[_constituencyCode].constituencyName = _constituencyName;\r\n        constituencies[_constituencyCode].constituencyType = ConstituencyType(_constituencyType);\r\n    }\r\n\r\n    //TODO Cannot pass empty array as argument\r\n    /**\r\n    @notice Votes for federal constituency and state constituency candidates\r\n    @dev -\r\n    @param _voterNonce Nonce of voter\r\n    @param _federalCandidateVote Array of voted federal constituency candidates\r\n    @param _stateCandidateVote Array of voted state constituency candidates\r\n    */\r\n    function vote(\r\n        string _voterNonce,\r\n        uint[] _federalCandidateVote,\r\n        uint[] _stateCandidateVote) public onlyOwner() hasNotVoted(_voterNonce) {\r\n\r\n        uint federalCandidateId = _federalCandidateVote[0];\r\n        uint stateCandidateId = _stateCandidateVote[0];\r\n\r\n        totalVotes++;\r\n        constituencies[candidateToConstituency[federalCandidateId]].numVotes++;\r\n        constituencies[candidateToConstituency[stateCandidateId]].numVotes++;\r\n        votes[_voterNonce].hasVoted = true;\r\n\r\n        if (isValidVote(_federalCandidateVote)) {\r\n            votes[_voterNonce].validFederalVote = true;\r\n            votes[_voterNonce].federalCandidateVote = federalCandidateId;\r\n            candidates[federalCandidateId].numVotesFederal++;\r\n        }\r\n\r\n        if (isValidVote(_stateCandidateVote)) {\r\n            votes[_voterNonce].validStateVote = true;\r\n            votes[_voterNonce].stateCandidateVote = stateCandidateId;\r\n            candidates[stateCandidateId].numVotesState++;\r\n        }\r\n\r\n    }\r\n\r\n    /**\r\n    @notice Checks if the vote is valid\r\n    @dev -\r\n    @param _vote Array of voted constituency candidates\r\n    @return Validity of the vote\r\n    */\r\n    function isValidVote(uint[] _vote) public pure returns (bool){\r\n        bool validity = false;\r\n\r\n        if (_vote.length == 1) {\r\n            validity = true;\r\n        }\r\n\r\n        return validity;\r\n    }\r\n\r\n    /**\r\n    @notice Invalidates a candidate\r\n    @dev -\r\n    @param _candidateId ID of a candidate\r\n    */\r\n    function invalidateCandidate(uint _candidateId) public onlyOwner() isValidCandidate(_candidateId) {\r\n        candidates[_candidateId].validCandidate = false;\r\n    }\r\n\r\n    /**\r\n    @notice Compares a pair of strings for equality\r\n    @dev -\r\n    @param a First string\r\n    @param b Second string\r\n    @return Equality of the strings\r\n    */\r\n    function compareStrings(string a, string b) public pure returns (bool){\r\n        bytes32 c = keccak256(abi.encodePacked(a));\r\n        bytes32 d = keccak256(abi.encodePacked(b));\r\n\r\n        return c == d;\r\n    }\r\n\r\n    /**\r\n    @dev Getters\r\n    */\r\n    function getParty(uint _partyId) public view returns (string, string){\r\n        string memory name = parties[_partyId].name;\r\n        string memory abbreviation = parties[_partyId].abbreviation;\r\n\r\n        return (name, abbreviation);\r\n    }\r\n\r\n    function getCandidate(uint _candidateId) public view returns (uint, uint, string, bool, uint, string){\r\n        uint numVotesFederal = candidates[_candidateId].numVotesFederal;\r\n        uint numVotesState = candidates[_candidateId].numVotesState;\r\n        string memory name = candidates[_candidateId].name;\r\n        bool validCandidate = candidates[_candidateId].validCandidate;\r\n        uint party = candidateToParty[_candidateId];\r\n        string memory constituency = candidateToConstituency[_candidateId];\r\n\r\n        return (numVotesFederal, numVotesState, name, validCandidate, party, constituency);\r\n    }\r\n\r\n    function getVoter(string _nonce) public view returns (bool, bool, bool, uint, uint){\r\n        bool hasVoted = votes[_nonce].hasVoted;\r\n        bool validFederalVote = votes[_nonce].validFederalVote;\r\n        bool validStateVote = votes[_nonce].validStateVote;\r\n        uint federalCandidateVote = votes[_nonce].federalCandidateVote;\r\n        uint stateCandidateVote = votes[_nonce].stateCandidateVote;\r\n\r\n        return (hasVoted, validFederalVote, validStateVote, federalCandidateVote, stateCandidateVote);\r\n    }\r\n\r\n    function getConstituency(string _constituencyCode) public view returns (bool, uint, uint[], string, ConstituencyType){\r\n        bool initiated = constituencies[_constituencyCode].initiated;\r\n        uint numVotes = constituencies[_constituencyCode].numVotes;\r\n        uint[] memory constituencyCandidates = constituencies[_constituencyCode].candidates;\r\n        string memory constituencyName = constituencies[_constituencyCode].constituencyName;\r\n        ConstituencyType constituencyType = constituencies[_constituencyCode].constituencyType;\r\n\r\n        return (initiated, numVotes, constituencyCandidates, constituencyName, constituencyType);\r\n    }\r\n\r\n    function getPartiesLength() public view returns (uint){\r\n        return parties.length;\r\n    }\r\n}\r\n",
  "sourcePath": "D:\\blockchain-laravel\\contracts\\Election.sol",
  "compiler": {
    "name": "solc",
    "version": "0.4.24+commit.e67f0147.Emscripten.clang"
  },
  "schemaVersion": "2.0.0",
  "updatedAt": "2018-07-22T15:02:36.670Z"
}