{
  "contractName": "Election",
  "abi": [
    {
      "constant": false,
      "inputs": [],
      "name": "renounceOwnership",
      "outputs": [],
      "payable": false,
      "stateMutability": "nonpayable",
      "type": "function"
    },
    {
      "constant": true,
      "inputs": [],
      "name": "owner",
      "outputs": [
        {
          "name": "",
          "type": "address"
        }
      ],
      "payable": false,
      "stateMutability": "view",
      "type": "function"
    },
    {
      "constant": false,
      "inputs": [
        {
          "name": "_newOwner",
          "type": "address"
        }
      ],
      "name": "transferOwnership",
      "outputs": [],
      "payable": false,
      "stateMutability": "nonpayable",
      "type": "function"
    },
    {
      "inputs": [],
      "payable": false,
      "stateMutability": "nonpayable",
      "type": "constructor"
    },
    {
      "anonymous": false,
      "inputs": [
        {
          "indexed": true,
          "name": "previousOwner",
          "type": "address"
        }
      ],
      "name": "OwnershipRenounced",
      "type": "event"
    },
    {
      "anonymous": false,
      "inputs": [
        {
          "indexed": true,
          "name": "previousOwner",
          "type": "address"
        },
        {
          "indexed": true,
          "name": "newOwner",
          "type": "address"
        }
      ],
      "name": "OwnershipTransferred",
      "type": "event"
    },
    {
      "constant": false,
      "inputs": [
        {
          "name": "_partyName",
          "type": "string"
        },
        {
          "name": "_partyAbbreviation",
          "type": "string"
        }
      ],
      "name": "registerParty",
      "outputs": [],
      "payable": false,
      "stateMutability": "nonpayable",
      "type": "function"
    },
    {
      "constant": false,
      "inputs": [
        {
          "name": "_constituencyCode",
          "type": "string"
        },
        {
          "name": "_candidateName",
          "type": "string"
        },
        {
          "name": "_partyId",
          "type": "uint256"
        }
      ],
      "name": "registerCandidate",
      "outputs": [],
      "payable": false,
      "stateMutability": "nonpayable",
      "type": "function"
    },
    {
      "constant": false,
      "inputs": [
        {
          "name": "_constituencyType",
          "type": "uint256"
        },
        {
          "name": "_constituencyCode",
          "type": "string"
        },
        {
          "name": "_constituencyName",
          "type": "string"
        }
      ],
      "name": "initiateConstituency",
      "outputs": [],
      "payable": false,
      "stateMutability": "nonpayable",
      "type": "function"
    },
    {
      "constant": false,
      "inputs": [
        {
          "name": "_voterNonce",
          "type": "string"
        },
        {
          "name": "_federalCandidateVote",
          "type": "uint256[]"
        },
        {
          "name": "_stateCandidateVote",
          "type": "uint256[]"
        }
      ],
      "name": "vote",
      "outputs": [],
      "payable": false,
      "stateMutability": "nonpayable",
      "type": "function"
    },
    {
      "constant": true,
      "inputs": [
        {
          "name": "_vote",
          "type": "uint256[]"
        }
      ],
      "name": "isValidVote",
      "outputs": [
        {
          "name": "",
          "type": "bool"
        }
      ],
      "payable": false,
      "stateMutability": "pure",
      "type": "function"
    },
    {
      "constant": false,
      "inputs": [
        {
          "name": "_candidateId",
          "type": "uint256"
        }
      ],
      "name": "invalidateCandidate",
      "outputs": [],
      "payable": false,
      "stateMutability": "nonpayable",
      "type": "function"
    },
    {
      "constant": true,
      "inputs": [
        {
          "name": "a",
          "type": "string"
        },
        {
          "name": "b",
          "type": "string"
        }
      ],
      "name": "compareStrings",
      "outputs": [
        {
          "name": "",
          "type": "bool"
        }
      ],
      "payable": false,
      "stateMutability": "pure",
      "type": "function"
    },
    {
      "constant": true,
      "inputs": [
        {
          "name": "_partyId",
          "type": "uint256"
        }
      ],
      "name": "getParty",
      "outputs": [
        {
          "name": "",
          "type": "string"
        },
        {
          "name": "",
          "type": "string"
        }
      ],
      "payable": false,
      "stateMutability": "view",
      "type": "function"
    },
    {
      "constant": true,
      "inputs": [
        {
          "name": "_candidateId",
          "type": "uint256"
        }
      ],
      "name": "getCandidate",
      "outputs": [
        {
          "name": "",
          "type": "uint256"
        },
        {
          "name": "",
          "type": "uint256"
        },
        {
          "name": "",
          "type": "string"
        },
        {
          "name": "",
          "type": "bool"
        },
        {
          "name": "",
          "type": "uint256"
        },
        {
          "name": "",
          "type": "string"
        }
      ],
      "payable": false,
      "stateMutability": "view",
      "type": "function"
    },
    {
      "constant": true,
      "inputs": [
        {
          "name": "_nonce",
          "type": "string"
        }
      ],
      "name": "getVoter",
      "outputs": [
        {
          "name": "",
          "type": "bool"
        },
        {
          "name": "",
          "type": "bool"
        },
        {
          "name": "",
          "type": "bool"
        },
        {
          "name": "",
          "type": "uint256"
        },
        {
          "name": "",
          "type": "uint256"
        }
      ],
      "payable": false,
      "stateMutability": "view",
      "type": "function"
    },
    {
      "constant": true,
      "inputs": [
        {
          "name": "_constituencyCode",
          "type": "string"
        }
      ],
      "name": "getConstituency",
      "outputs": [
        {
          "name": "",
          "type": "bool"
        },
        {
          "name": "",
          "type": "uint256"
        },
        {
          "name": "",
          "type": "uint256[]"
        },
        {
          "name": "",
          "type": "string"
        },
        {
          "name": "",
          "type": "uint8"
        }
      ],
      "payable": false,
      "stateMutability": "view",
      "type": "function"
    }
  ],
  "bytecode": "0x608060405234801561001057600080fd5b50336000806101000a81548173ffffffffffffffffffffffffffffffffffffffff021916908373ffffffffffffffffffffffffffffffffffffffff16021790555060006001819055506126d2806100686000396000f3006080604052600436106100d0576000357c0100000000000000000000000000000000000000000000000000000000900463ffffffff16806314a0069a146100d55780631bcee0201461017a578063346d1abb1461023357806335b8e820146103845780635aba6426146104b6578063715018a6146105655780638baf519b1461057c5780638da5cb5b14610635578063947582181461068c578063bed34bba1461079e578063e2829f0c14610865578063ea0dc63614610892578063f2fde38b14610981578063fea6c477146109c4575b600080fd5b3480156100e157600080fd5b5061013c600480360381019080803590602001908201803590602001908080601f0160208091040260200160405190810160405280939291908181526020018383808284378201915050505050509192919290505050610a42565b604051808615151515815260200185151515158152602001841515151581526020018381526020018281526020019550505050505060405180910390f35b34801561018657600080fd5b5061023160048036038101908080359060200190929190803590602001908201803590602001908080601f0160208091040260200160405190810160405280939291908181526020018383808284378201915050505050509192919290803590602001908201803590602001908080601f0160208091040260200160405190810160405280939291908181526020018383808284378201915050505050509192919290505050610cca565b005b34801561023f57600080fd5b5061029a600480360381019080803590602001908201803590602001908080601f0160208091040260200160405190810160405280939291908181526020018383808284378201915050505050509192919290505050610f03565b604051808615151515815260200185815260200180602001806020018460018111156102c257fe5b60ff168152602001838103835286818151815260200191508051906020019060200280838360005b838110156103055780820151818401526020810190506102ea565b50505050905001838103825285818151815260200191508051906020019080838360005b83811015610344578082015181840152602081019050610329565b50505050905090810190601f1680156103715780820380516001836020036101000a031916815260200191505b5097505050505050505060405180910390f35b34801561039057600080fd5b506103af60048036038101908080359060200190929190505050611265565b60405180878152602001868152602001806020018515151515815260200184815260200180602001838103835287818151815260200191508051906020019080838360005b8381101561040f5780820151818401526020810190506103f4565b50505050905090810190601f16801561043c5780820380516001836020036101000a031916815260200191505b50838103825284818151815260200191508051906020019080838360005b8381101561047557808201518184015260208101905061045a565b50505050905090810190601f1680156104a25780820380516001836020036101000a031916815260200191505b509850505050505050505060405180910390f35b3480156104c257600080fd5b50610563600480360381019080803590602001908201803590602001908080601f0160208091040260200160405190810160405280939291908181526020018383808284378201915050505050509192919290803590602001908201803590602001908080601f016020809104026020016040519081016040528093929190818152602001838380828437820191505050505050919291929050505061148f565b005b34801561057157600080fd5b5061057a61168d565b005b34801561058857600080fd5b50610633600480360381019080803590602001908201803590602001908080601f0160208091040260200160405190810160405280939291908181526020018383808284378201915050505050509192919290803590602001908201803590602001908080601f01602080910402602001604051908101604052809392919081815260200183838082843782019150505050505091929192908035906020019092919050505061178f565b005b34801561064157600080fd5b5061064a611a34565b604051808273ffffffffffffffffffffffffffffffffffffffff1673ffffffffffffffffffffffffffffffffffffffff16815260200191505060405180910390f35b34801561069857600080fd5b506106b760048036038101908080359060200190929190505050611a59565b604051808060200180602001838103835285818151815260200191508051906020019080838360005b838110156106fb5780820151818401526020810190506106e0565b50505050905090810190601f1680156107285780820380516001836020036101000a031916815260200191505b50838103825284818151815260200191508051906020019080838360005b83811015610761578082015181840152602081019050610746565b50505050905090810190601f16801561078e5780820380516001836020036101000a031916815260200191505b5094505050505060405180910390f35b3480156107aa57600080fd5b5061084b600480360381019080803590602001908201803590602001908080601f0160208091040260200160405190810160405280939291908181526020018383808284378201915050505050509192919290803590602001908201803590602001908080601f0160208091040260200160405190810160405280939291908181526020018383808284378201915050505050509192919290505050611be2565b604051808215151515815260200191505060405180910390f35b34801561087157600080fd5b5061089060048036038101908080359060200190929190505050611d9e565b005b34801561089e57600080fd5b5061097f600480360381019080803590602001908201803590602001908080601f01602080910402602001604051908101604052809392919081815260200183838082843782019150505050505091929192908035906020019082018035906020019080806020026020016040519081016040528093929190818152602001838360200280828437820191505050505050919291929080359060200190820180359060200190808060200260200160405190810160405280939291908181526020018383602002808284378201915050505050509192919290505050611e4a565b005b34801561098d57600080fd5b506109c2600480360381019080803573ffffffffffffffffffffffffffffffffffffffff1690602001909291905050506123ad565b005b3480156109d057600080fd5b50610a2860048036038101908080359060200190820180359060200190808060200260200160405190810160405280939291908181526020018383602002808284378201915050505050509192919290505050612414565b604051808215151515815260200191505060405180910390f35b60008060008060008060008060008060048b6040518082805190602001908083835b602083101515610a895780518252602082019150602081019050602083039250610a64565b6001836020036101000a038019825116818451168082178552505050505050905001915050908152602001604051809103902060000160009054906101000a900460ff16945060048b6040518082805190602001908083835b602083101515610b075780518252602082019150602081019050602083039250610ae2565b6001836020036101000a038019825116818451168082178552505050505050905001915050908152602001604051809103902060000160019054906101000a900460ff16935060048b6040518082805190602001908083835b602083101515610b855780518252602082019150602081019050602083039250610b60565b6001836020036101000a038019825116818451168082178552505050505050905001915050908152602001604051809103902060000160029054906101000a900460ff16925060048b6040518082805190602001908083835b602083101515610c035780518252602082019150602081019050602083039250610bde565b6001836020036101000a038019825116818451168082178552505050505050905001915050908152602001604051809103902060010154915060048b6040518082805190602001908083835b602083101515610c745780518252602082019150602081019050602083039250610c4f565b6001836020036101000a0380198251168184511680821785525050505050509050019150509081526020016040518091039020600201549050848484848499509950995099509950505050505091939590929450565b8280600180811115610cd857fe5b10151515610ce557600080fd5b60016005846040518082805190602001908083835b602083101515610d1f5780518252602082019150602081019050602083039250610cfa565b6001836020036101000a038019825116818451168082178552505050505050905001915050908152602001604051809103902060000160006101000a81548160ff02191690831515021790555060006005846040518082805190602001908083835b602083101515610da65780518252602082019150602081019050602083039250610d81565b6001836020036101000a038019825116818451168082178552505050505050905001915050908152602001604051809103902060010181905550816005846040518082805190602001908083835b602083101515610e195780518252602082019150602081019050602083039250610df4565b6001836020036101000a03801982511681845116808217855250505050505090500191505090815260200160405180910390206003019080519060200190610e6292919061252d565b50836001811115610e6f57fe5b6005846040518082805190602001908083835b602083101515610ea75780518252602082019150602081019050602083039250610e82565b6001836020036101000a038019825116818451168082178552505050505050905001915050908152602001604051809103902060040160006101000a81548160ff02191690836001811115610ef857fe5b021790555050505050565b6000806060806000806000606080600060058b6040518082805190602001908083835b602083101515610f4b5780518252602082019150602081019050602083039250610f26565b6001836020036101000a038019825116818451168082178552505050505050905001915050908152602001604051809103902060000160009054906101000a900460ff16945060058b6040518082805190602001908083835b602083101515610fc95780518252602082019150602081019050602083039250610fa4565b6001836020036101000a038019825116818451168082178552505050505050905001915050908152602001604051809103902060010154935060058b6040518082805190602001908083835b60208310151561103a5780518252602082019150602081019050602083039250611015565b6001836020036101000a03801982511681845116808217855250505050505090500191505090815260200160405180910390206002018054806020026020016040519081016040528092919081815260200182805480156110ba57602002820191906000526020600020905b8154815260200190600101908083116110a6575b5050505050925060058b6040518082805190602001908083835b6020831015156110f957805182526020820191506020810190506020830392506110d4565b6001836020036101000a03801982511681845116808217855250505050505090500191505090815260200160405180910390206003018054600181600116156101000203166002900480601f0160208091040260200160405190810160405280929190818152602001828054600181600116156101000203166002900480156111c35780601f10611198576101008083540402835291602001916111c3565b820191906000526020600020905b8154815290600101906020018083116111a657829003601f168201915b5050505050915060058b6040518082805190602001908083835b60208310151561120257805182526020820191506020810190506020830392506111dd565b6001836020036101000a038019825116818451168082178552505050505050905001915050908152602001604051809103902060040160009054906101000a900460ff169050848484848499509950995099509950505050505091939590929450565b600080606060008060606000806060600080606060038d81548110151561128857fe5b906000526020600020906005020160010154955060038d8154811015156112ab57fe5b906000526020600020906005020160020154945060038d8154811015156112ce57fe5b90600052602060002090600502016003018054600181600116156101000203166002900480601f0160208091040260200160405190810160405280929190818152602001828054600181600116156101000203166002900480156113735780601f1061134857610100808354040283529160200191611373565b820191906000526020600020905b81548152906001019060200180831161135657829003601f168201915b5050505050935060038d81548110151561138957fe5b906000526020600020906005020160040160009054906101000a900460ff169250600660008e8152602001908152602001600020549150600760008e81526020019081526020016000208054600181600116156101000203166002900480601f0160208091040260200160405190810160405280929190818152602001828054600181600116156101000203166002900480156114675780601f1061143c57610100808354040283529160200191611467565b820191906000526020600020905b81548152906001019060200180831161144a57829003601f168201915b505050505090508585858585859b509b509b509b509b509b5050505050505091939550919395565b60006114996125ad565b6000809054906101000a900473ffffffffffffffffffffffffffffffffffffffff1673ffffffffffffffffffffffffffffffffffffffff163373ffffffffffffffffffffffffffffffffffffffff161415156114f457600080fd5b8360008090505b6002805490508110156115ea57600115156115ce60028381548110151561151e57fe5b90600052602060002090600302016001018054600181600116156101000203166002900480601f0160208091040260200160405190810160405280929190818152602001828054600181600116156101000203166002900480156115c35780601f10611598576101008083540402835291602001916115c3565b820191906000526020600020905b8154815290600101906020018083116115a657829003601f168201915b505050505084611be2565b1515141515156115dd57600080fd5b80806001019150506114fb565b6002805490509350606060405190810160405280858152602001878152602001868152509250600283908060018154018082558091505090600182039060005260206000209060030201600090919290919091506000820151816000015560208201518160010190805190602001906116649291906125cf565b5060408201518160020190805190602001906116819291906125cf565b50505050505050505050565b6000809054906101000a900473ffffffffffffffffffffffffffffffffffffffff1673ffffffffffffffffffffffffffffffffffffffff163373ffffffffffffffffffffffffffffffffffffffff161415156116e857600080fd5b6000809054906101000a900473ffffffffffffffffffffffffffffffffffffffff1673ffffffffffffffffffffffffffffffffffffffff167ff8df31144d9c2f0f6b59d69b8b98abd5459d07f2742c4df920b25aae33c6482060405160405180910390a260008060006101000a81548173ffffffffffffffffffffffffffffffffffffffff021916908373ffffffffffffffffffffffffffffffffffffffff160217905550565b600061179961264f565b6000809054906101000a900473ffffffffffffffffffffffffffffffffffffffff1673ffffffffffffffffffffffffffffffffffffffff163373ffffffffffffffffffffffffffffffffffffffff161415156117f457600080fd5b846005816040518082805190602001908083835b60208310151561182d5780518252602082019150602081019050602083039250611808565b6001836020036101000a038019825116818451168082178552505050505050905001915050908152602001604051809103902060000160009054906101000a900460ff16151561187c57600080fd5b838060028054905011151561189057600080fd5b6003805490509350846006600086815260200190815260200160002081905550866007600086815260200190815260200160002090805190602001906118d792919061252d565b506005876040518082805190602001908083835b60208310151561191057805182526020820191506020810190506020830392506118eb565b6001836020036101000a038019825116818451168082178552505050505050905001915050908152602001604051809103902060020184908060018154018082558091505090600182039060005260206000200160009091929091909150555060a0604051908101604052808581526020016000815260200160008152602001878152602001600115158152509250600383908060018154018082558091505090600182039060005260206000209060050201600090919290919091506000820151816000015560208201518160010155604082015181600201556060820151816003019080519060200190611a079291906125cf565b5060808201518160040160006101000a81548160ff02191690831515021790555050505050505050505050565b6000809054906101000a900473ffffffffffffffffffffffffffffffffffffffff1681565b606080606080600285815481101515611a6e57fe5b90600052602060002090600302016001018054600181600116156101000203166002900480601f016020809104026020016040519081016040528092919081815260200182805460018160011615610100020316600290048015611b135780601f10611ae857610100808354040283529160200191611b13565b820191906000526020600020905b815481529060010190602001808311611af657829003601f168201915b50505050509150600285815481101515611b2957fe5b90600052602060002090600302016002018054600181600116156101000203166002900480601f016020809104026020016040519081016040528092919081815260200182805460018160011615610100020316600290048015611bce5780601f10611ba357610100808354040283529160200191611bce565b820191906000526020600020905b815481529060010190602001808311611bb157829003601f168201915b505050505090508181935093505050915091565b6000806000846040516020018082805190602001908083835b602083101515611c205780518252602082019150602081019050602083039250611bfb565b6001836020036101000a0380198251168184511680821785525050505050509050019150506040516020818303038152906040526040518082805190602001908083835b602083101515611c895780518252602082019150602081019050602083039250611c64565b6001836020036101000a03801982511681845116808217855250505050505090500191505060405180910390209150836040516020018082805190602001908083835b602083101515611cf15780518252602082019150602081019050602083039250611ccc565b6001836020036101000a0380198251168184511680821785525050505050509050019150506040516020818303038152906040526040518082805190602001908083835b602083101515611d5a5780518252602082019150602081019050602083039250611d35565b6001836020036101000a0380198251168184511680821785525050505050509050019150506040518091039020905080600019168260001916149250505092915050565b6000809054906101000a900473ffffffffffffffffffffffffffffffffffffffff1673ffffffffffffffffffffffffffffffffffffffff163373ffffffffffffffffffffffffffffffffffffffff16141515611df957600080fd5b8080600380549050111515611e0d57600080fd5b6000600383815481101515611e1e57fe5b906000526020600020906005020160040160006101000a81548160ff0219169083151502179055505050565b6000806000809054906101000a900473ffffffffffffffffffffffffffffffffffffffff1673ffffffffffffffffffffffffffffffffffffffff163373ffffffffffffffffffffffffffffffffffffffff16141515611ea857600080fd5b84600115156004826040518082805190602001908083835b602083101515611ee55780518252602082019150602081019050602083039250611ec0565b6001836020036101000a038019825116818451168082178552505050505050905001915050908152602001604051809103902060000160009054906101000a900460ff16151514151515611f3857600080fd5b846000815181101515611f4757fe5b906020019060200201519250836000815181101515611f6257fe5b9060200190602002015191506001600081548092919060010191905055506005600760008581526020019081526020016000206040518082805460018160011615610100020316600290048015611ff05780601f10611fce576101008083540402835291820191611ff0565b820191906000526020600020905b815481529060010190602001808311611fdc575b505091505090815260200160405180910390206001016000815480929190600101919050555060056007600084815260200190815260200160002060405180828054600181600116156101000203166002900480156120865780601f10612064576101008083540402835291820191612086565b820191906000526020600020905b815481529060010190602001808311612072575b505091505090815260200160405180910390206001016000815480929190600101919050555060016004876040518082805190602001908083835b6020831015156120e657805182526020820191506020810190506020830392506120c1565b6001836020036101000a038019825116818451168082178552505050505050905001915050908152602001604051809103902060000160006101000a81548160ff02191690831515021790555061213c85612414565b1561226c5760016004876040518082805190602001908083835b60208310151561217b5780518252602082019150602081019050602083039250612156565b6001836020036101000a038019825116818451168082178552505050505050905001915050908152602001604051809103902060000160016101000a81548160ff021916908315150217905550826004876040518082805190602001908083835b60208310151561220157805182526020820191506020810190506020830392506121dc565b6001836020036101000a03801982511681845116808217855250505050505090500191505090815260200160405180910390206001018190555060038381548110151561224a57fe5b9060005260206000209060050201600101600081548092919060010191905055505b61227584612414565b156123a55760016004876040518082805190602001908083835b6020831015156122b4578051825260208201915060208101905060208303925061228f565b6001836020036101000a038019825116818451168082178552505050505050905001915050908152602001604051809103902060000160026101000a81548160ff021916908315150217905550816004876040518082805190602001908083835b60208310151561233a5780518252602082019150602081019050602083039250612315565b6001836020036101000a03801982511681845116808217855250505050505090500191505090815260200160405180910390206002018190555060038281548110151561238357fe5b9060005260206000209060050201600201600081548092919060010191905055505b505050505050565b6000809054906101000a900473ffffffffffffffffffffffffffffffffffffffff1673ffffffffffffffffffffffffffffffffffffffff163373ffffffffffffffffffffffffffffffffffffffff1614151561240857600080fd5b61241181612433565b50565b6000806000905060018351141561242a57600190505b80915050919050565b600073ffffffffffffffffffffffffffffffffffffffff168173ffffffffffffffffffffffffffffffffffffffff161415151561246f57600080fd5b8073ffffffffffffffffffffffffffffffffffffffff166000809054906101000a900473ffffffffffffffffffffffffffffffffffffffff1673ffffffffffffffffffffffffffffffffffffffff167f8be0079c531659141344cd1fd0a4f28419497f9722a3daafe3b4186f6b6457e060405160405180910390a3806000806101000a81548173ffffffffffffffffffffffffffffffffffffffff021916908373ffffffffffffffffffffffffffffffffffffffff16021790555050565b828054600181600116156101000203166002900490600052602060002090601f016020900481019282601f1061256e57805160ff191683800117855561259c565b8280016001018555821561259c579182015b8281111561259b578251825591602001919060010190612580565b5b5090506125a99190612681565b5090565b6060604051908101604052806000815260200160608152602001606081525090565b828054600181600116156101000203166002900490600052602060002090601f016020900481019282601f1061261057805160ff191683800117855561263e565b8280016001018555821561263e579182015b8281111561263d578251825591602001919060010190612622565b5b50905061264b9190612681565b5090565b60a060405190810160405280600081526020016000815260200160008152602001606081526020016000151581525090565b6126a391905b8082111561269f576000816000905550600101612687565b5090565b905600a165627a7a72305820d69f0ac21354bc485540f174e7c23a3dedb505641a71b747d14ab651b492cb9c0029",
  "source": "pragma solidity ^0.4.24;\r\n\r\nimport \"./Ownable.sol\";\r\n\r\n/*\r\n@title Election smart contract\r\n@author Clement Tong\r\n*/\r\ncontract Election is Ownable {\r\n    enum ConstituencyType {FEDERAL, STATE}\r\n    uint totalVotes;\r\n\r\n    /**\r\n    @notice Checks if the voter has already voted\r\n    @dev -\r\n    @param _voterNonce Nonce of voter\r\n    */\r\n    modifier hasNotVoted(string _voterNonce){\r\n        require(votes[_voterNonce].hasVoted != true);\r\n        _;\r\n    }\r\n\r\n    /**\r\n    @notice Checks if the constituency type is valid\r\n    @dev -\r\n    @param _constituencyType Type of constituency\r\n    */\r\n    modifier isValidConstituencyType(uint _constituencyType){\r\n        require(uint(ConstituencyType.STATE) >= _constituencyType);\r\n        _;\r\n    }\r\n\r\n    /**\r\n    @notice Checks if the constituency already exists\r\n    @dev -\r\n    @param _constituencyCode Code of constituency\r\n    */\r\n    modifier isExistingConstituency(string _constituencyCode){\r\n        require(constituencies[_constituencyCode].initiated);\r\n        _;\r\n    }\r\n\r\n    /**\r\n    @notice Checks if the party does not exist\r\n    @dev -\r\n    @param _partyName Name of party\r\n    */\r\n    modifier isNotExistingParty(string _partyName){\r\n        for (uint x = 0; x < parties.length; x++) {\r\n            require(compareStrings(parties[x].name, _partyName) != true);\r\n        }\r\n        _;\r\n    }\r\n\r\n    /**\r\n    @notice Checks if the party is valid\r\n    @dev -\r\n    @param _partyId ID of a party\r\n    */\r\n    modifier isValidParty (uint _partyId){\r\n        require(parties.length > _partyId);\r\n        _;\r\n    }\r\n\r\n    /**\r\n    @notice Checks if the candidate is valid\r\n    @dev -\r\n    @param _candidateId ID of a candidate\r\n    */\r\n    modifier isValidCandidate(uint _candidateId){\r\n        require(candidates.length > _candidateId);\r\n        _;\r\n    }\r\n\r\n    struct Constituency {\r\n        bool initiated;\r\n        uint numVotes;\r\n        uint[] candidates;\r\n        string constituencyName;\r\n        ConstituencyType constituencyType;\r\n\r\n    }\r\n\r\n    struct Party {\r\n        uint partyId;\r\n        string name;\r\n        string abbreviation;\r\n    }\r\n\r\n    struct Candidate {\r\n        uint candidateId;\r\n        uint numVotesFederal;\r\n        uint numVotesState;\r\n        string name;\r\n        bool validCandidate;\r\n    }\r\n\r\n    struct Voter {\r\n        bool hasVoted;\r\n        bool validFederalVote;\r\n        bool validStateVote;\r\n        uint federalCandidateVote;\r\n        uint stateCandidateVote;\r\n    }\r\n\r\n    Party[] parties;\r\n    Candidate[] candidates;\r\n\r\n    mapping(string => Voter) votes;\r\n    mapping(string => Constituency) constituencies;\r\n    mapping(uint => uint) candidateToParty;\r\n    mapping(uint => string) candidateToConstituency;\r\n\r\n    constructor() public {\r\n        totalVotes = 0;\r\n    }\r\n\r\n    /**\r\n    @notice Registers a new party\r\n    @dev -\r\n    @param _partyName Name of party\r\n    @param _partyAbbreviation Abbreviation of name of party\r\n    */\r\n    function registerParty(string _partyName, string _partyAbbreviation) public onlyOwner() isNotExistingParty(_partyName) {\r\n        uint partyId = parties.length;\r\n        Party memory party = Party(partyId, _partyName, _partyAbbreviation);\r\n        parties.push(party);\r\n    }\r\n\r\n    /**\r\n    @notice Registers a new candidate\r\n    @dev -\r\n    @param _constituencyCode Code of contesting constituency\r\n    @param _candidateName Name of new candidate\r\n    @param _partyId ID of a registered party\r\n    */\r\n    function registerCandidate(\r\n        string _constituencyCode,\r\n        string _candidateName,\r\n        uint _partyId) onlyOwner() public isExistingConstituency(_constituencyCode) isValidParty(_partyId) {\r\n\r\n        uint candidateId = candidates.length;\r\n        candidateToParty[candidateId] = _partyId;\r\n        candidateToConstituency[candidateId] = _constituencyCode;\r\n        constituencies[_constituencyCode].candidates.push(candidateId);\r\n        Candidate memory candidate = Candidate(candidateId, 0, 0, _candidateName, true);\r\n        candidates.push(candidate);\r\n\r\n    }\r\n\r\n    /**\r\n    @notice Initialises a new constituency\r\n    @dev -\r\n    @param _constituencyType Type of constituency\r\n    @param _constituencyCode Code of constituency\r\n    @param _constituencyName Name of constituency\r\n    */\r\n    function initiateConstituency(\r\n        uint _constituencyType,\r\n        string _constituencyCode,\r\n        string _constituencyName) public isValidConstituencyType(_constituencyType) {\r\n\r\n        constituencies[_constituencyCode].initiated = true;\r\n        constituencies[_constituencyCode].numVotes = 0;\r\n        constituencies[_constituencyCode].constituencyName = _constituencyName;\r\n        constituencies[_constituencyCode].constituencyType = ConstituencyType(_constituencyType);\r\n    }\r\n\r\n    //TODO Cannot pass empty array as argument\r\n    /**\r\n    @notice Votes for federal constituency and state constituency candidates\r\n    @dev -\r\n    @param _voterNonce Nonce of voter\r\n    @param _federalCandidateVote Array of voted federal constituency candidates\r\n    @param _stateCandidateVote Array of voted state constituency candidates\r\n    */\r\n    function vote(\r\n        string _voterNonce,\r\n        uint[] _federalCandidateVote,\r\n        uint[] _stateCandidateVote) public onlyOwner() hasNotVoted(_voterNonce) {\r\n\r\n        uint federalCandidateId = _federalCandidateVote[0];\r\n        uint stateCandidateId = _stateCandidateVote[0];\r\n\r\n        totalVotes++;\r\n        constituencies[candidateToConstituency[federalCandidateId]].numVotes++;\r\n        constituencies[candidateToConstituency[stateCandidateId]].numVotes++;\r\n        votes[_voterNonce].hasVoted = true;\r\n\r\n        if (isValidVote(_federalCandidateVote)) {\r\n            votes[_voterNonce].validFederalVote = true;\r\n            votes[_voterNonce].federalCandidateVote = federalCandidateId;\r\n            candidates[federalCandidateId].numVotesFederal++;\r\n        }\r\n\r\n        if (isValidVote(_stateCandidateVote)) {\r\n            votes[_voterNonce].validStateVote = true;\r\n            votes[_voterNonce].stateCandidateVote = stateCandidateId;\r\n            candidates[stateCandidateId].numVotesState++;\r\n        }\r\n    }\r\n\r\n    /**\r\n    @notice Checks if the vote is valid\r\n    @dev -\r\n    @param _vote Array of voted constituency candidates\r\n    @return Validity of the vote\r\n    */\r\n    function isValidVote(uint[] _vote) public pure returns (bool){\r\n        bool validity = false;\r\n\r\n        if (_vote.length == 1) {\r\n            validity = true;\r\n        }\r\n\r\n        return validity;\r\n    }\r\n\r\n    /**\r\n    @notice Invalidates a candidate\r\n    @dev -\r\n    @param _candidateId ID of a candidate\r\n    */\r\n    function invalidateCandidate(uint _candidateId) public onlyOwner() isValidCandidate(_candidateId) {\r\n        candidates[_candidateId].validCandidate = false;\r\n    }\r\n\r\n    /**\r\n    @notice Compares a pair of strings for equality\r\n    @dev -\r\n    @param a First string\r\n    @param b Second string\r\n    @return Equality of the strings\r\n    */\r\n    function compareStrings(string a, string b) public pure returns (bool){\r\n        bytes32 c = keccak256(abi.encodePacked(a));\r\n        bytes32 d = keccak256(abi.encodePacked(b));\r\n\r\n        return c == d;\r\n    }\r\n\r\n    /**\r\n    @dev Getters\r\n    */\r\n    function getParty(uint _partyId) public view returns (string, string){\r\n        string memory name = parties[_partyId].name;\r\n        string memory abbreviation = parties[_partyId].abbreviation;\r\n\r\n        return (name, abbreviation);\r\n    }\r\n\r\n    function getCandidate(uint _candidateId) public view returns (uint, uint, string, bool, uint, string){\r\n        uint numVotesFederal = candidates[_candidateId].numVotesFederal;\r\n        uint numVotesState = candidates[_candidateId].numVotesState;\r\n        string memory name = candidates[_candidateId].name;\r\n        bool validCandidate = candidates[_candidateId].validCandidate;\r\n        uint party = candidateToParty[_candidateId];\r\n        string memory constituency = candidateToConstituency[_candidateId];\r\n\r\n        return (numVotesFederal, numVotesState, name, validCandidate, party, constituency);\r\n    }\r\n\r\n    function getVoter(string _nonce) public view returns (bool, bool, bool, uint, uint){\r\n        bool hasVoted = votes[_nonce].hasVoted;\r\n        bool validFederalVote = votes[_nonce].validFederalVote;\r\n        bool validStateVote = votes[_nonce].validStateVote;\r\n        uint federalCandidateVote = votes[_nonce].federalCandidateVote;\r\n        uint stateCandidateVote = votes[_nonce].stateCandidateVote;\r\n\r\n        return (hasVoted, validFederalVote, validStateVote, federalCandidateVote, stateCandidateVote);\r\n    }\r\n\r\n    function getConstituency(string _constituencyCode) public view returns (bool, uint, uint[], string, ConstituencyType){\r\n        bool initiated = constituencies[_constituencyCode].initiated;\r\n        uint numVotes = constituencies[_constituencyCode].numVotes;\r\n        uint[] memory constituencyCandidates = constituencies[_constituencyCode].candidates;\r\n        string memory constituencyName = constituencies[_constituencyCode].constituencyName;\r\n        ConstituencyType constituencyType = constituencies[_constituencyCode].constituencyType;\r\n\r\n        return (initiated, numVotes, constituencyCandidates, constituencyName, constituencyType);\r\n    }\r\n}\r\n",
  "sourcePath": "D:\\blockchain\\contracts\\Election.sol",
  "compiler": {
    "name": "solc",
    "version": "0.4.24+commit.e67f0147.Emscripten.clang"
  },
  "schemaVersion": "2.0.0",
  "updatedAt": "2018-07-07T16:00:19.842Z"
}