{
  "contractName": "Election",
  "abi": [
    {
      "constant": false,
      "inputs": [],
      "name": "renounceOwnership",
      "outputs": [],
      "payable": false,
      "stateMutability": "nonpayable",
      "type": "function"
    },
    {
      "constant": true,
      "inputs": [],
      "name": "owner",
      "outputs": [
        {
          "name": "",
          "type": "address"
        }
      ],
      "payable": false,
      "stateMutability": "view",
      "type": "function"
    },
    {
      "constant": false,
      "inputs": [
        {
          "name": "_newOwner",
          "type": "address"
        }
      ],
      "name": "transferOwnership",
      "outputs": [],
      "payable": false,
      "stateMutability": "nonpayable",
      "type": "function"
    },
    {
      "inputs": [],
      "payable": false,
      "stateMutability": "nonpayable",
      "type": "constructor"
    },
    {
      "anonymous": false,
      "inputs": [
        {
          "indexed": false,
          "name": "constituencyCode",
          "type": "string"
        },
        {
          "indexed": false,
          "name": "constituencyName",
          "type": "string"
        },
        {
          "indexed": false,
          "name": "constituencyType",
          "type": "uint256"
        }
      ],
      "name": "NewConstituency",
      "type": "event"
    },
    {
      "anonymous": false,
      "inputs": [
        {
          "indexed": false,
          "name": "partyId",
          "type": "uint256"
        },
        {
          "indexed": false,
          "name": "name",
          "type": "string"
        },
        {
          "indexed": false,
          "name": "abbreviation",
          "type": "string"
        }
      ],
      "name": "NewParty",
      "type": "event"
    },
    {
      "anonymous": false,
      "inputs": [
        {
          "indexed": false,
          "name": "candidateId",
          "type": "uint256"
        },
        {
          "indexed": false,
          "name": "name",
          "type": "string"
        },
        {
          "indexed": false,
          "name": "partyId",
          "type": "uint256"
        },
        {
          "indexed": false,
          "name": "constituencyCode",
          "type": "string"
        }
      ],
      "name": "NewCandidate",
      "type": "event"
    },
    {
      "anonymous": false,
      "inputs": [
        {
          "indexed": false,
          "name": "validFederalVote",
          "type": "bool"
        },
        {
          "indexed": false,
          "name": "validStateVote",
          "type": "bool"
        },
        {
          "indexed": false,
          "name": "federalCandidateId",
          "type": "uint256"
        },
        {
          "indexed": false,
          "name": "stateCandidateIds",
          "type": "uint256"
        }
      ],
      "name": "NewVote",
      "type": "event"
    },
    {
      "anonymous": false,
      "inputs": [
        {
          "indexed": true,
          "name": "previousOwner",
          "type": "address"
        }
      ],
      "name": "OwnershipRenounced",
      "type": "event"
    },
    {
      "anonymous": false,
      "inputs": [
        {
          "indexed": true,
          "name": "previousOwner",
          "type": "address"
        },
        {
          "indexed": true,
          "name": "newOwner",
          "type": "address"
        }
      ],
      "name": "OwnershipTransferred",
      "type": "event"
    },
    {
      "constant": false,
      "inputs": [
        {
          "name": "_constituencyType",
          "type": "uint256"
        },
        {
          "name": "_constituencyCode",
          "type": "string"
        },
        {
          "name": "_constituencyName",
          "type": "string"
        }
      ],
      "name": "initialiseConstituency",
      "outputs": [],
      "payable": false,
      "stateMutability": "nonpayable",
      "type": "function"
    },
    {
      "constant": false,
      "inputs": [
        {
          "name": "_partyName",
          "type": "string"
        },
        {
          "name": "_partyAbbreviation",
          "type": "string"
        }
      ],
      "name": "registerParty",
      "outputs": [],
      "payable": false,
      "stateMutability": "nonpayable",
      "type": "function"
    },
    {
      "constant": false,
      "inputs": [
        {
          "name": "_constituencyCode",
          "type": "string"
        },
        {
          "name": "_candidateName",
          "type": "string"
        },
        {
          "name": "_partyId",
          "type": "uint256"
        }
      ],
      "name": "registerCandidate",
      "outputs": [],
      "payable": false,
      "stateMutability": "nonpayable",
      "type": "function"
    },
    {
      "constant": false,
      "inputs": [
        {
          "name": "_voterNonce",
          "type": "string"
        },
        {
          "name": "_federalCandidateVote",
          "type": "uint256[]"
        },
        {
          "name": "_stateCandidateVote",
          "type": "uint256[]"
        }
      ],
      "name": "vote",
      "outputs": [],
      "payable": false,
      "stateMutability": "nonpayable",
      "type": "function"
    },
    {
      "constant": true,
      "inputs": [
        {
          "name": "_vote",
          "type": "uint256[]"
        }
      ],
      "name": "isValidVote",
      "outputs": [
        {
          "name": "",
          "type": "bool"
        }
      ],
      "payable": false,
      "stateMutability": "pure",
      "type": "function"
    },
    {
      "constant": false,
      "inputs": [
        {
          "name": "_candidateId",
          "type": "uint256"
        }
      ],
      "name": "invalidateCandidate",
      "outputs": [],
      "payable": false,
      "stateMutability": "nonpayable",
      "type": "function"
    },
    {
      "constant": true,
      "inputs": [
        {
          "name": "a",
          "type": "string"
        },
        {
          "name": "b",
          "type": "string"
        }
      ],
      "name": "compareStrings",
      "outputs": [
        {
          "name": "",
          "type": "bool"
        }
      ],
      "payable": false,
      "stateMutability": "pure",
      "type": "function"
    },
    {
      "constant": true,
      "inputs": [
        {
          "name": "_constituencyCode",
          "type": "string"
        }
      ],
      "name": "getConstituency",
      "outputs": [
        {
          "name": "",
          "type": "bool"
        },
        {
          "name": "",
          "type": "uint256"
        },
        {
          "name": "",
          "type": "uint256[]"
        },
        {
          "name": "",
          "type": "string"
        },
        {
          "name": "",
          "type": "uint8"
        }
      ],
      "payable": false,
      "stateMutability": "view",
      "type": "function"
    },
    {
      "constant": true,
      "inputs": [
        {
          "name": "_partyId",
          "type": "uint256"
        }
      ],
      "name": "getParty",
      "outputs": [
        {
          "name": "",
          "type": "string"
        },
        {
          "name": "",
          "type": "string"
        }
      ],
      "payable": false,
      "stateMutability": "view",
      "type": "function"
    },
    {
      "constant": true,
      "inputs": [
        {
          "name": "_candidateId",
          "type": "uint256"
        }
      ],
      "name": "getCandidate",
      "outputs": [
        {
          "name": "",
          "type": "uint256"
        },
        {
          "name": "",
          "type": "string"
        },
        {
          "name": "",
          "type": "bool"
        },
        {
          "name": "",
          "type": "uint256"
        },
        {
          "name": "",
          "type": "string"
        }
      ],
      "payable": false,
      "stateMutability": "view",
      "type": "function"
    },
    {
      "constant": true,
      "inputs": [
        {
          "name": "_hash",
          "type": "string"
        }
      ],
      "name": "getVoter",
      "outputs": [
        {
          "name": "",
          "type": "bool"
        },
        {
          "name": "",
          "type": "bool"
        },
        {
          "name": "",
          "type": "bool"
        },
        {
          "name": "",
          "type": "uint256"
        },
        {
          "name": "",
          "type": "uint256"
        }
      ],
      "payable": false,
      "stateMutability": "view",
      "type": "function"
    },
    {
      "constant": true,
      "inputs": [],
      "name": "getPartiesLength",
      "outputs": [
        {
          "name": "",
          "type": "uint256"
        }
      ],
      "payable": false,
      "stateMutability": "view",
      "type": "function"
    }
  ],
  "bytecode": "0x608060405234801561001057600080fd5b50336000806101000a81548173ffffffffffffffffffffffffffffffffffffffff021916908373ffffffffffffffffffffffffffffffffffffffff1602179055506000600181905550612a6a806100686000396000f3006080604052600436106100db576000357c0100000000000000000000000000000000000000000000000000000000900463ffffffff16806314a0069a146100e0578063346d1abb1461018557806335b8e820146102d65780635aba642614610401578063715018a6146104b05780638814a750146104c75780638baf519b146105805780638da5cb5b146106395780639475821814610690578063bed34bba146107a2578063e2829f0c14610869578063e8b614c014610896578063ea0dc636146108c1578063f2fde38b146109b0578063fea6c477146109f3575b600080fd5b3480156100ec57600080fd5b50610147600480360381019080803590602001908201803590602001908080601f0160208091040260200160405190810160405280939291908181526020018383808284378201915050505050509192919290505050610a71565b604051808615151515815260200185151515158152602001841515151581526020018381526020018281526020019550505050505060405180910390f35b34801561019157600080fd5b506101ec600480360381019080803590602001908201803590602001908080601f0160208091040260200160405190810160405280939291908181526020018383808284378201915050505050509192919290505050610cf9565b6040518086151515158152602001858152602001806020018060200184600181111561021457fe5b60ff168152602001838103835286818151815260200191508051906020019060200280838360005b8381101561025757808201518184015260208101905061023c565b50505050905001838103825285818151815260200191508051906020019080838360005b8381101561029657808201518184015260208101905061027b565b50505050905090810190601f1680156102c35780820380516001836020036101000a031916815260200191505b5097505050505050505060405180910390f35b3480156102e257600080fd5b506103016004803603810190808035906020019092919050505061105b565b60405180868152602001806020018515151515815260200184815260200180602001838103835287818151815260200191508051906020019080838360005b8381101561035b578082015181840152602081019050610340565b50505050905090810190601f1680156103885780820380516001836020036101000a031916815260200191505b50838103825284818151815260200191508051906020019080838360005b838110156103c15780820151818401526020810190506103a6565b50505050905090810190601f1680156103ee5780820380516001836020036101000a031916815260200191505b5097505050505050505060405180910390f35b34801561040d57600080fd5b506104ae600480360381019080803590602001908201803590602001908080601f0160208091040260200160405190810160405280939291908181526020018383808284378201915050505050509192919290803590602001908201803590602001908080601f016020809104026020016040519081016040528093929190818152602001838380828437820191505050505050919291929050505061125c565b005b3480156104bc57600080fd5b506104c561156b565b005b3480156104d357600080fd5b5061057e60048036038101908080359060200190929190803590602001908201803590602001908080601f0160208091040260200160405190810160405280939291908181526020018383808284378201915050505050509192919290803590602001908201803590602001908080601f016020809104026020016040519081016040528093929190818152602001838380828437820191505050505050919291929050505061166d565b005b34801561058c57600080fd5b50610637600480360381019080803590602001908201803590602001908080601f0160208091040260200160405190810160405280939291908181526020018383808284378201915050505050509192919290803590602001908201803590602001908080601f0160208091040260200160405190810160405280939291908181526020018383808284378201915050505050509192919290803590602001909291905050506119b7565b005b34801561064557600080fd5b5061064e611d64565b604051808273ffffffffffffffffffffffffffffffffffffffff1673ffffffffffffffffffffffffffffffffffffffff16815260200191505060405180910390f35b34801561069c57600080fd5b506106bb60048036038101908080359060200190929190505050611d89565b604051808060200180602001838103835285818151815260200191508051906020019080838360005b838110156106ff5780820151818401526020810190506106e4565b50505050905090810190601f16801561072c5780820380516001836020036101000a031916815260200191505b50838103825284818151815260200191508051906020019080838360005b8381101561076557808201518184015260208101905061074a565b50505050905090810190601f1680156107925780820380516001836020036101000a031916815260200191505b5094505050505060405180910390f35b3480156107ae57600080fd5b5061084f600480360381019080803590602001908201803590602001908080601f0160208091040260200160405190810160405280939291908181526020018383808284378201915050505050509192919290803590602001908201803590602001908080601f0160208091040260200160405190810160405280939291908181526020018383808284378201915050505050509192919290505050611f12565b604051808215151515815260200191505060405180910390f35b34801561087557600080fd5b50610894600480360381019080803590602001909291905050506120ce565b005b3480156108a257600080fd5b506108ab61217a565b6040518082815260200191505060405180910390f35b3480156108cd57600080fd5b506109ae600480360381019080803590602001908201803590602001908080601f01602080910402602001604051908101604052809392919081815260200183838082843782019150505050505091929192908035906020019082018035906020019080806020026020016040519081016040528093929190818152602001838360200280828437820191505050505050919291929080359060200190820180359060200190808060200260200160405190810160405280939291908181526020018383602002808284378201915050505050509192919290505050612187565b005b3480156109bc57600080fd5b506109f1600480360381019080803573ffffffffffffffffffffffffffffffffffffffff16906020019092919050505061274c565b005b3480156109ff57600080fd5b50610a57600480360381019080803590602001908201803590602001908080602002602001604051908101604052809392919081815260200183836020028082843782019150505050505091929192905050506127b3565b604051808215151515815260200191505060405180910390f35b60008060008060008060008060008060048b6040518082805190602001908083835b602083101515610ab85780518252602082019150602081019050602083039250610a93565b6001836020036101000a038019825116818451168082178552505050505050905001915050908152602001604051809103902060000160009054906101000a900460ff16945060048b6040518082805190602001908083835b602083101515610b365780518252602082019150602081019050602083039250610b11565b6001836020036101000a038019825116818451168082178552505050505050905001915050908152602001604051809103902060000160019054906101000a900460ff16935060048b6040518082805190602001908083835b602083101515610bb45780518252602082019150602081019050602083039250610b8f565b6001836020036101000a038019825116818451168082178552505050505050905001915050908152602001604051809103902060000160029054906101000a900460ff16925060048b6040518082805190602001908083835b602083101515610c325780518252602082019150602081019050602083039250610c0d565b6001836020036101000a038019825116818451168082178552505050505050905001915050908152602001604051809103902060010154915060048b6040518082805190602001908083835b602083101515610ca35780518252602082019150602081019050602083039250610c7e565b6001836020036101000a0380198251168184511680821785525050505050509050019150509081526020016040518091039020600201549050848484848499509950995099509950505050505091939590929450565b6000806060806000806000606080600060058b6040518082805190602001908083835b602083101515610d415780518252602082019150602081019050602083039250610d1c565b6001836020036101000a038019825116818451168082178552505050505050905001915050908152602001604051809103902060000160009054906101000a900460ff16945060058b6040518082805190602001908083835b602083101515610dbf5780518252602082019150602081019050602083039250610d9a565b6001836020036101000a038019825116818451168082178552505050505050905001915050908152602001604051809103902060010154935060058b6040518082805190602001908083835b602083101515610e305780518252602082019150602081019050602083039250610e0b565b6001836020036101000a0380198251168184511680821785525050505050509050019150509081526020016040518091039020600201805480602002602001604051908101604052809291908181526020018280548015610eb057602002820191906000526020600020905b815481526020019060010190808311610e9c575b5050505050925060058b6040518082805190602001908083835b602083101515610eef5780518252602082019150602081019050602083039250610eca565b6001836020036101000a03801982511681845116808217855250505050505090500191505090815260200160405180910390206003018054600181600116156101000203166002900480601f016020809104026020016040519081016040528092919081815260200182805460018160011615610100020316600290048015610fb95780601f10610f8e57610100808354040283529160200191610fb9565b820191906000526020600020905b815481529060010190602001808311610f9c57829003601f168201915b5050505050915060058b6040518082805190602001908083835b602083101515610ff85780518252602082019150602081019050602083039250610fd3565b6001836020036101000a038019825116818451168082178552505050505050905001915050908152602001604051809103902060040160009054906101000a900460ff169050848484848499509950995099509950505050505091939590929450565b60006060600080606060006060600080606060038b81548110151561107c57fe5b906000526020600020906004020160010154945060038b81548110151561109f57fe5b90600052602060002090600402016002018054600181600116156101000203166002900480601f0160208091040260200160405190810160405280929190818152602001828054600181600116156101000203166002900480156111445780601f1061111957610100808354040283529160200191611144565b820191906000526020600020905b81548152906001019060200180831161112757829003601f168201915b5050505050935060038b81548110151561115a57fe5b906000526020600020906004020160030160009054906101000a900460ff169250600660008c8152602001908152602001600020549150600760008c81526020019081526020016000208054600181600116156101000203166002900480601f0160208091040260200160405190810160405280929190818152602001828054600181600116156101000203166002900480156112385780601f1061120d57610100808354040283529160200191611238565b820191906000526020600020905b81548152906001019060200180831161121b57829003601f168201915b50505050509050848484848499509950995099509950505050505091939590929450565b60006112666128cc565b6000809054906101000a900473ffffffffffffffffffffffffffffffffffffffff1673ffffffffffffffffffffffffffffffffffffffff163373ffffffffffffffffffffffffffffffffffffffff161415156112c157600080fd5b8360008090505b6002805490508110156113b7576001151561139b6002838154811015156112eb57fe5b90600052602060002090600302016001018054600181600116156101000203166002900480601f0160208091040260200160405190810160405280929190818152602001828054600181600116156101000203166002900480156113905780601f1061136557610100808354040283529160200191611390565b820191906000526020600020905b81548152906001019060200180831161137357829003601f168201915b505050505084611f12565b1515141515156113aa57600080fd5b80806001019150506112c8565b6002805490509350606060405190810160405280858152602001878152602001868152509250600283908060018154018082558091505090600182039060005260206000209060030201600090919290919091506000820151816000015560208201518160010190805190602001906114319291906128ee565b50604082015181600201908051906020019061144e9291906128ee565b505050507f6b5e05b65b7ac7c7ebb8fc390a2b432a34236868c2fa629ef097f1f65cad374c848787604051808481526020018060200180602001838103835285818151815260200191508051906020019080838360005b838110156114c05780820151818401526020810190506114a5565b50505050905090810190601f1680156114ed5780820380516001836020036101000a031916815260200191505b50838103825284818151815260200191508051906020019080838360005b8381101561152657808201518184015260208101905061150b565b50505050905090810190601f1680156115535780820380516001836020036101000a031916815260200191505b509550505050505060405180910390a1505050505050565b6000809054906101000a900473ffffffffffffffffffffffffffffffffffffffff1673ffffffffffffffffffffffffffffffffffffffff163373ffffffffffffffffffffffffffffffffffffffff161415156115c657600080fd5b6000809054906101000a900473ffffffffffffffffffffffffffffffffffffffff1673ffffffffffffffffffffffffffffffffffffffff167ff8df31144d9c2f0f6b59d69b8b98abd5459d07f2742c4df920b25aae33c6482060405160405180910390a260008060006101000a81548173ffffffffffffffffffffffffffffffffffffffff021916908373ffffffffffffffffffffffffffffffffffffffff160217905550565b828060018081111561167b57fe5b1015151561168857600080fd5b60016005846040518082805190602001908083835b6020831015156116c2578051825260208201915060208101905060208303925061169d565b6001836020036101000a038019825116818451168082178552505050505050905001915050908152602001604051809103902060000160006101000a81548160ff02191690831515021790555060006005846040518082805190602001908083835b6020831015156117495780518252602082019150602081019050602083039250611724565b6001836020036101000a038019825116818451168082178552505050505050905001915050908152602001604051809103902060010181905550816005846040518082805190602001908083835b6020831015156117bc5780518252602082019150602081019050602083039250611797565b6001836020036101000a0380198251168184511680821785525050505050509050019150509081526020016040518091039020600301908051906020019061180592919061296e565b5083600181111561181257fe5b6005846040518082805190602001908083835b60208310151561184a5780518252602082019150602081019050602083039250611825565b6001836020036101000a038019825116818451168082178552505050505050905001915050908152602001604051809103902060040160006101000a81548160ff0219169083600181111561189b57fe5b02179055507fbaf4186dbf124d51d3d5272d22a0a197f482d4ad6ddcc6e9cd6068d1dc5119ee838386604051808060200180602001848152602001838103835286818151815260200191508051906020019080838360005b8381101561190e5780820151818401526020810190506118f3565b50505050905090810190601f16801561193b5780820380516001836020036101000a031916815260200191505b50838103825285818151815260200191508051906020019080838360005b83811015611974578082015181840152602081019050611959565b50505050905090810190601f1680156119a15780820380516001836020036101000a031916815260200191505b509550505050505060405180910390a150505050565b60006119c16129ee565b6000809054906101000a900473ffffffffffffffffffffffffffffffffffffffff1673ffffffffffffffffffffffffffffffffffffffff163373ffffffffffffffffffffffffffffffffffffffff16141515611a1c57600080fd5b846005816040518082805190602001908083835b602083101515611a555780518252602082019150602081019050602083039250611a30565b6001836020036101000a038019825116818451168082178552505050505050905001915050908152602001604051809103902060000160009054906101000a900460ff161515611aa457600080fd5b8380600280549050111515611ab857600080fd5b600380549050935084600660008681526020019081526020016000208190555086600760008681526020019081526020016000209080519060200190611aff92919061296e565b506005876040518082805190602001908083835b602083101515611b385780518252602082019150602081019050602083039250611b13565b6001836020036101000a0380198251168184511680821785525050505050509050019150509081526020016040518091039020600201849080600181540180825580915050906001820390600052602060002001600090919290919091505550608060405190810160405280858152602001600081526020018781526020016001151581525092506003839080600181540180825580915050906001820390600052602060002090600402016000909192909190915060008201518160000155602082015181600101556040820151816002019080519060200190611c1e9291906128ee565b5060608201518160030160006101000a81548160ff0219169083151502179055505050507f7ad7340cee529d5bc921bee9878a9fc350ef15fce83d89da3bbff69c953129658487878a604051808581526020018060200184815260200180602001838103835286818151815260200191508051906020019080838360005b83811015611cb7578082015181840152602081019050611c9c565b50505050905090810190601f168015611ce45780820380516001836020036101000a031916815260200191505b50838103825284818151815260200191508051906020019080838360005b83811015611d1d578082015181840152602081019050611d02565b50505050905090810190601f168015611d4a5780820380516001836020036101000a031916815260200191505b50965050505050505060405180910390a150505050505050565b6000809054906101000a900473ffffffffffffffffffffffffffffffffffffffff1681565b606080606080600285815481101515611d9e57fe5b90600052602060002090600302016001018054600181600116156101000203166002900480601f016020809104026020016040519081016040528092919081815260200182805460018160011615610100020316600290048015611e435780601f10611e1857610100808354040283529160200191611e43565b820191906000526020600020905b815481529060010190602001808311611e2657829003601f168201915b50505050509150600285815481101515611e5957fe5b90600052602060002090600302016002018054600181600116156101000203166002900480601f016020809104026020016040519081016040528092919081815260200182805460018160011615610100020316600290048015611efe5780601f10611ed357610100808354040283529160200191611efe565b820191906000526020600020905b815481529060010190602001808311611ee157829003601f168201915b505050505090508181935093505050915091565b6000806000846040516020018082805190602001908083835b602083101515611f505780518252602082019150602081019050602083039250611f2b565b6001836020036101000a0380198251168184511680821785525050505050509050019150506040516020818303038152906040526040518082805190602001908083835b602083101515611fb95780518252602082019150602081019050602083039250611f94565b6001836020036101000a03801982511681845116808217855250505050505090500191505060405180910390209150836040516020018082805190602001908083835b6020831015156120215780518252602082019150602081019050602083039250611ffc565b6001836020036101000a0380198251168184511680821785525050505050509050019150506040516020818303038152906040526040518082805190602001908083835b60208310151561208a5780518252602082019150602081019050602083039250612065565b6001836020036101000a0380198251168184511680821785525050505050509050019150506040518091039020905080600019168260001916149250505092915050565b6000809054906101000a900473ffffffffffffffffffffffffffffffffffffffff1673ffffffffffffffffffffffffffffffffffffffff163373ffffffffffffffffffffffffffffffffffffffff1614151561212957600080fd5b808060038054905011151561213d57600080fd5b600060038381548110151561214e57fe5b906000526020600020906004020160030160006101000a81548160ff0219169083151502179055505050565b6000600280549050905090565b6000806000806000809054906101000a900473ffffffffffffffffffffffffffffffffffffffff1673ffffffffffffffffffffffffffffffffffffffff163373ffffffffffffffffffffffffffffffffffffffff161415156121e857600080fd5b86600115156004826040518082805190602001908083835b6020831015156122255780518252602082019150602081019050602083039250612200565b6001836020036101000a038019825116818451168082178552505050505050905001915050908152602001604051809103902060000160009054906101000a900460ff1615151415151561227857600080fd5b86600081518110151561228757fe5b9060200190602002015194508560008151811015156122a257fe5b90602001906020020151935060016000815480929190600101919050555060056007600087815260200190815260200160002060405180828054600181600116156101000203166002900480156123305780601f1061230e576101008083540402835291820191612330565b820191906000526020600020905b81548152906001019060200180831161231c575b505091505090815260200160405180910390206001016000815480929190600101919050555060056007600086815260200190815260200160002060405180828054600181600116156101000203166002900480156123c65780601f106123a45761010080835404028352918201916123c6565b820191906000526020600020905b8154815290600101906020018083116123b2575b505091505090815260200160405180910390206001016000815480929190600101919050555060016004896040518082805190602001908083835b6020831015156124265780518252602082019150602081019050602083039250612401565b6001836020036101000a038019825116818451168082178552505050505050905001915050908152602001604051809103902060000160006101000a81548160ff02191690831515021790555061247c876127b3565b9250612487866127b3565b915082156125ba5760016004896040518082805190602001908083835b6020831015156124c957805182526020820191506020810190506020830392506124a4565b6001836020036101000a038019825116818451168082178552505050505050905001915050908152602001604051809103902060000160016101000a81548160ff021916908315150217905550846004896040518082805190602001908083835b60208310151561254f578051825260208201915060208101905060208303925061252a565b6001836020036101000a03801982511681845116808217855250505050505090500191505090815260200160405180910390206001018190555060038581548110151561259857fe5b9060005260206000209060040201600101600081548092919060010191905055505b81156126eb5760016004896040518082805190602001908083835b6020831015156125fa57805182526020820191506020810190506020830392506125d5565b6001836020036101000a038019825116818451168082178552505050505050905001915050908152602001604051809103902060000160026101000a81548160ff021916908315150217905550836004896040518082805190602001908083835b602083101515612680578051825260208201915060208101905060208303925061265b565b6001836020036101000a0380198251168184511680821785525050505050509050019150509081526020016040518091039020600201819055506003848154811015156126c957fe5b9060005260206000209060040201600101600081548092919060010191905055505b7fffc7a3b56dd8ad84d0d1fffe6fc61b0cdb54a512bb4a4bd5ad2afde95393246e8383878760405180851515151581526020018415151515815260200183815260200182815260200194505050505060405180910390a15050505050505050565b6000809054906101000a900473ffffffffffffffffffffffffffffffffffffffff1673ffffffffffffffffffffffffffffffffffffffff163373ffffffffffffffffffffffffffffffffffffffff161415156127a757600080fd5b6127b0816127d2565b50565b600080600090506001835114156127c957600190505b80915050919050565b600073ffffffffffffffffffffffffffffffffffffffff168173ffffffffffffffffffffffffffffffffffffffff161415151561280e57600080fd5b8073ffffffffffffffffffffffffffffffffffffffff166000809054906101000a900473ffffffffffffffffffffffffffffffffffffffff1673ffffffffffffffffffffffffffffffffffffffff167f8be0079c531659141344cd1fd0a4f28419497f9722a3daafe3b4186f6b6457e060405160405180910390a3806000806101000a81548173ffffffffffffffffffffffffffffffffffffffff021916908373ffffffffffffffffffffffffffffffffffffffff16021790555050565b6060604051908101604052806000815260200160608152602001606081525090565b828054600181600116156101000203166002900490600052602060002090601f016020900481019282601f1061292f57805160ff191683800117855561295d565b8280016001018555821561295d579182015b8281111561295c578251825591602001919060010190612941565b5b50905061296a9190612a19565b5090565b828054600181600116156101000203166002900490600052602060002090601f016020900481019282601f106129af57805160ff19168380011785556129dd565b828001600101855582156129dd579182015b828111156129dc5782518255916020019190600101906129c1565b5b5090506129ea9190612a19565b5090565b6080604051908101604052806000815260200160008152602001606081526020016000151581525090565b612a3b91905b80821115612a37576000816000905550600101612a1f565b5090565b905600a165627a7a72305820be07162f4ab0b741643aa75c9201127a76ede411464481b434a7f26bc34d69af0029",
  "source": "pragma solidity ^0.4.24;\n\nimport \"./Ownable.sol\";\n\n/*\n@title Election smart contract\n@author Clement Tong\n*/\ncontract Election is Ownable {\n    event NewConstituency(string constituencyCode, string constituencyName, uint constituencyType);\n    event NewParty(uint partyId, string name, string abbreviation);\n    event NewCandidate(uint candidateId, string name, uint partyId, string constituencyCode);\n    event NewVote(bool validFederalVote, bool validStateVote, uint federalCandidateId, uint stateCandidateIds);\n\n    enum ConstituencyType {FEDERAL, STATE}\n    uint totalVotes;\n\n    /**\n    @notice Checks if the voter has already voted\n    @dev -\n    @param _voterNonce Nonce of voter\n    */\n    modifier hasNotVoted(string _voterNonce){\n        require(votes[_voterNonce].hasVoted != true);\n        _;\n    }\n\n    /**\n    @notice Checks if the constituency type is valid\n    @dev -\n    @param _constituencyType Type of constituency\n    */\n    modifier isValidConstituencyType(uint _constituencyType){\n        require(uint(ConstituencyType.STATE) >= _constituencyType);\n        _;\n    }\n\n    /**\n    @notice Checks if the constituency already exists\n    @dev -\n    @param _constituencyCode Code of constituency\n    */\n    modifier isExistingConstituency(string _constituencyCode){\n        require(constituencies[_constituencyCode].initialised);\n        _;\n    }\n\n    /**\n    @notice Checks if the party does not exist\n    @dev -\n    @param _partyName Name of party\n    */\n    modifier isNotExistingParty(string _partyName){\n        for (uint x = 0; x < parties.length; x++) {\n            require(compareStrings(parties[x].name, _partyName) != true);\n        }\n        _;\n    }\n\n    /**\n    @notice Checks if the party is valid\n    @dev -\n    @param _partyId ID of a party\n    */\n    modifier isValidParty (uint _partyId){\n        require(parties.length > _partyId);\n        _;\n    }\n\n    /**\n    @notice Checks if the candidate is valid\n    @dev -\n    @param _candidateId ID of a candidate\n    */\n    modifier isValidCandidate(uint _candidateId){\n        require(candidates.length > _candidateId);\n        _;\n    }\n\n    struct Constituency {\n        bool initialised;\n        uint numVotes;\n        uint[] candidates;\n        string constituencyName;\n        ConstituencyType constituencyType;\n    }\n\n    struct Party {\n        uint partyId;\n        string name;\n        string abbreviation;\n    }\n\n    struct Candidate {\n        uint candidateId;\n        uint numVotes;\n        string name;\n        bool validCandidate;\n    }\n\n    struct Voter {\n        bool hasVoted;\n        bool validFederalVote;\n        bool validStateVote;\n        uint federalCandidateVote;\n        uint stateCandidateVote;\n    }\n\n    Party[] parties;\n    Candidate[] candidates;\n\n    mapping(string => Voter) votes;\n    mapping(string => Constituency) constituencies;\n    mapping(uint => uint) candidateToParty;\n    mapping(uint => string) candidateToConstituency;\n\n    constructor() public {\n        totalVotes = 0;\n    }\n\n    /**\n    @notice Initialises a new constituency\n    @dev -\n    @param _constituencyType Type of constituency\n    @param _constituencyCode Code of constituency\n    @param _constituencyName Name of constituency\n    */\n    function initialiseConstituency(\n        uint _constituencyType,\n        string _constituencyCode,\n        string _constituencyName) public isValidConstituencyType(_constituencyType) {\n\n        constituencies[_constituencyCode].initialised = true;\n        constituencies[_constituencyCode].numVotes = 0;\n        constituencies[_constituencyCode].constituencyName = _constituencyName;\n        constituencies[_constituencyCode].constituencyType = ConstituencyType(_constituencyType);\n\n        emit NewConstituency(_constituencyCode, _constituencyName, _constituencyType);\n    }\n\n    /**\n    @notice Registers a new party\n    @dev -\n    @param _partyName Name of party\n    @param _partyAbbreviation Abbreviation of name of party\n    */\n    function registerParty(string _partyName, string _partyAbbreviation) public onlyOwner() isNotExistingParty(_partyName) {\n        uint partyId = parties.length;\n        Party memory party = Party(partyId, _partyName, _partyAbbreviation);\n        parties.push(party);\n\n        emit NewParty(partyId, _partyName, _partyAbbreviation);\n    }\n\n    /**\n    @notice Registers a new candidate\n    @dev -\n    @param _constituencyCode Code of contesting constituency\n    @param _candidateName Name of new candidate\n    @param _partyId ID of a registered party\n    */\n    function registerCandidate(\n        string _constituencyCode,\n        string _candidateName,\n        uint _partyId) onlyOwner() public isExistingConstituency(_constituencyCode) isValidParty(_partyId) {\n\n        uint candidateId = candidates.length;\n        candidateToParty[candidateId] = _partyId;\n        candidateToConstituency[candidateId] = _constituencyCode;\n        constituencies[_constituencyCode].candidates.push(candidateId);\n        Candidate memory candidate = Candidate(candidateId, 0, _candidateName, true);\n        candidates.push(candidate);\n\n        emit NewCandidate(candidateId, _candidateName, _partyId, _constituencyCode);\n    }\n\n    /**\n    @notice Votes for federal constituency and state constituency candidates\n    @dev Pass in dummy array if no candidate(s) is/are selected; function does not accept empty arrays\n    @param _voterNonce Nonce of voter\n    @param _federalCandidateVote Array of voted federal constituency candidates\n    @param _stateCandidateVote Array of voted state constituency candidates\n    */\n    function vote(\n        string _voterNonce,\n        uint[] _federalCandidateVote,\n        uint[] _stateCandidateVote) public onlyOwner() hasNotVoted(_voterNonce) {\n\n        uint federalCandidateId = _federalCandidateVote[0];\n        uint stateCandidateId = _stateCandidateVote[0];\n\n        totalVotes++;\n        constituencies[candidateToConstituency[federalCandidateId]].numVotes++;\n        constituencies[candidateToConstituency[stateCandidateId]].numVotes++;\n        votes[_voterNonce].hasVoted = true;\n\n        bool validFederalVote = isValidVote(_federalCandidateVote);\n        bool validStateVote = isValidVote(_stateCandidateVote);\n\n        if (validFederalVote) {\n            votes[_voterNonce].validFederalVote = true;\n            votes[_voterNonce].federalCandidateVote = federalCandidateId;\n            candidates[federalCandidateId].numVotes++;\n        }\n\n        if (validStateVote) {\n            votes[_voterNonce].validStateVote = true;\n            votes[_voterNonce].stateCandidateVote = stateCandidateId;\n            candidates[stateCandidateId].numVotes++;\n        }\n\n        emit NewVote(validFederalVote, validStateVote, federalCandidateId, stateCandidateId);\n    }\n\n    /**\n    @notice Checks if the vote is valid\n    @dev -\n    @param _vote Array of voted constituency candidates\n    @return Validity of the vote\n    */\n    function isValidVote(uint[] _vote) public pure returns (bool){\n        bool validity = false;\n\n        if (_vote.length == 1) {\n            validity = true;\n        }\n\n        return validity;\n    }\n\n    /**\n    @notice Invalidates a candidate\n    @dev -\n    @param _candidateId ID of a candidate\n    */\n    function invalidateCandidate(uint _candidateId) public onlyOwner() isValidCandidate(_candidateId) {\n        candidates[_candidateId].validCandidate = false;\n    }\n\n    /**\n    @notice Compares a pair of strings for equality\n    @dev -\n    @param a First string\n    @param b Second string\n    @return Equality of the strings\n    */\n    function compareStrings(string a, string b) public pure returns (bool){\n        bytes32 c = keccak256(abi.encodePacked(a));\n        bytes32 d = keccak256(abi.encodePacked(b));\n\n        return c == d;\n    }\n\n    /**\n    @dev Getters\n    */\n    function getConstituency(string _constituencyCode) public view returns (bool, uint, uint[], string, ConstituencyType){\n        bool initialised = constituencies[_constituencyCode].initialised;\n        uint numVotes = constituencies[_constituencyCode].numVotes;\n        uint[] memory constituencyCandidates = constituencies[_constituencyCode].candidates;\n        string memory constituencyName = constituencies[_constituencyCode].constituencyName;\n        ConstituencyType constituencyType = constituencies[_constituencyCode].constituencyType;\n\n        return (initialised, numVotes, constituencyCandidates, constituencyName, constituencyType);\n    }\n\n    function getParty(uint _partyId) public view returns (string, string){\n        string memory name = parties[_partyId].name;\n        string memory abbreviation = parties[_partyId].abbreviation;\n\n        return (name, abbreviation);\n    }\n\n    function getCandidate(uint _candidateId) public view returns (uint, string, bool, uint, string){\n        uint numVotes = candidates[_candidateId].numVotes;\n        string memory name = candidates[_candidateId].name;\n        bool validCandidate = candidates[_candidateId].validCandidate;\n        uint party = candidateToParty[_candidateId];\n        string memory constituency = candidateToConstituency[_candidateId];\n\n        return (numVotes, name, validCandidate, party, constituency);\n    }\n\n    function getVoter(string _hash) public view returns (bool, bool, bool, uint, uint){\n        bool hasVoted = votes[_hash].hasVoted;\n        bool validFederalVote = votes[_hash].validFederalVote;\n        bool validStateVote = votes[_hash].validStateVote;\n        uint federalCandidateVote = votes[_hash].federalCandidateVote;\n        uint stateCandidateVote = votes[_hash].stateCandidateVote;\n\n        return (hasVoted, validFederalVote, validStateVote, federalCandidateVote, stateCandidateVote);\n    }\n\n    function getPartiesLength() public view returns (uint){\n        return parties.length;\n    }\n}\n",
  "sourcePath": "D:\\blockchain-laravel\\contracts\\Election.sol",
  "compiler": {
    "name": "solc",
    "version": "0.4.24+commit.e67f0147.Emscripten.clang"
  },
  "schemaVersion": "2.0.0",
  "updatedAt": "2018-07-28T09:36:15.914Z"
}