{
  "contractName": "MasterConstituency",
  "abi": [
    {
      "constant": false,
      "inputs": [],
      "name": "renounceOwnership",
      "outputs": [],
      "payable": false,
      "stateMutability": "nonpayable",
      "type": "function"
    },
    {
      "constant": true,
      "inputs": [],
      "name": "owner",
      "outputs": [
        {
          "name": "",
          "type": "address"
        }
      ],
      "payable": false,
      "stateMutability": "view",
      "type": "function"
    },
    {
      "constant": false,
      "inputs": [
        {
          "name": "_newOwner",
          "type": "address"
        }
      ],
      "name": "transferOwnership",
      "outputs": [],
      "payable": false,
      "stateMutability": "nonpayable",
      "type": "function"
    },
    {
      "anonymous": false,
      "inputs": [
        {
          "indexed": true,
          "name": "previousOwner",
          "type": "address"
        }
      ],
      "name": "OwnershipRenounced",
      "type": "event"
    },
    {
      "anonymous": false,
      "inputs": [
        {
          "indexed": true,
          "name": "previousOwner",
          "type": "address"
        },
        {
          "indexed": true,
          "name": "newOwner",
          "type": "address"
        }
      ],
      "name": "OwnershipTransferred",
      "type": "event"
    },
    {
      "constant": false,
      "inputs": [
        {
          "name": "_constituencyType",
          "type": "uint256"
        },
        {
          "name": "_constituencyCode",
          "type": "string"
        },
        {
          "name": "_constituencyName",
          "type": "string"
        }
      ],
      "name": "initialiseConstituency",
      "outputs": [
        {
          "name": "",
          "type": "address"
        }
      ],
      "payable": false,
      "stateMutability": "nonpayable",
      "type": "function"
    },
    {
      "constant": false,
      "inputs": [
        {
          "name": "_name",
          "type": "string"
        },
        {
          "name": "_abbreviation",
          "type": "string"
        }
      ],
      "name": "registerParty",
      "outputs": [],
      "payable": false,
      "stateMutability": "nonpayable",
      "type": "function"
    },
    {
      "constant": true,
      "inputs": [
        {
          "name": "_constituencyCode",
          "type": "string"
        }
      ],
      "name": "getConstituencyAddress",
      "outputs": [
        {
          "name": "",
          "type": "address"
        }
      ],
      "payable": false,
      "stateMutability": "view",
      "type": "function"
    },
    {
      "constant": true,
      "inputs": [
        {
          "name": "a",
          "type": "string"
        },
        {
          "name": "b",
          "type": "string"
        }
      ],
      "name": "compareStrings",
      "outputs": [
        {
          "name": "",
          "type": "bool"
        }
      ],
      "payable": false,
      "stateMutability": "pure",
      "type": "function"
    }
  ],
  "bytecode": "0x6080604052336000806101000a81548173ffffffffffffffffffffffffffffffffffffffff021916908373ffffffffffffffffffffffffffffffffffffffff160217905550611414806100536000396000f300608060405260043610610083576000357c0100000000000000000000000000000000000000000000000000000000900463ffffffff1680635aba642614610088578063715018a6146101375780638814a7501461014e5780638da5cb5b14610247578063b103e46a1461029e578063bed34bba14610347578063f2fde38b1461040e575b600080fd5b34801561009457600080fd5b50610135600480360381019080803590602001908201803590602001908080601f0160208091040260200160405190810160405280939291908181526020018383808284378201915050505050509192919290803590602001908201803590602001908080601f0160208091040260200160405190810160405280939291908181526020018383808284378201915050505050509192919290505050610451565b005b34801561014357600080fd5b5061014c61061e565b005b34801561015a57600080fd5b5061020560048036038101908080359060200190929190803590602001908201803590602001908080601f0160208091040260200160405190810160405280939291908181526020018383808284378201915050505050509192919290803590602001908201803590602001908080601f0160208091040260200160405190810160405280939291908181526020018383808284378201915050505050509192919290505050610720565b604051808273ffffffffffffffffffffffffffffffffffffffff1673ffffffffffffffffffffffffffffffffffffffff16815260200191505060405180910390f35b34801561025357600080fd5b5061025c6108ee565b604051808273ffffffffffffffffffffffffffffffffffffffff1673ffffffffffffffffffffffffffffffffffffffff16815260200191505060405180910390f35b3480156102aa57600080fd5b50610305600480360381019080803590602001908201803590602001908080601f0160208091040260200160405190810160405280939291908181526020018383808284378201915050505050509192919290505050610913565b604051808273ffffffffffffffffffffffffffffffffffffffff1673ffffffffffffffffffffffffffffffffffffffff16815260200191505060405180910390f35b34801561035357600080fd5b506103f4600480360381019080803590602001908201803590602001908080601f0160208091040260200160405190810160405280939291908181526020018383808284378201915050505050509192919290803590602001908201803590602001908080601f01602080910402602001604051908101604052809392919081815260200183838082843782019150505050505091929192905050506109a8565b604051808215151515815260200191505060405180910390f35b34801561041a57600080fd5b5061044f600480360381019080803573ffffffffffffffffffffffffffffffffffffffff169060200190929190505050610b64565b005b6000809054906101000a900473ffffffffffffffffffffffffffffffffffffffff1673ffffffffffffffffffffffffffffffffffffffff163373ffffffffffffffffffffffffffffffffffffffff161415156104ac57600080fd5b8160008090505b600380549050811015610599576105826003828154811015156104d257fe5b90600052602060002090600202016000018054600181600116156101000203166002900480601f0160208091040260200160405190810160405280929190818152602001828054600181600116156101000203166002900480156105775780601f1061054c57610100808354040283529160200191610577565b820191906000526020600020905b81548152906001019060200180831161055a57829003601f168201915b5050505050836109a8565b1561058c57600080fd5b80806001019150506104b3565b60036040805190810160405280868152602001858152509080600181540180825580915050906001820390600052602060002090600202016000909192909190915060008201518160000190805190602001906105f7929190610cc5565b506020820151816001019080519060200190610614929190610cc5565b5050505050505050565b6000809054906101000a900473ffffffffffffffffffffffffffffffffffffffff1673ffffffffffffffffffffffffffffffffffffffff163373ffffffffffffffffffffffffffffffffffffffff1614151561067957600080fd5b6000809054906101000a900473ffffffffffffffffffffffffffffffffffffffff1673ffffffffffffffffffffffffffffffffffffffff167ff8df31144d9c2f0f6b59d69b8b98abd5459d07f2742c4df920b25aae33c6482060405160405180910390a260008060006101000a81548173ffffffffffffffffffffffffffffffffffffffff021916908373ffffffffffffffffffffffffffffffffffffffff160217905550565b6000806000809054906101000a900473ffffffffffffffffffffffffffffffffffffffff1673ffffffffffffffffffffffffffffffffffffffff163373ffffffffffffffffffffffffffffffffffffffff1614151561077e57600080fd5b848060018081111561078c57fe5b1015151561079957600080fd5b85846107a3610d45565b8083815260200180602001828103825283818151815260200191508051906020019080838360005b838110156107e65780820151818401526020810190506107cb565b50505050905090810190601f1680156108135780820380516001836020036101000a031916815260200191505b509350505050604051809103906000f080158015610835573d6000803e3d6000fd5b509150816005866040518082805190602001908083835b602083101515610871578051825260208201915060208101905060208303925061084c565b6001836020036101000a038019825116818451168082178552505050505050905001915050908152602001604051809103902060006101000a81548173ffffffffffffffffffffffffffffffffffffffff021916908373ffffffffffffffffffffffffffffffffffffffff16021790555081925050509392505050565b6000809054906101000a900473ffffffffffffffffffffffffffffffffffffffff1681565b60006005826040518082805190602001908083835b60208310151561094d5780518252602082019150602081019050602083039250610928565b6001836020036101000a038019825116818451168082178552505050505050905001915050908152602001604051809103902060009054906101000a900473ffffffffffffffffffffffffffffffffffffffff169050919050565b6000806000846040516020018082805190602001908083835b6020831015156109e657805182526020820191506020810190506020830392506109c1565b6001836020036101000a0380198251168184511680821785525050505050509050019150506040516020818303038152906040526040518082805190602001908083835b602083101515610a4f5780518252602082019150602081019050602083039250610a2a565b6001836020036101000a03801982511681845116808217855250505050505090500191505060405180910390209150836040516020018082805190602001908083835b602083101515610ab75780518252602082019150602081019050602083039250610a92565b6001836020036101000a0380198251168184511680821785525050505050509050019150506040516020818303038152906040526040518082805190602001908083835b602083101515610b205780518252602082019150602081019050602083039250610afb565b6001836020036101000a0380198251168184511680821785525050505050509050019150506040518091039020905080600019168260001916149250505092915050565b6000809054906101000a900473ffffffffffffffffffffffffffffffffffffffff1673ffffffffffffffffffffffffffffffffffffffff163373ffffffffffffffffffffffffffffffffffffffff16141515610bbf57600080fd5b610bc881610bcb565b50565b600073ffffffffffffffffffffffffffffffffffffffff168173ffffffffffffffffffffffffffffffffffffffff1614151515610c0757600080fd5b8073ffffffffffffffffffffffffffffffffffffffff166000809054906101000a900473ffffffffffffffffffffffffffffffffffffffff1673ffffffffffffffffffffffffffffffffffffffff167f8be0079c531659141344cd1fd0a4f28419497f9722a3daafe3b4186f6b6457e060405160405180910390a3806000806101000a81548173ffffffffffffffffffffffffffffffffffffffff021916908373ffffffffffffffffffffffffffffffffffffffff16021790555050565b828054600181600116156101000203166002900490600052602060002090601f016020900481019282601f10610d0657805160ff1916838001178555610d34565b82800160010185558215610d34579182015b82811115610d33578251825591602001919060010190610d18565b5b509050610d419190610d55565b5090565b60405161066e80610d7b83390190565b610d7791905b80821115610d73576000816000905550600101610d5b565b5090565b905600608060405234801561001057600080fd5b5060405161066e38038061066e8339810180604052810190808051906020019092919080518201929190505050336000806101000a81548173ffffffffffffffffffffffffffffffffffffffff021916908373ffffffffffffffffffffffffffffffffffffffff16021790555060006001819055508160028190555080600390805190602001906100a29291906100aa565b50505061014f565b828054600181600116156101000203166002900490600052602060002090601f016020900481019282601f106100eb57805160ff1916838001178555610119565b82800160010185558215610119579182015b828111156101185782518255916020019190600101906100fd565b5b509050610126919061012a565b5090565b61014c91905b80821115610148576000816000905550600101610130565b5090565b90565b6105108061015e6000396000f300608060405260043610610062576000357c0100000000000000000000000000000000000000000000000000000000900463ffffffff168063715018a614610067578063874057581461007e5780638da5cb5b14610115578063f2fde38b1461016c575b600080fd5b34801561007357600080fd5b5061007c6101af565b005b34801561008a57600080fd5b506100936102b1565b6040518083815260200180602001828103825283818151815260200191508051906020019080838360005b838110156100d95780820151818401526020810190506100be565b50505050905090810190601f1680156101065780820380516001836020036101000a031916815260200191505b50935050505060405180910390f35b34801561012157600080fd5b5061012a61035e565b604051808273ffffffffffffffffffffffffffffffffffffffff1673ffffffffffffffffffffffffffffffffffffffff16815260200191505060405180910390f35b34801561017857600080fd5b506101ad600480360381019080803573ffffffffffffffffffffffffffffffffffffffff169060200190929190505050610383565b005b6000809054906101000a900473ffffffffffffffffffffffffffffffffffffffff1673ffffffffffffffffffffffffffffffffffffffff163373ffffffffffffffffffffffffffffffffffffffff1614151561020a57600080fd5b6000809054906101000a900473ffffffffffffffffffffffffffffffffffffffff1673ffffffffffffffffffffffffffffffffffffffff167ff8df31144d9c2f0f6b59d69b8b98abd5459d07f2742c4df920b25aae33c6482060405160405180910390a260008060006101000a81548173ffffffffffffffffffffffffffffffffffffffff021916908373ffffffffffffffffffffffffffffffffffffffff160217905550565b600060606002546003808054600181600116156101000203166002900480601f01602080910402602001604051908101604052809291908181526020018280546001816001161561010002031660029004801561034f5780601f106103245761010080835404028352916020019161034f565b820191906000526020600020905b81548152906001019060200180831161033257829003601f168201915b50505050509050915091509091565b6000809054906101000a900473ffffffffffffffffffffffffffffffffffffffff1681565b6000809054906101000a900473ffffffffffffffffffffffffffffffffffffffff1673ffffffffffffffffffffffffffffffffffffffff163373ffffffffffffffffffffffffffffffffffffffff161415156103de57600080fd5b6103e7816103ea565b50565b600073ffffffffffffffffffffffffffffffffffffffff168173ffffffffffffffffffffffffffffffffffffffff161415151561042657600080fd5b8073ffffffffffffffffffffffffffffffffffffffff166000809054906101000a900473ffffffffffffffffffffffffffffffffffffffff1673ffffffffffffffffffffffffffffffffffffffff167f8be0079c531659141344cd1fd0a4f28419497f9722a3daafe3b4186f6b6457e060405160405180910390a3806000806101000a81548173ffffffffffffffffffffffffffffffffffffffff021916908373ffffffffffffffffffffffffffffffffffffffff160217905550505600a165627a7a723058207cf2b5cbae2f6764746d771482671c98867822cd6ffe13668c7ecc56b0b2b2280029a165627a7a72305820d1bc17e77f066fcab688db7d6573c73e9017c1edada2b725119801e31bf6ef310029",
  "source": "pragma solidity ^0.4.24;\r\n\r\nimport \"./Ownable.sol\";\r\nimport \"./BaseConstituency.sol\";\r\n\r\ncontract MasterConstituency is Ownable {\r\n    enum ConstituencyType {FEDERAL, STATE}\r\n    uint totalVotes;\r\n\r\n    modifier isValidConstituencyType(uint _constituencyType){\r\n        require(uint(ConstituencyType.STATE) >= _constituencyType);\r\n        _;\r\n    }\r\n\r\n    modifier isUniqueParty(string _name){\r\n        for (uint x = 0; x < parties.length; x++) {\r\n            if (compareStrings(parties[x].name, _name)) {\r\n                revert();\r\n            }\r\n        }\r\n        _;\r\n    }\r\n\r\n    struct Party {\r\n        string name;\r\n        string abbreviation;\r\n    }\r\n\r\n    struct Candidate {\r\n        string name;\r\n        uint numVotes;\r\n        bool validCandidate;\r\n    }\r\n\r\n    struct Voter {\r\n        bool hasVoted;\r\n        bool validFederalVote;\r\n        bool validStateVote;\r\n        uint federalCandidateVote;\r\n        uint stateCandidateVote;\r\n    }\r\n\r\n    Candidate[] candidates;\r\n    Party[] parties;\r\n\r\n    mapping(string => Voter) votes;\r\n    mapping(string => address) constituencies;\r\n    mapping(uint => uint) candidateToParty;\r\n\r\n    function initialiseConstituency(\r\n        uint _constituencyType,\r\n        string _constituencyCode,\r\n        string _constituencyName) public onlyOwner() isValidConstituencyType(_constituencyType) returns (address) {\r\n        address constituency = new BaseConstituency(_constituencyType, _constituencyName);\r\n        constituencies[_constituencyCode] = constituency;\r\n\r\n        return constituency;\r\n    }\r\n\r\n    function registerParty(string _name, string _abbreviation) public onlyOwner() isUniqueParty(_name) {\r\n        parties.push(Party(_name, _abbreviation));\r\n    }\r\n\r\n    function getConstituencyAddress(string _constituencyCode) public view returns (address) {\r\n        return constituencies[_constituencyCode];\r\n    }\r\n\r\n    function compareStrings(string a, string b) public pure returns (bool){\r\n        bytes32 c = keccak256(abi.encodePacked(a));\r\n        bytes32 d = keccak256(abi.encodePacked(b));\r\n\r\n        return c == d;\r\n    }\r\n}",
  "sourcePath": "D:\\blockchain\\contracts\\MasterConstituency.sol",
  "compiler": {
    "name": "solc",
    "version": "0.4.24+commit.e67f0147.Emscripten.clang"
  },
  "schemaVersion": "2.0.0",
  "updatedAt": "2018-07-05T09:55:29.153Z"
}